{
  "_format": "hh-sol-artifact-1",
  "contractName": "LandAssetManager",
  "sourceName": "contracts/LandAssetManager.sol",
  "abi": [
    {
      "inputs": [
        {
          "internalType": "string",
          "name": "uri",
          "type": "string"
        },
        {
          "internalType": "address",
          "name": "_auth",
          "type": "address"
        },
        {
          "internalType": "address",
          "name": "_plotRegistry",
          "type": "address"
        },
        {
          "internalType": "address",
          "name": "_plotOwnership",
          "type": "address"
        }
      ],
      "stateMutability": "nonpayable",
      "type": "constructor"
    },
    {
      "inputs": [
        {
          "internalType": "address",
          "name": "sender",
          "type": "address"
        },
        {
          "internalType": "uint256",
          "name": "balance",
          "type": "uint256"
        },
        {
          "internalType": "uint256",
          "name": "needed",
          "type": "uint256"
        },
        {
          "internalType": "uint256",
          "name": "tokenId",
          "type": "uint256"
        }
      ],
      "name": "ERC1155InsufficientBalance",
      "type": "error"
    },
    {
      "inputs": [
        {
          "internalType": "address",
          "name": "approver",
          "type": "address"
        }
      ],
      "name": "ERC1155InvalidApprover",
      "type": "error"
    },
    {
      "inputs": [
        {
          "internalType": "uint256",
          "name": "idsLength",
          "type": "uint256"
        },
        {
          "internalType": "uint256",
          "name": "valuesLength",
          "type": "uint256"
        }
      ],
      "name": "ERC1155InvalidArrayLength",
      "type": "error"
    },
    {
      "inputs": [
        {
          "internalType": "address",
          "name": "operator",
          "type": "address"
        }
      ],
      "name": "ERC1155InvalidOperator",
      "type": "error"
    },
    {
      "inputs": [
        {
          "internalType": "address",
          "name": "receiver",
          "type": "address"
        }
      ],
      "name": "ERC1155InvalidReceiver",
      "type": "error"
    },
    {
      "inputs": [
        {
          "internalType": "address",
          "name": "sender",
          "type": "address"
        }
      ],
      "name": "ERC1155InvalidSender",
      "type": "error"
    },
    {
      "inputs": [
        {
          "internalType": "address",
          "name": "operator",
          "type": "address"
        },
        {
          "internalType": "address",
          "name": "owner",
          "type": "address"
        }
      ],
      "name": "ERC1155MissingApprovalForAll",
      "type": "error"
    },
    {
      "anonymous": false,
      "inputs": [
        {
          "indexed": true,
          "internalType": "address",
          "name": "account",
          "type": "address"
        },
        {
          "indexed": true,
          "internalType": "address",
          "name": "operator",
          "type": "address"
        },
        {
          "indexed": false,
          "internalType": "bool",
          "name": "approved",
          "type": "bool"
        }
      ],
      "name": "ApprovalForAll",
      "type": "event"
    },
    {
      "anonymous": false,
      "inputs": [
        {
          "indexed": false,
          "internalType": "uint256[]",
          "name": "parcelIds",
          "type": "uint256[]"
        },
        {
          "indexed": false,
          "internalType": "uint256[]",
          "name": "parcelAmount",
          "type": "uint256[]"
        },
        {
          "indexed": false,
          "internalType": "uint256",
          "name": "timestamp",
          "type": "uint256"
        }
      ],
      "name": "PlotCreated",
      "type": "event"
    },
    {
      "anonymous": false,
      "inputs": [
        {
          "indexed": true,
          "internalType": "uint256",
          "name": "tokenId",
          "type": "uint256"
        },
        {
          "indexed": false,
          "internalType": "string",
          "name": "blockInfo",
          "type": "string"
        },
        {
          "indexed": false,
          "internalType": "string",
          "name": "parcelInfo",
          "type": "string"
        },
        {
          "indexed": false,
          "internalType": "uint256",
          "name": "totalSupply",
          "type": "uint256"
        }
      ],
      "name": "TokenCreated",
      "type": "event"
    },
    {
      "anonymous": false,
      "inputs": [
        {
          "indexed": true,
          "internalType": "uint256",
          "name": "requestId",
          "type": "uint256"
        },
        {
          "indexed": true,
          "internalType": "address",
          "name": "approver",
          "type": "address"
        },
        {
          "indexed": false,
          "internalType": "uint256",
          "name": "role",
          "type": "uint256"
        },
        {
          "indexed": false,
          "internalType": "bool",
          "name": "isFullyApproved",
          "type": "bool"
        },
        {
          "indexed": false,
          "internalType": "uint256",
          "name": "timestamp",
          "type": "uint256"
        }
      ],
      "name": "TransferApproved",
      "type": "event"
    },
    {
      "anonymous": false,
      "inputs": [
        {
          "indexed": true,
          "internalType": "address",
          "name": "operator",
          "type": "address"
        },
        {
          "indexed": true,
          "internalType": "address",
          "name": "from",
          "type": "address"
        },
        {
          "indexed": true,
          "internalType": "address",
          "name": "to",
          "type": "address"
        },
        {
          "indexed": false,
          "internalType": "uint256[]",
          "name": "ids",
          "type": "uint256[]"
        },
        {
          "indexed": false,
          "internalType": "uint256[]",
          "name": "values",
          "type": "uint256[]"
        }
      ],
      "name": "TransferBatch",
      "type": "event"
    },
    {
      "anonymous": false,
      "inputs": [
        {
          "indexed": true,
          "internalType": "uint256",
          "name": "requestId",
          "type": "uint256"
        },
        {
          "indexed": true,
          "internalType": "address",
          "name": "from",
          "type": "address"
        },
        {
          "indexed": true,
          "internalType": "address",
          "name": "to",
          "type": "address"
        },
        {
          "indexed": false,
          "internalType": "uint256",
          "name": "tokenId",
          "type": "uint256"
        },
        {
          "indexed": false,
          "internalType": "uint256",
          "name": "amount",
          "type": "uint256"
        }
      ],
      "name": "TransferExecuted",
      "type": "event"
    },
    {
      "anonymous": false,
      "inputs": [
        {
          "indexed": true,
          "internalType": "uint256",
          "name": "requestId",
          "type": "uint256"
        },
        {
          "indexed": true,
          "internalType": "address",
          "name": "from",
          "type": "address"
        },
        {
          "indexed": true,
          "internalType": "address",
          "name": "to",
          "type": "address"
        },
        {
          "indexed": false,
          "internalType": "uint256",
          "name": "tokenId",
          "type": "uint256"
        },
        {
          "indexed": false,
          "internalType": "uint256",
          "name": "amount",
          "type": "uint256"
        },
        {
          "indexed": false,
          "internalType": "bool",
          "name": "isPlotTransfer",
          "type": "bool"
        },
        {
          "indexed": false,
          "internalType": "uint256",
          "name": "plotId",
          "type": "uint256"
        }
      ],
      "name": "TransferRequestCreated",
      "type": "event"
    },
    {
      "anonymous": false,
      "inputs": [
        {
          "indexed": true,
          "internalType": "address",
          "name": "operator",
          "type": "address"
        },
        {
          "indexed": true,
          "internalType": "address",
          "name": "from",
          "type": "address"
        },
        {
          "indexed": true,
          "internalType": "address",
          "name": "to",
          "type": "address"
        },
        {
          "indexed": false,
          "internalType": "uint256",
          "name": "id",
          "type": "uint256"
        },
        {
          "indexed": false,
          "internalType": "uint256",
          "name": "value",
          "type": "uint256"
        }
      ],
      "name": "TransferSingle",
      "type": "event"
    },
    {
      "anonymous": false,
      "inputs": [
        {
          "indexed": false,
          "internalType": "string",
          "name": "value",
          "type": "string"
        },
        {
          "indexed": true,
          "internalType": "uint256",
          "name": "id",
          "type": "uint256"
        }
      ],
      "name": "URI",
      "type": "event"
    },
    {
      "inputs": [],
      "name": "auth",
      "outputs": [
        {
          "internalType": "contract IAuth",
          "name": "",
          "type": "address"
        }
      ],
      "stateMutability": "view",
      "type": "function"
    },
    {
      "inputs": [
        {
          "internalType": "address",
          "name": "account",
          "type": "address"
        },
        {
          "internalType": "uint256",
          "name": "id",
          "type": "uint256"
        }
      ],
      "name": "balanceOf",
      "outputs": [
        {
          "internalType": "uint256",
          "name": "",
          "type": "uint256"
        }
      ],
      "stateMutability": "view",
      "type": "function"
    },
    {
      "inputs": [
        {
          "internalType": "address[]",
          "name": "accounts",
          "type": "address[]"
        },
        {
          "internalType": "uint256[]",
          "name": "ids",
          "type": "uint256[]"
        }
      ],
      "name": "balanceOfBatch",
      "outputs": [
        {
          "internalType": "uint256[]",
          "name": "",
          "type": "uint256[]"
        }
      ],
      "stateMutability": "view",
      "type": "function"
    },
    {
      "inputs": [
        {
          "internalType": "string",
          "name": "blockInfo",
          "type": "string"
        },
        {
          "internalType": "string",
          "name": "parcelInfo",
          "type": "string"
        },
        {
          "internalType": "string",
          "name": "tokenURI",
          "type": "string"
        },
        {
          "internalType": "uint256",
          "name": "totalSupply",
          "type": "uint256"
        }
      ],
      "name": "createBlockParcelToken",
      "outputs": [
        {
          "internalType": "uint256",
          "name": "",
          "type": "uint256"
        }
      ],
      "stateMutability": "nonpayable",
      "type": "function"
    },
    {
      "inputs": [],
      "name": "currentTokenId",
      "outputs": [
        {
          "internalType": "uint256",
          "name": "",
          "type": "uint256"
        }
      ],
      "stateMutability": "view",
      "type": "function"
    },
    {
      "inputs": [
        {
          "internalType": "address",
          "name": "signerWallet",
          "type": "address"
        },
        {
          "internalType": "uint256",
          "name": "requestIdForApproval",
          "type": "uint256"
        },
        {
          "internalType": "uint256",
          "name": "_role",
          "type": "uint256"
        }
      ],
      "name": "delegateApproveAndTransfer",
      "outputs": [],
      "stateMutability": "nonpayable",
      "type": "function"
    },
    {
      "inputs": [
        {
          "internalType": "uint256",
          "name": "_tokenId",
          "type": "uint256"
        }
      ],
      "name": "getBlockParcelTokenURI",
      "outputs": [
        {
          "internalType": "string",
          "name": "",
          "type": "string"
        }
      ],
      "stateMutability": "view",
      "type": "function"
    },
    {
      "inputs": [],
      "name": "getCurrentPlotAndTokenIdInfo",
      "outputs": [
        {
          "internalType": "uint256",
          "name": "",
          "type": "uint256"
        },
        {
          "internalType": "uint256",
          "name": "",
          "type": "uint256"
        }
      ],
      "stateMutability": "view",
      "type": "function"
    },
    {
      "inputs": [
        {
          "internalType": "uint256",
          "name": "_tokenId",
          "type": "uint256"
        }
      ],
      "name": "getLandInfo",
      "outputs": [
        {
          "components": [
            {
              "internalType": "string",
              "name": "blockInfo",
              "type": "string"
            },
            {
              "internalType": "string",
              "name": "parcelInfo",
              "type": "string"
            },
            {
              "internalType": "string",
              "name": "blockParcelTokenURI",
              "type": "string"
            },
            {
              "internalType": "uint256",
              "name": "totalSupply",
              "type": "uint256"
            },
            {
              "internalType": "uint256[]",
              "name": "plotAllocation",
              "type": "uint256[]"
            }
          ],
          "internalType": "struct LandAssetManager.LandInfo",
          "name": "",
          "type": "tuple"
        }
      ],
      "stateMutability": "view",
      "type": "function"
    },
    {
      "inputs": [],
      "name": "getListOfTotalPlots",
      "outputs": [
        {
          "internalType": "address[]",
          "name": "",
          "type": "address[]"
        }
      ],
      "stateMutability": "view",
      "type": "function"
    },
    {
      "inputs": [
        {
          "internalType": "uint256",
          "name": "_plotId",
          "type": "uint256"
        },
        {
          "internalType": "address",
          "name": "_user",
          "type": "address"
        }
      ],
      "name": "getOwnershipPercentage",
      "outputs": [
        {
          "internalType": "uint256",
          "name": "",
          "type": "uint256"
        }
      ],
      "stateMutability": "view",
      "type": "function"
    },
    {
      "inputs": [
        {
          "internalType": "uint256",
          "name": "_plotId",
          "type": "uint256"
        }
      ],
      "name": "getPlotAccountInfo",
      "outputs": [
        {
          "components": [
            {
              "internalType": "address",
              "name": "plotAccount",
              "type": "address"
            },
            {
              "internalType": "string",
              "name": "plotName",
              "type": "string"
            },
            {
              "internalType": "uint256[]",
              "name": "parcelIds",
              "type": "uint256[]"
            },
            {
              "internalType": "uint256[]",
              "name": "parcelAmounts",
              "type": "uint256[]"
            }
          ],
          "internalType": "struct LandAssetManager.PlotInfo",
          "name": "",
          "type": "tuple"
        }
      ],
      "stateMutability": "view",
      "type": "function"
    },
    {
      "inputs": [
        {
          "internalType": "uint256",
          "name": "_plotId",
          "type": "uint256"
        },
        {
          "internalType": "uint256",
          "name": "_parcelId",
          "type": "uint256"
        }
      ],
      "name": "getPlotAccountParcelShareholders",
      "outputs": [
        {
          "internalType": "address[]",
          "name": "",
          "type": "address[]"
        }
      ],
      "stateMutability": "view",
      "type": "function"
    },
    {
      "inputs": [
        {
          "internalType": "uint256",
          "name": "_plotId",
          "type": "uint256"
        },
        {
          "internalType": "uint256",
          "name": "_parcelId",
          "type": "uint256"
        }
      ],
      "name": "getPlotAccountParcelTotalShares",
      "outputs": [
        {
          "internalType": "uint256",
          "name": "",
          "type": "uint256"
        }
      ],
      "stateMutability": "view",
      "type": "function"
    },
    {
      "inputs": [
        {
          "internalType": "uint256",
          "name": "_plotId",
          "type": "uint256"
        },
        {
          "internalType": "address",
          "name": "_user",
          "type": "address"
        },
        {
          "internalType": "uint256",
          "name": "_parcel",
          "type": "uint256"
        }
      ],
      "name": "getPlotAccountUserParcels",
      "outputs": [
        {
          "internalType": "uint256[]",
          "name": "",
          "type": "uint256[]"
        }
      ],
      "stateMutability": "view",
      "type": "function"
    },
    {
      "inputs": [
        {
          "internalType": "uint256",
          "name": "_plotId",
          "type": "uint256"
        },
        {
          "internalType": "uint256",
          "name": "_parcelId",
          "type": "uint256"
        },
        {
          "internalType": "address",
          "name": "_user",
          "type": "address"
        }
      ],
      "name": "getPlotAccountUserShares",
      "outputs": [
        {
          "internalType": "uint256",
          "name": "",
          "type": "uint256"
        }
      ],
      "stateMutability": "view",
      "type": "function"
    },
    {
      "inputs": [
        {
          "internalType": "uint256",
          "name": "_tokenId",
          "type": "uint256"
        }
      ],
      "name": "getPlotAllocation",
      "outputs": [
        {
          "internalType": "uint256[]",
          "name": "",
          "type": "uint256[]"
        }
      ],
      "stateMutability": "view",
      "type": "function"
    },
    {
      "inputs": [
        {
          "internalType": "address",
          "name": "account",
          "type": "address"
        },
        {
          "internalType": "address",
          "name": "operator",
          "type": "address"
        }
      ],
      "name": "isApprovedForAll",
      "outputs": [
        {
          "internalType": "bool",
          "name": "",
          "type": "bool"
        }
      ],
      "stateMutability": "view",
      "type": "function"
    },
    {
      "inputs": [
        {
          "internalType": "uint256",
          "name": "",
          "type": "uint256"
        }
      ],
      "name": "listOfTotalPlots",
      "outputs": [
        {
          "internalType": "address",
          "name": "",
          "type": "address"
        }
      ],
      "stateMutability": "view",
      "type": "function"
    },
    {
      "inputs": [
        {
          "internalType": "address",
          "name": "operator",
          "type": "address"
        },
        {
          "internalType": "address",
          "name": "from",
          "type": "address"
        },
        {
          "internalType": "uint256",
          "name": "tokenId",
          "type": "uint256"
        },
        {
          "internalType": "bytes",
          "name": "data",
          "type": "bytes"
        }
      ],
      "name": "onERC721Received",
      "outputs": [
        {
          "internalType": "bytes4",
          "name": "",
          "type": "bytes4"
        }
      ],
      "stateMutability": "pure",
      "type": "function"
    },
    {
      "inputs": [
        {
          "internalType": "string",
          "name": "plotName",
          "type": "string"
        },
        {
          "internalType": "uint256[]",
          "name": "parcelIds",
          "type": "uint256[]"
        },
        {
          "internalType": "uint256[]",
          "name": "parcelAmounts",
          "type": "uint256[]"
        }
      ],
      "name": "plotInitiate",
      "outputs": [],
      "stateMutability": "nonpayable",
      "type": "function"
    },
    {
      "inputs": [],
      "name": "plotOwnership",
      "outputs": [
        {
          "internalType": "contract IPlotOwnership",
          "name": "",
          "type": "address"
        }
      ],
      "stateMutability": "view",
      "type": "function"
    },
    {
      "inputs": [],
      "name": "plotOwnershipAddress",
      "outputs": [
        {
          "internalType": "address",
          "name": "",
          "type": "address"
        }
      ],
      "stateMutability": "view",
      "type": "function"
    },
    {
      "inputs": [],
      "name": "plotRegistry",
      "outputs": [
        {
          "internalType": "contract IPlotRegistry",
          "name": "",
          "type": "address"
        }
      ],
      "stateMutability": "view",
      "type": "function"
    },
    {
      "inputs": [
        {
          "internalType": "uint256",
          "name": "_requestId",
          "type": "uint256"
        }
      ],
      "name": "rejectTransfer",
      "outputs": [],
      "stateMutability": "nonpayable",
      "type": "function"
    },
    {
      "inputs": [
        {
          "internalType": "uint256",
          "name": "_parcelId",
          "type": "uint256"
        },
        {
          "internalType": "uint256",
          "name": "parcelAmount",
          "type": "uint256"
        },
        {
          "internalType": "address",
          "name": "to",
          "type": "address"
        },
        {
          "internalType": "uint256",
          "name": "_plotId",
          "type": "uint256"
        }
      ],
      "name": "requestForParcelTransfer",
      "outputs": [],
      "stateMutability": "nonpayable",
      "type": "function"
    },
    {
      "inputs": [
        {
          "internalType": "uint256",
          "name": "_plotId",
          "type": "uint256"
        },
        {
          "internalType": "address",
          "name": "to",
          "type": "address"
        }
      ],
      "name": "requestForWholePlotTransfer",
      "outputs": [],
      "stateMutability": "nonpayable",
      "type": "function"
    },
    {
      "inputs": [],
      "name": "requestId",
      "outputs": [
        {
          "internalType": "uint256",
          "name": "",
          "type": "uint256"
        }
      ],
      "stateMutability": "view",
      "type": "function"
    },
    {
      "inputs": [
        {
          "internalType": "uint256",
          "name": "_requestId",
          "type": "uint256"
        }
      ],
      "name": "requestStatus",
      "outputs": [
        {
          "components": [
            {
              "internalType": "address",
              "name": "from",
              "type": "address"
            },
            {
              "internalType": "address",
              "name": "to",
              "type": "address"
            },
            {
              "internalType": "uint256",
              "name": "parcelId",
              "type": "uint256"
            },
            {
              "internalType": "uint256",
              "name": "parcelAmount",
              "type": "uint256"
            },
            {
              "internalType": "bool",
              "name": "isPlotTransfer",
              "type": "bool"
            },
            {
              "internalType": "uint256",
              "name": "plotId",
              "type": "uint256"
            },
            {
              "internalType": "uint256",
              "name": "timestamp",
              "type": "uint256"
            },
            {
              "internalType": "enum LandAssetManager.TransferStatus",
              "name": "status",
              "type": "uint8"
            },
            {
              "internalType": "bool",
              "name": "landAuthorityApproved",
              "type": "bool"
            },
            {
              "internalType": "bool",
              "name": "lawyerApproved",
              "type": "bool"
            },
            {
              "internalType": "bool",
              "name": "bankApproved",
              "type": "bool"
            }
          ],
          "internalType": "struct LandAssetManager.TransferRequest",
          "name": "",
          "type": "tuple"
        }
      ],
      "stateMutability": "view",
      "type": "function"
    },
    {
      "inputs": [
        {
          "internalType": "address",
          "name": "from",
          "type": "address"
        },
        {
          "internalType": "address",
          "name": "to",
          "type": "address"
        },
        {
          "internalType": "uint256[]",
          "name": "ids",
          "type": "uint256[]"
        },
        {
          "internalType": "uint256[]",
          "name": "values",
          "type": "uint256[]"
        },
        {
          "internalType": "bytes",
          "name": "data",
          "type": "bytes"
        }
      ],
      "name": "safeBatchTransferFrom",
      "outputs": [],
      "stateMutability": "nonpayable",
      "type": "function"
    },
    {
      "inputs": [
        {
          "internalType": "address",
          "name": "from",
          "type": "address"
        },
        {
          "internalType": "address",
          "name": "to",
          "type": "address"
        },
        {
          "internalType": "uint256",
          "name": "id",
          "type": "uint256"
        },
        {
          "internalType": "uint256",
          "name": "value",
          "type": "uint256"
        },
        {
          "internalType": "bytes",
          "name": "data",
          "type": "bytes"
        }
      ],
      "name": "safeTransferFrom",
      "outputs": [],
      "stateMutability": "nonpayable",
      "type": "function"
    },
    {
      "inputs": [
        {
          "internalType": "address",
          "name": "operator",
          "type": "address"
        },
        {
          "internalType": "bool",
          "name": "approved",
          "type": "bool"
        }
      ],
      "name": "setApprovalForAll",
      "outputs": [],
      "stateMutability": "nonpayable",
      "type": "function"
    },
    {
      "inputs": [
        {
          "internalType": "bytes4",
          "name": "interfaceId",
          "type": "bytes4"
        }
      ],
      "name": "supportsInterface",
      "outputs": [
        {
          "internalType": "bool",
          "name": "",
          "type": "bool"
        }
      ],
      "stateMutability": "view",
      "type": "function"
    },
    {
      "inputs": [
        {
          "internalType": "uint256",
          "name": "",
          "type": "uint256"
        }
      ],
      "name": "uri",
      "outputs": [
        {
          "internalType": "string",
          "name": "",
          "type": "string"
        }
      ],
      "stateMutability": "view",
      "type": "function"
    }
  ],
  "bytecode": "0x608060405234801561001057600080fd5b50604051613e4d380380613e4d83398101604081905261002f916100cd565b836100398161008b565b50600a80546001600160a01b03199081166001600160a01b0395861617909155600880548216938516939093179092556009805483169190931690811790925560068054909116909117905550610312565b60026100978282610253565b5050565b634e487b7160e01b600052604160045260246000fd5b80516001600160a01b03811681146100c857600080fd5b919050565b600080600080608085870312156100e357600080fd5b84516001600160401b03808211156100fa57600080fd5b818701915087601f83011261010e57600080fd5b8151818111156101205761012061009b565b604051601f8201601f19908116603f011681019083821181831017156101485761014861009b565b81604052828152602093508a8484870101111561016457600080fd5b600091505b828210156101865784820184015181830185015290830190610169565b600084848301015280985050505061019f8188016100b1565b945050506101af604086016100b1565b91506101bd606086016100b1565b905092959194509250565b600181811c908216806101dc57607f821691505b6020821081036101fc57634e487b7160e01b600052602260045260246000fd5b50919050565b601f82111561024e576000816000526020600020601f850160051c8101602086101561022b5750805b601f850160051c820191505b8181101561024a57828155600101610237565b5050505b505050565b81516001600160401b0381111561026c5761026c61009b565b6102808161027a84546101c8565b84610202565b602080601f8311600181146102b5576000841561029d5750858301515b600019600386901b1c1916600185901b17855561024a565b600085815260208120601f198616915b828110156102e4578886015182559484019460019091019084016102c5565b50858210156103025787850151600019600388901b60f8161c191681555b5050505050600190811b01905550565b613b2c806103216000396000f3fe608060405234801561001057600080fd5b50600436106102035760003560e01c80637b3b96731161011a578063bdcb0314116100ad578063cea708441161007c578063cea70844146104c8578063de9375f2146104db578063e985e9c5146104ee578063f242432a14610501578063f95a53d51461051457600080fd5b8063bdcb03141461046f578063bf5f71b814610482578063c2d4769d14610495578063c5725f4b146104b557600080fd5b8063a738a285116100e9578063a738a28514610423578063a900e23614610436578063ab3fdd2b14610449578063bceaebff1461045c57600080fd5b80637b3b9673146103cf57806382384f81146103e2578063a22cb465146103fd578063a31a3a431461041057600080fd5b8063150b7a021161019d5780633fbc72761161016c5780633fbc72761461033e57806345b6453b146103695780634e1273f4146103895780636f6f9bef1461039c5780636fbba4d9146103bc57600080fd5b8063150b7a02146102c05780631a313202146102f85780632eb2c2d614610318578063360f75821461032b57600080fd5b80630cce22c7116101d95780630cce22c7146102635780630d1dfd08146102785780630e89341c1461028d57806312effc32146102ad57600080fd5b80626d6cae146102085780629a9b7b14610224578062fdd58e1461022d57806301ffc9a714610240575b600080fd5b61021160055481565b6040519081526020015b60405180910390f35b61021160035481565b61021161023b366004612c2e565b610527565b61025361024e366004612c70565b61054f565b604051901515815260200161021b565b610276610271366004612c94565b61055a565b005b6102806107f8565b60405161021b9190612cc9565b6102a061029b366004612d16565b61085a565b60405161021b9190612d7f565b6102766102bb366004612d16565b6108ee565b6102df6102ce366004612d92565b630a85bd0160e11b95945050505050565b6040516001600160e01b0319909116815260200161021b565b61030b610306366004612d16565b610a0b565b60405161021b9190612e68565b610276610326366004613059565b610b46565b610211610339366004613106565b610bad565b600654610351906001600160a01b031681565b6040516001600160a01b03909116815260200161021b565b61037c610377366004612d16565b610c39565b60405161021b919061317b565b61037c61039736600461318e565b610c9d565b6103af6103aa366004612d16565b610d69565b60405161021b919061324f565b6102a06103ca366004612d16565b610fd2565b61037c6103dd3660046132ce565b610ff2565b6004546003546040805192835260208301919091520161021b565b61027661040b366004613314565b61107b565b61035161041e366004612d16565b61108a565b61028061043136600461334d565b6110b4565b600854610351906001600160a01b031681565b61027661045736600461336f565b61113d565b600954610351906001600160a01b031681565b61021161047d36600461334d565b611602565b6102116104903660046133f6565b61167e565b6104a86104a3366004612d16565b6116be565b60405161021b919061341b565b6102766104c33660046133f6565b611865565b6102116104d6366004613485565b611b71565b600a54610351906001600160a01b031681565b6102536104fc366004613514565b611d84565b61027661050f366004613542565b611db2565b6102766105223660046135aa565b611e11565b6000818152602081815260408083206001600160a01b03861684529091529020545b92915050565b600061054982612095565b600081600103610616576000838152600d60205260409020600701805461ff001916610100179081905562010000900460ff1680156105b157506000838152600d60205260409020600701546301000000900460ff165b156105ba575060015b836001600160a01b0316837faf49c9f2c598a27f6918ca87eb8058baac5f2f871de5ef13b001f58545e28060848442604051610609939291909283529015156020830152604082015260600190565b60405180910390a36107bb565b816002036106c1576000838152600d60205260409020600701805463ff00000019166301000000179081905562010000900460ff1680156105b157506000838152600d6020526040902060070154610100900460ff16156105ba57506040805182815260016020820181905242928201929092526001600160a01b0385169084907faf49c9f2c598a27f6918ca87eb8058baac5f2f871de5ef13b001f58545e2806090606001610609565b8160030361076b576000838152600d60205260409020600701805462ff000019166201000017908190556301000000900460ff1680156105b157506000838152600d6020526040902060070154610100900460ff16156105ba57506040805182815260016020820181905242928201929092526001600160a01b0385169084907faf49c9f2c598a27f6918ca87eb8058baac5f2f871de5ef13b001f58545e2806090606001610609565b60008211801561077b5750600482105b6107bb5760405162461bcd60e51b815260206004820152600c60248201526b496e76616c696420726f6c6560a01b60448201526064015b60405180910390fd5b80156107f2576000838152600d602052604090206004015460ff16156107e9576107e4836120e5565b6107f2565b6107f283612356565b50505050565b6060600780548060200260200160405190810160405280929190818152602001828054801561085057602002820191906000526020600020905b81546001600160a01b03168152600190910190602001808311610832575b5050505050905090565b606060028054610869906135e9565b80601f0160208091040260200160405190810160405280929190818152602001828054610895906135e9565b80156108e25780601f106108b7576101008083540402835291602001916108e2565b820191906000526020600020905b8154815290600101906020018083116108c557829003601f168201915b50505050509050919050565b600a546001600160a01b03166324d7806c336040516001600160e01b031960e084901b1681526001600160a01b039091166004820152602401602060405180830381865afa158015610944573d6000803e3d6000fd5b505050506040513d601f19601f820116820180604052508101906109689190613623565b6109845760405162461bcd60e51b81526004016107b290613640565b6000818152600d602052604090206001600782015460ff1660038111156109ad576109ad612e30565b146109f05760405162461bcd60e51b815260206004820152601360248201527252657175657374206e6f742070656e64696e6760681b60448201526064016107b2565b6007810180546002919060ff19166001835b02179055505050565b6040805161016081018252600080825260208201819052918101829052606081018290526080810182905260a0810182905260c0810182905260e08101829052610100810182905261012081018290526101408101919091526000828152600d602090815260409182902082516101608101845281546001600160a01b039081168252600183015416928101929092526002810154928201929092526003808301546060830152600483015460ff90811615156080840152600584015460a0840152600684015460c0840152600784015492939260e0850192911690811115610af657610af6612e30565b6003811115610b0757610b07612e30565b81526007919091015460ff6101008204811615156020840152620100008204811615156040840152630100000090910416151560609091015292915050565b336001600160a01b0386168114801590610b675750610b658682611d84565b155b15610b985760405163711bec9160e11b81526001600160a01b038083166004830152871660248201526044016107b2565b610ba58686868686612507565b505050505050565b6000838152600e602052604080822054905163835dc40b60e01b8152600481018590526001600160a01b03848116602483015290911690819063835dc40b90604401602060405180830381865afa158015610c0c573d6000803e3d6000fd5b505050506040513d601f19601f82011682018060405250810190610c309190613677565b95945050505050565b6000818152600c60209081526040918290206004018054835181840281018401909452808452606093928301828280156108e257602002820191906000526020600020905b815481526020019060010190808311610c7e5750505050509050919050565b60608151835114610cce5781518351604051635b05999160e01b8152600481019290925260248201526044016107b2565b600083516001600160401b03811115610ce957610ce9612f12565b604051908082528060200260200182016040528015610d12578160200160208202803683370190505b50905060005b8451811015610d6157602080820286010151610d3c90602080840287010151610527565b828281518110610d4e57610d4e613690565b6020908102919091010152600101610d18565b509392505050565b610d9b6040518060a0016040528060608152602001606081526020016060815260200160008152602001606081525090565b6000828152600c602052604090819020815160a08101909252805482908290610dc3906135e9565b80601f0160208091040260200160405190810160405280929190818152602001828054610def906135e9565b8015610e3c5780601f10610e1157610100808354040283529160200191610e3c565b820191906000526020600020905b815481529060010190602001808311610e1f57829003601f168201915b50505050508152602001600182018054610e55906135e9565b80601f0160208091040260200160405190810160405280929190818152602001828054610e81906135e9565b8015610ece5780601f10610ea357610100808354040283529160200191610ece565b820191906000526020600020905b815481529060010190602001808311610eb157829003601f168201915b50505050508152602001600282018054610ee7906135e9565b80601f0160208091040260200160405190810160405280929190818152602001828054610f13906135e9565b8015610f605780601f10610f3557610100808354040283529160200191610f60565b820191906000526020600020905b815481529060010190602001808311610f4357829003601f168201915b505050505081526020016003820154815260200160048201805480602002602001604051908101604052809291908181526020018280548015610fc257602002820191906000526020600020905b815481526020019060010190808311610fae575b5050505050815250509050919050565b6000818152600c60205260409020600201805460609190610869906135e9565b6000838152600e6020526040908190205490516363319d8d60e01b81526001600160a01b03848116600483015260248201849052606092169081906363319d8d90604401600060405180830381865afa158015611053573d6000803e3d6000fd5b505050506040513d6000823e601f3d908101601f19168201604052610c3091908101906136a6565b61108633838361256e565b5050565b6007818154811061109a57600080fd5b6000918252602090912001546001600160a01b0316905081565b6000828152600e6020526040908190205490516309771aed60e41b8152600481018390526060916001600160a01b0316908190639771aed090602401600060405180830381865afa15801561110d573d6000803e3d6000fd5b505050506040513d6000823e601f3d908101601f191682016040526111359190810190613736565b949350505050565b600a546001600160a01b03166324d7806c336040516001600160e01b031960e084901b1681526001600160a01b039091166004820152602401602060405180830381865afa158015611193573d6000803e3d6000fd5b505050506040513d601f19601f820116820180604052508101906111b79190613623565b6111d35760405162461bcd60e51b81526004016107b290613640565b60005b8251811015611248578181815181106111f1576111f1613690565b60200260200101516112226112033390565b85848151811061121557611215613690565b6020026020010151610527565b10156112405760405162461bcd60e51b81526004016107b2906137c4565b6001016111d6565b506004805490600061125983613806565b90915550506004805460095460405163af3dd63960e01b815292830182905230602484015290916001600160a01b039091169063af3dd639906044016020604051808303816000875af11580156112b4573d6000803e3d6000fd5b505050506040513d601f19601f820116820180604052508101906112d89190613677565b50600854600654604051630fcb200d60e21b81526001600160a01b0391821660048201526024810184905260606044820152600060648201819052929190911690633f2c8034906084016020604051808303816000875af1158015611341573d6000803e3d6000fd5b505050506040513d601f19601f82011682018060405250810190611365919061381f565b604080516080810182526001600160a01b03838116825260208083018a81528385018a9052606084018990526000888152600e909252939020825181546001600160a01b031916921691909117815591519293509160018201906113c99082613889565b50604082015180516113e5916002840191602090910190612bb6565b5060608201518051611401916003840191602090910190612bb6565b5090505061142761140f3390565b82868660405180602001604052806000815250610b46565b6009546001600160a01b03166314c6bb7983336040516001600160e01b031960e085901b16815260048101929092526001600160a01b03166024820152604401600060405180830381600087803b15801561148157600080fd5b505af1158015611495573d6000803e3d6000fd5b50505050806001600160a01b031663f69dc2ae6114af3390565b8787876040518563ffffffff1660e01b81526004016114d19493929190613948565b6020604051808303816000875af11580156114f0573d6000803e3d6000fd5b505050506040513d601f19601f820116820180604052508101906115149190613677565b5060005b845181101561157357600c600086838151811061153757611537613690565b60209081029190910181015182528181019290925260400160009081206004018054600181810183559183529290912090910184905501611518565b50600780546001810182556000919091527fa66cc928b5edb82af9bd49922954155ab7b0942694bea4ce44661d9a8736c6880180546001600160a01b0319166001600160a01b0383161790556040517f915708fb7ee5da90b08a28b58664546eae63c0680f363ea2cc38c345f5be2940906115f390869086904290613992565b60405180910390a15050505050565b6000828152600e6020526040808220549051630447b88d60e51b8152600481018490526001600160a01b039091169081906388f711a0906024015b602060405180830381865afa15801561165a573d6000803e3d6000fd5b505050506040513d601f19601f820116820180604052508101906111359190613677565b6000828152600e602052604080822054905163145263fd60e31b81526001600160a01b03848116600483015290911690819063a2931fe89060240161163d565b6116f2604051806080016040528060006001600160a01b031681526020016060815260200160608152602001606081525090565b6000828152600e602090815260409182902082516080810190935280546001600160a01b03168352600181018054919284019161172e906135e9565b80601f016020809104026020016040519081016040528092919081815260200182805461175a906135e9565b80156117a75780601f1061177c576101008083540402835291602001916117a7565b820191906000526020600020905b81548152906001019060200180831161178a57829003601f168201915b50505050508152602001600282018054806020026020016040519081016040528092919081815260200182805480156117ff57602002820191906000526020600020905b8154815260200190600101908083116117eb575b5050505050815260200160038201805480602002602001604051908101604052809291908181526020018280548015610fc25760200282019190600052602060002090815481526020019060010190808311610fae575050505050815250509050919050565b33600954604051632ea9327360e11b8152600481018590526001600160a01b039283169290911690635d5264e690602401602060405180830381865afa1580156118b3573d6000803e3d6000fd5b505050506040513d601f19601f820116820180604052508101906118d7919061381f565b6001600160a01b0316146119295760405162461bcd60e51b8152602060048201526019602482015278139bdd081d1a19481bdddb995c881bd9881d1a19481c1b1bdd603a1b60448201526064016107b2565b611933823361167e565b612710146119925760405162461bcd60e51b815260206004820152602660248201527f5573657220646f6573206e6f742068617665207468652066756c6c206f776e6560448201526503939b434b8160d51b60648201526084016107b2565b600580549060006119a283613806565b909155505060055460408051610160810182523381526001600160a01b03841660208201526000918101829052606081019190915260016080820181905260a082018590524260c083015260e082019081526000602080830182905260408084018390526060938401839052858352600d825291829020845181546001600160a01b039182166001600160a01b03199182161783559286015160018381018054929093169190941617905591840151600283015591830151600380830191909155608084015160048301805491151560ff1992831617905560a0850151600584015560c0850151600684015560e08501516007840180549495919490939216918490811115611ab357611ab3612e30565b0217905550610100828101516007909201805461012085015161014090950151151563010000000263ff00000019951515620100000262ff0000199515159094029490941662ffff00199091161791909117929092161790556000611b153390565b60408051600080825260208201526001818301526060810187905290516001600160a01b03929092169184917f4595add82735fb552f64748fc031bd6e53c364da7faac5ce52e2ee48c943b7d3919081900360800190a4505050565b600a546000906001600160a01b03166324d7806c336040516001600160e01b031960e084901b1681526001600160a01b039091166004820152602401602060405180830381865afa158015611bca573d6000803e3d6000fd5b505050506040513d601f19601f82011682018060405250810190611bee9190613623565b611c0a5760405162461bcd60e51b81526004016107b290613640565b60008211611c665760405162461bcd60e51b815260206004820152602360248201527f546f74616c20737570706c79206d75737420626520677265617465722074686160448201526206e20360ec1b60648201526084016107b2565b60038054906000611c7683613806565b9091555050600354611c9933828560405180602001604052806000815250612604565b6000818152600c60205260409020611cb18782613889565b506000818152600c60205260409020600101611ccd8682613889565b506000818152600c60205260409020600201611ce98582613889565b506000818152600c602052604090819020600301849055518190600b90611d119089906139c8565b908152602001604051809103902086604051611d2d91906139c8565b908152602001604051809103902081905550807fa09f8ded7663b6558550b417380d535c092265d90b5415bd6d16d8c95b027d13878786604051611d73939291906139e4565b60405180910390a295945050505050565b6001600160a01b03918216600090815260016020908152604080832093909416825291909152205460ff1690565b336001600160a01b0386168114801590611dd35750611dd18682611d84565b155b15611e045760405163711bec9160e11b81526001600160a01b038083166004830152871660248201526044016107b2565b610ba58686868686612661565b6000811180611e205750600084115b611e805760405162461bcd60e51b815260206004820152602b60248201527f506c6f74204944206f722050617263656c204944206d7573742062652067726560448201526a061746572207468616e20360ac1b60648201526084016107b2565b82611e8c828633610bad565b1015611eaa5760405162461bcd60e51b81526004016107b2906137c4565b60058054906000611eba83613806565b909155505060055460408051610160810190915280336001600160a01b0390811682528516602082015260408101879052606081018690526000608082015260a081018490524260c082015260e001600181526000602080830182905260408084018390526060938401839052858352600d825291829020845181546001600160a01b039182166001600160a01b03199182161783559286015160018381018054929093169190941617905591840151600283015591830151600380830191909155608084015160048301805491151560ff1992831617905560a0850151600584015560c0850151600684015560e08501516007840180549495919490939216918490811115611fcc57611fcc612e30565b0217905550610100828101516007909201805461012085015161014090950151151563010000000263ff00000019951515620100000262ff0000199515159094029490941662ffff0019909116179190911792909216179055600061202e3390565b6001600160a01b0316827f4595add82735fb552f64748fc031bd6e53c364da7faac5ce52e2ee48c943b7d388886000886040516120869493929190938452602084019290925215156040830152606082015260800190565b60405180910390a45050505050565b60006001600160e01b03198216636cdb3d1360e11b14806120c657506001600160e01b031982166303a24d0760e21b145b8061054957506301ffc9a760e01b6001600160e01b0319831614610549565b6000818152600d602052604090206005810154815461210d91906001600160a01b031661167e565b612710146121755760405162461bcd60e51b815260206004820152602f60248201527f53656e64657220646f6573206e6f7420686176652031303025206f776e65727360448201526e1a1a5c081bd9881d1a19481c1b1bdd608a1b60648201526084016107b2565b80546009546005830154604051632ea9327360e11b815260048101919091526001600160a01b039283169290911690635d5264e690602401602060405180830381865afa1580156121ca573d6000803e3d6000fd5b505050506040513d601f19601f820116820180604052508101906121ee919061381f565b6001600160a01b0316146122405760405162461bcd60e51b8152602060048201526019602482015278139bdd081d1a19481bdddb995c881bd9881d1a19481c1b1bdd603a1b60448201526064016107b2565b60058101546000908152600e6020526040908190205482546001840154925163b061ce0560e01b81526001600160a01b0391821660048201529281166024840152169063b061ce05906044016020604051808303816000875af11580156122ab573d6000803e3d6000fd5b505050506040513d601f19601f820116820180604052508101906122cf9190613623565b50600954600582015460018301546040516314c6bb7960e01b815260048101929092526001600160a01b039081166024830152909116906314c6bb7990604401600060405180830381600087803b15801561232957600080fd5b505af115801561233d573d6000803e3d6000fd5b5050506007820180546003925060ff1916600183610a02565b6000818152600d6020526040902060038101546005820154600283015483546123899291906001600160a01b0316610bad565b10156123a75760405162461bcd60e51b81526004016107b2906137c4565b60058101546000908152600e6020526040908190205482546001840154600285015460038601549451632f80af0f60e21b81526001600160a01b039384166004820152918316602483015260448201526064810193909352169063be02bc3c906084016020604051808303816000875af1158015612429573d6000803e3d6000fd5b505050506040513d601f19601f8201168201806040525081019061244d9190613623565b5060078101805460ff191660031790556005810154600182015461247a91906001600160a01b031661167e565b6127100361249f576005810154600182015461249f91906001600160a01b03166126ef565b60018101548154600554600284015460038501546040516001600160a01b039586169594909416937fc6dd6857b8ac04586ee065e8ee95def9aaebf505c92d9a01be171df17b97798e926124fb92908252602082015260400190565b60405180910390a45050565b6001600160a01b03841661253157604051632bfa23e760e11b8152600060048201526024016107b2565b6001600160a01b03851661255a57604051626a0d4560e21b8152600060048201526024016107b2565b6125678585858585612751565b5050505050565b6001600160a01b0382166125975760405162ced3e160e81b8152600060048201526024016107b2565b6001600160a01b03838116600081815260016020908152604080832094871680845294825291829020805460ff191686151590811790915591519182527f17307eab39ab6107e8899845ad3d59bd9653f200f220920489ca2b5937696c31910160405180910390a3505050565b6001600160a01b03841661262e57604051632bfa23e760e11b8152600060048201526024016107b2565b60408051600180825260208201869052818301908152606082018590526080820190925290610ba5600087848487612751565b6001600160a01b03841661268b57604051632bfa23e760e11b8152600060048201526024016107b2565b6001600160a01b0385166126b457604051626a0d4560e21b8152600060048201526024016107b2565b604080516001808252602082018690528183019081526060820185905260808201909252906126e68787848487612751565b50505050505050565b6009546040516314c6bb7960e01b8152600481018490526001600160a01b038381166024830152909116906314c6bb7990604401600060405180830381600087803b15801561273d57600080fd5b505af1158015610ba5573d6000803e3d6000fd5b61275d858585856127a4565b6001600160a01b038416156125675782513390600103612796576020848101519084015161278f8389898585896129a9565b5050610ba5565b610ba5818787878787612acd565b80518251146127d35781518151604051635b05999160e01b8152600481019290925260248201526044016107b2565b3360005b83518110156128d9576020818102858101820151908501909101516001600160a01b0388161561288a576000828152602081815260408083206001600160a01b038c16845290915290205481811015612863576040516303dee4c560e01b81526001600160a01b038a1660048201526024810182905260448101839052606481018490526084016107b2565b6000838152602081815260408083206001600160a01b038d16845290915290209082900390555b6001600160a01b038716156128cf576000828152602081815260408083206001600160a01b038b168452909152812080548392906128c9908490613a09565b90915550505b50506001016127d7565b50825160010361295a5760208301516000906020840151909150856001600160a01b0316876001600160a01b0316846001600160a01b03167fc3d58168c5ae7397731d063d5bbf3d657854427343f4c083240f7aacaa2d0f62858560405161294b929190918252602082015260400190565b60405180910390a45050612567565b836001600160a01b0316856001600160a01b0316826001600160a01b03167f4a39dc06d4c0dbc64b70af90fd698a233a518aa5d07e595d983b8c0526c8f7fb8686604051612086929190613a1c565b6001600160a01b0384163b15610ba55760405163f23a6e6160e01b81526001600160a01b0385169063f23a6e61906129ed9089908990889088908890600401613a41565b6020604051808303816000875af1925050508015612a28575060408051601f3d908101601f19168201909252612a2591810190613a7b565b60015b612a91573d808015612a56576040519150601f19603f3d011682016040523d82523d6000602084013e612a5b565b606091505b508051600003612a8957604051632bfa23e760e11b81526001600160a01b03861660048201526024016107b2565b805181602001fd5b6001600160e01b0319811663f23a6e6160e01b146126e657604051632bfa23e760e11b81526001600160a01b03861660048201526024016107b2565b6001600160a01b0384163b15610ba55760405163bc197c8160e01b81526001600160a01b0385169063bc197c8190612b119089908990889088908890600401613a98565b6020604051808303816000875af1925050508015612b4c575060408051601f3d908101601f19168201909252612b4991810190613a7b565b60015b612b7a573d808015612a56576040519150601f19603f3d011682016040523d82523d6000602084013e612a5b565b6001600160e01b0319811663bc197c8160e01b146126e657604051632bfa23e760e11b81526001600160a01b03861660048201526024016107b2565b828054828255906000526020600020908101928215612bf1579160200282015b82811115612bf1578251825591602001919060010190612bd6565b50612bfd929150612c01565b5090565b5b80821115612bfd5760008155600101612c02565b6001600160a01b0381168114612c2b57600080fd5b50565b60008060408385031215612c4157600080fd5b8235612c4c81612c16565b946020939093013593505050565b6001600160e01b031981168114612c2b57600080fd5b600060208284031215612c8257600080fd5b8135612c8d81612c5a565b9392505050565b600080600060608486031215612ca957600080fd5b8335612cb481612c16565b95602085013595506040909401359392505050565b6020808252825182820181905260009190848201906040850190845b81811015612d0a5783516001600160a01b031683529284019291840191600101612ce5565b50909695505050505050565b600060208284031215612d2857600080fd5b5035919050565b60005b83811015612d4a578181015183820152602001612d32565b50506000910152565b60008151808452612d6b816020860160208601612d2f565b601f01601f19169290920160200192915050565b602081526000612c8d6020830184612d53565b600080600080600060808688031215612daa57600080fd5b8535612db581612c16565b94506020860135612dc581612c16565b93506040860135925060608601356001600160401b0380821115612de857600080fd5b818801915088601f830112612dfc57600080fd5b813581811115612e0b57600080fd5b896020828501011115612e1d57600080fd5b9699959850939650602001949392505050565b634e487b7160e01b600052602160045260246000fd5b60048110612e6457634e487b7160e01b600052602160045260246000fd5b9052565b81516001600160a01b0316815261016081016020830151612e9460208401826001600160a01b03169052565b5060408301516040830152606083015160608301526080830151612ebc608084018215159052565b5060a083015160a083015260c083015160c083015260e0830151612ee360e0840182612e46565b506101008381015115159083015261012080840151151590830152610140928301511515929091019190915290565b634e487b7160e01b600052604160045260246000fd5b604051601f8201601f191681016001600160401b0381118282101715612f5057612f50612f12565b604052919050565b60006001600160401b03821115612f7157612f71612f12565b5060051b60200190565b600082601f830112612f8c57600080fd5b81356020612fa1612f9c83612f58565b612f28565b8083825260208201915060208460051b870101935086841115612fc357600080fd5b602086015b84811015612fdf5780358352918301918301612fc8565b509695505050505050565b600082601f830112612ffb57600080fd5b81356001600160401b0381111561301457613014612f12565b613027601f8201601f1916602001612f28565b81815284602083860101111561303c57600080fd5b816020850160208301376000918101602001919091529392505050565b600080600080600060a0868803121561307157600080fd5b853561307c81612c16565b9450602086013561308c81612c16565b935060408601356001600160401b03808211156130a857600080fd5b6130b489838a01612f7b565b945060608801359150808211156130ca57600080fd5b6130d689838a01612f7b565b935060808801359150808211156130ec57600080fd5b506130f988828901612fea565b9150509295509295909350565b60008060006060848603121561311b57600080fd5b8335925060208401359150604084013561313481612c16565b809150509250925092565b60008151808452602080850194506020840160005b8381101561317057815187529582019590820190600101613154565b509495945050505050565b602081526000612c8d602083018461313f565b600080604083850312156131a157600080fd5b82356001600160401b03808211156131b857600080fd5b818501915085601f8301126131cc57600080fd5b813560206131dc612f9c83612f58565b82815260059290921b840181019181810190898411156131fb57600080fd5b948201945b8386101561322257853561321381612c16565b82529482019490820190613200565b9650508601359250508082111561323857600080fd5b5061324585828601612f7b565b9150509250929050565b602081526000825160a0602084015261326b60c0840182612d53565b90506020840151601f19808584030160408601526132898383612d53565b925060408601519150808584030160608601526132a68383612d53565b92506060860151608086015260808601519150808584030160a086015250610c30828261313f565b6000806000606084860312156132e357600080fd5b8335925060208401356132f581612c16565b929592945050506040919091013590565b8015158114612c2b57600080fd5b6000806040838503121561332757600080fd5b823561333281612c16565b9150602083013561334281613306565b809150509250929050565b6000806040838503121561336057600080fd5b50508035926020909101359150565b60008060006060848603121561338457600080fd5b83356001600160401b038082111561339b57600080fd5b6133a787838801612fea565b945060208601359150808211156133bd57600080fd5b6133c987838801612f7b565b935060408601359150808211156133df57600080fd5b506133ec86828701612f7b565b9150509250925092565b6000806040838503121561340957600080fd5b82359150602083013561334281612c16565b602080825282516001600160a01b0316828201528201516080604083015260009061344960a0840182612d53565b90506040840151601f1980858403016060860152613467838361313f565b9250606086015191508085840301608086015250610c30828261313f565b6000806000806080858703121561349b57600080fd5b84356001600160401b03808211156134b257600080fd5b6134be88838901612fea565b955060208701359150808211156134d457600080fd5b6134e088838901612fea565b945060408701359150808211156134f657600080fd5b5061350387828801612fea565b949793965093946060013593505050565b6000806040838503121561352757600080fd5b823561353281612c16565b9150602083013561334281612c16565b600080600080600060a0868803121561355a57600080fd5b853561356581612c16565b9450602086013561357581612c16565b9350604086013592506060860135915060808601356001600160401b0381111561359e57600080fd5b6130f988828901612fea565b600080600080608085870312156135c057600080fd5b843593506020850135925060408501356135d981612c16565b9396929550929360600135925050565b600181811c908216806135fd57607f821691505b60208210810361361d57634e487b7160e01b600052602260045260246000fd5b50919050565b60006020828403121561363557600080fd5b8151612c8d81613306565b6020808252601c908201527f4c616e644d616e6167656d656e743a204e6f7420616e2061646d696e00000000604082015260600190565b60006020828403121561368957600080fd5b5051919050565b634e487b7160e01b600052603260045260246000fd5b600060208083850312156136b957600080fd5b82516001600160401b038111156136cf57600080fd5b8301601f810185136136e057600080fd5b80516136ee612f9c82612f58565b81815260059190911b8201830190838101908783111561370d57600080fd5b928401925b8284101561372b57835182529284019290840190613712565b979650505050505050565b6000602080838503121561374957600080fd5b82516001600160401b0381111561375f57600080fd5b8301601f8101851361377057600080fd5b805161377e612f9c82612f58565b81815260059190911b8201830190838101908783111561379d57600080fd5b928401925b8284101561372b5783516137b581612c16565b825292840192908401906137a2565b6020808252601290820152714e6f7420656e6f7567682062616c616e636560701b604082015260600190565b634e487b7160e01b600052601160045260246000fd5b600060018201613818576138186137f0565b5060010190565b60006020828403121561383157600080fd5b8151612c8d81612c16565b601f821115613884576000816000526020600020601f850160051c810160208610156138655750805b601f850160051c820191505b81811015610ba557828155600101613871565b505050565b81516001600160401b038111156138a2576138a2612f12565b6138b6816138b084546135e9565b8461383c565b602080601f8311600181146138eb57600084156138d35750858301515b600019600386901b1c1916600185901b178555610ba5565b600085815260208120601f198616915b8281101561391a578886015182559484019460019091019084016138fb565b50858210156139385787850151600019600388901b60f8161c191681555b5050505050600190811b01905550565b6001600160a01b038516815260806020820181905260009061396c90830186612d53565b828103604084015261397e818661313f565b9050828103606084015261372b818561313f565b6060815260006139a5606083018661313f565b82810360208401526139b7818661313f565b915050826040830152949350505050565b600082516139da818460208701612d2f565b9190910192915050565b6060815260006139f76060830186612d53565b82810360208401526139b78186612d53565b80820180821115610549576105496137f0565b604081526000613a2f604083018561313f565b8281036020840152610c30818561313f565b6001600160a01b03868116825285166020820152604081018490526060810183905260a06080820181905260009061372b90830184612d53565b600060208284031215613a8d57600080fd5b8151612c8d81612c5a565b6001600160a01b0386811682528516602082015260a060408201819052600090613ac49083018661313f565b8281036060840152613ad6818661313f565b90508281036080840152613aea8185612d53565b9897505050505050505056fea264697066735822122090a1836798a4cae0f297a2519cea10235fa0719177296ebd12da808c24dc236d64736f6c63430008190033",
  "linkReferences": {},
  "deployedLinkReferences": {}
}