{
  "_format": "hh-sol-artifact-1",
  "contractName": "LandAssetManager",
  "sourceName": "contracts/LandAssetManager.sol",
  "abi": [
    {
      "inputs": [
        {
          "internalType": "string",
          "name": "uri",
          "type": "string"
        },
        {
          "internalType": "address",
          "name": "_auth",
          "type": "address"
        },
        {
          "internalType": "address",
          "name": "_plotRegistry",
          "type": "address"
        },
        {
          "internalType": "address",
          "name": "_plotOwnership",
          "type": "address"
        }
      ],
      "stateMutability": "nonpayable",
      "type": "constructor"
    },
    {
      "inputs": [
        {
          "internalType": "address",
          "name": "sender",
          "type": "address"
        },
        {
          "internalType": "uint256",
          "name": "balance",
          "type": "uint256"
        },
        {
          "internalType": "uint256",
          "name": "needed",
          "type": "uint256"
        },
        {
          "internalType": "uint256",
          "name": "tokenId",
          "type": "uint256"
        }
      ],
      "name": "ERC1155InsufficientBalance",
      "type": "error"
    },
    {
      "inputs": [
        {
          "internalType": "address",
          "name": "approver",
          "type": "address"
        }
      ],
      "name": "ERC1155InvalidApprover",
      "type": "error"
    },
    {
      "inputs": [
        {
          "internalType": "uint256",
          "name": "idsLength",
          "type": "uint256"
        },
        {
          "internalType": "uint256",
          "name": "valuesLength",
          "type": "uint256"
        }
      ],
      "name": "ERC1155InvalidArrayLength",
      "type": "error"
    },
    {
      "inputs": [
        {
          "internalType": "address",
          "name": "operator",
          "type": "address"
        }
      ],
      "name": "ERC1155InvalidOperator",
      "type": "error"
    },
    {
      "inputs": [
        {
          "internalType": "address",
          "name": "receiver",
          "type": "address"
        }
      ],
      "name": "ERC1155InvalidReceiver",
      "type": "error"
    },
    {
      "inputs": [
        {
          "internalType": "address",
          "name": "sender",
          "type": "address"
        }
      ],
      "name": "ERC1155InvalidSender",
      "type": "error"
    },
    {
      "inputs": [
        {
          "internalType": "address",
          "name": "operator",
          "type": "address"
        },
        {
          "internalType": "address",
          "name": "owner",
          "type": "address"
        }
      ],
      "name": "ERC1155MissingApprovalForAll",
      "type": "error"
    },
    {
      "anonymous": false,
      "inputs": [
        {
          "indexed": true,
          "internalType": "address",
          "name": "account",
          "type": "address"
        },
        {
          "indexed": true,
          "internalType": "address",
          "name": "operator",
          "type": "address"
        },
        {
          "indexed": false,
          "internalType": "bool",
          "name": "approved",
          "type": "bool"
        }
      ],
      "name": "ApprovalForAll",
      "type": "event"
    },
    {
      "anonymous": false,
      "inputs": [
        {
          "indexed": false,
          "internalType": "uint256[]",
          "name": "parcelIds",
          "type": "uint256[]"
        },
        {
          "indexed": false,
          "internalType": "uint256[]",
          "name": "parcelAmount",
          "type": "uint256[]"
        },
        {
          "indexed": false,
          "internalType": "uint256",
          "name": "timestamp",
          "type": "uint256"
        }
      ],
      "name": "PlotCreated",
      "type": "event"
    },
    {
      "anonymous": false,
      "inputs": [
        {
          "indexed": true,
          "internalType": "uint256",
          "name": "tokenId",
          "type": "uint256"
        },
        {
          "indexed": false,
          "internalType": "string",
          "name": "blockInfo",
          "type": "string"
        },
        {
          "indexed": false,
          "internalType": "string",
          "name": "parcelInfo",
          "type": "string"
        },
        {
          "indexed": false,
          "internalType": "uint256",
          "name": "totalSupply",
          "type": "uint256"
        }
      ],
      "name": "TokenCreated",
      "type": "event"
    },
    {
      "anonymous": false,
      "inputs": [
        {
          "indexed": true,
          "internalType": "uint256",
          "name": "requestId",
          "type": "uint256"
        },
        {
          "indexed": true,
          "internalType": "address",
          "name": "approver",
          "type": "address"
        },
        {
          "indexed": false,
          "internalType": "uint256",
          "name": "role",
          "type": "uint256"
        },
        {
          "indexed": false,
          "internalType": "bool",
          "name": "isFullyApproved",
          "type": "bool"
        },
        {
          "indexed": false,
          "internalType": "uint256",
          "name": "timestamp",
          "type": "uint256"
        }
      ],
      "name": "TransferApproved",
      "type": "event"
    },
    {
      "anonymous": false,
      "inputs": [
        {
          "indexed": true,
          "internalType": "address",
          "name": "operator",
          "type": "address"
        },
        {
          "indexed": true,
          "internalType": "address",
          "name": "from",
          "type": "address"
        },
        {
          "indexed": true,
          "internalType": "address",
          "name": "to",
          "type": "address"
        },
        {
          "indexed": false,
          "internalType": "uint256[]",
          "name": "ids",
          "type": "uint256[]"
        },
        {
          "indexed": false,
          "internalType": "uint256[]",
          "name": "values",
          "type": "uint256[]"
        }
      ],
      "name": "TransferBatch",
      "type": "event"
    },
    {
      "anonymous": false,
      "inputs": [
        {
          "indexed": true,
          "internalType": "uint256",
          "name": "requestId",
          "type": "uint256"
        },
        {
          "indexed": true,
          "internalType": "address",
          "name": "from",
          "type": "address"
        },
        {
          "indexed": true,
          "internalType": "address",
          "name": "to",
          "type": "address"
        },
        {
          "indexed": false,
          "internalType": "uint256",
          "name": "tokenId",
          "type": "uint256"
        },
        {
          "indexed": false,
          "internalType": "uint256",
          "name": "amount",
          "type": "uint256"
        }
      ],
      "name": "TransferExecuted",
      "type": "event"
    },
    {
      "anonymous": false,
      "inputs": [
        {
          "indexed": true,
          "internalType": "uint256",
          "name": "requestId",
          "type": "uint256"
        },
        {
          "indexed": true,
          "internalType": "address",
          "name": "from",
          "type": "address"
        },
        {
          "indexed": true,
          "internalType": "address",
          "name": "to",
          "type": "address"
        },
        {
          "indexed": false,
          "internalType": "uint256",
          "name": "tokenId",
          "type": "uint256"
        },
        {
          "indexed": false,
          "internalType": "uint256",
          "name": "amount",
          "type": "uint256"
        },
        {
          "indexed": false,
          "internalType": "bool",
          "name": "isPlotTransfer",
          "type": "bool"
        },
        {
          "indexed": false,
          "internalType": "uint256",
          "name": "plotId",
          "type": "uint256"
        }
      ],
      "name": "TransferRequestCreated",
      "type": "event"
    },
    {
      "anonymous": false,
      "inputs": [
        {
          "indexed": true,
          "internalType": "address",
          "name": "operator",
          "type": "address"
        },
        {
          "indexed": true,
          "internalType": "address",
          "name": "from",
          "type": "address"
        },
        {
          "indexed": true,
          "internalType": "address",
          "name": "to",
          "type": "address"
        },
        {
          "indexed": false,
          "internalType": "uint256",
          "name": "id",
          "type": "uint256"
        },
        {
          "indexed": false,
          "internalType": "uint256",
          "name": "value",
          "type": "uint256"
        }
      ],
      "name": "TransferSingle",
      "type": "event"
    },
    {
      "anonymous": false,
      "inputs": [
        {
          "indexed": false,
          "internalType": "string",
          "name": "value",
          "type": "string"
        },
        {
          "indexed": true,
          "internalType": "uint256",
          "name": "id",
          "type": "uint256"
        }
      ],
      "name": "URI",
      "type": "event"
    },
    {
      "inputs": [],
      "name": "auth",
      "outputs": [
        {
          "internalType": "contract IAuth",
          "name": "",
          "type": "address"
        }
      ],
      "stateMutability": "view",
      "type": "function"
    },
    {
      "inputs": [
        {
          "internalType": "address",
          "name": "account",
          "type": "address"
        },
        {
          "internalType": "uint256",
          "name": "id",
          "type": "uint256"
        }
      ],
      "name": "balanceOf",
      "outputs": [
        {
          "internalType": "uint256",
          "name": "",
          "type": "uint256"
        }
      ],
      "stateMutability": "view",
      "type": "function"
    },
    {
      "inputs": [
        {
          "internalType": "address[]",
          "name": "accounts",
          "type": "address[]"
        },
        {
          "internalType": "uint256[]",
          "name": "ids",
          "type": "uint256[]"
        }
      ],
      "name": "balanceOfBatch",
      "outputs": [
        {
          "internalType": "uint256[]",
          "name": "",
          "type": "uint256[]"
        }
      ],
      "stateMutability": "view",
      "type": "function"
    },
    {
      "inputs": [
        {
          "internalType": "string",
          "name": "blockInfo",
          "type": "string"
        },
        {
          "internalType": "string",
          "name": "parcelInfo",
          "type": "string"
        },
        {
          "internalType": "string",
          "name": "tokenURI",
          "type": "string"
        },
        {
          "internalType": "uint256",
          "name": "totalSupply",
          "type": "uint256"
        }
      ],
      "name": "createBlockParcelToken",
      "outputs": [
        {
          "internalType": "uint256",
          "name": "",
          "type": "uint256"
        }
      ],
      "stateMutability": "nonpayable",
      "type": "function"
    },
    {
      "inputs": [],
      "name": "currentTokenId",
      "outputs": [
        {
          "internalType": "uint256",
          "name": "",
          "type": "uint256"
        }
      ],
      "stateMutability": "view",
      "type": "function"
    },
    {
      "inputs": [
        {
          "internalType": "address",
          "name": "signerWallet",
          "type": "address"
        },
        {
          "internalType": "uint256",
          "name": "requestIdForApproval",
          "type": "uint256"
        },
        {
          "internalType": "uint256",
          "name": "_role",
          "type": "uint256"
        }
      ],
      "name": "delegateApproveAndTransfer",
      "outputs": [],
      "stateMutability": "nonpayable",
      "type": "function"
    },
    {
      "inputs": [],
      "name": "getAllLandInfo",
      "outputs": [
        {
          "components": [
            {
              "internalType": "string",
              "name": "blockInfo",
              "type": "string"
            },
            {
              "internalType": "string",
              "name": "parcelInfo",
              "type": "string"
            },
            {
              "internalType": "string",
              "name": "blockParcelTokenURI",
              "type": "string"
            },
            {
              "internalType": "uint256",
              "name": "totalSupply",
              "type": "uint256"
            },
            {
              "internalType": "uint256[]",
              "name": "plotAllocation",
              "type": "uint256[]"
            }
          ],
          "internalType": "struct LandAssetManager.LandInfo[]",
          "name": "",
          "type": "tuple[]"
        }
      ],
      "stateMutability": "view",
      "type": "function"
    },
    {
      "inputs": [],
      "name": "getAllPlotAccountInfo",
      "outputs": [
        {
          "components": [
            {
              "internalType": "address",
              "name": "plotAccount",
              "type": "address"
            },
            {
              "internalType": "address",
              "name": "plotOwner",
              "type": "address"
            },
            {
              "internalType": "string",
              "name": "plotName",
              "type": "string"
            },
            {
              "internalType": "uint256[]",
              "name": "parcelIds",
              "type": "uint256[]"
            },
            {
              "internalType": "uint256[]",
              "name": "parcelAmounts",
              "type": "uint256[]"
            }
          ],
          "internalType": "struct LandAssetManager.PlotInfo[]",
          "name": "",
          "type": "tuple[]"
        }
      ],
      "stateMutability": "view",
      "type": "function"
    },
    {
      "inputs": [],
      "name": "getAllTransferRequestInfo",
      "outputs": [
        {
          "components": [
            {
              "internalType": "address",
              "name": "from",
              "type": "address"
            },
            {
              "internalType": "address",
              "name": "to",
              "type": "address"
            },
            {
              "internalType": "uint256",
              "name": "parcelId",
              "type": "uint256"
            },
            {
              "internalType": "uint256",
              "name": "parcelAmount",
              "type": "uint256"
            },
            {
              "internalType": "bool",
              "name": "isPlotTransfer",
              "type": "bool"
            },
            {
              "internalType": "uint256",
              "name": "plotId",
              "type": "uint256"
            },
            {
              "internalType": "uint256",
              "name": "timestamp",
              "type": "uint256"
            },
            {
              "internalType": "enum LandAssetManager.TransferStatus",
              "name": "status",
              "type": "uint8"
            },
            {
              "internalType": "bool",
              "name": "landAuthorityApproved",
              "type": "bool"
            },
            {
              "internalType": "bool",
              "name": "lawyerApproved",
              "type": "bool"
            },
            {
              "internalType": "bool",
              "name": "bankApproved",
              "type": "bool"
            }
          ],
          "internalType": "struct LandAssetManager.TransferRequest[]",
          "name": "",
          "type": "tuple[]"
        }
      ],
      "stateMutability": "view",
      "type": "function"
    },
    {
      "inputs": [
        {
          "internalType": "uint256",
          "name": "_tokenId",
          "type": "uint256"
        }
      ],
      "name": "getBlockParcelTokenURI",
      "outputs": [
        {
          "internalType": "string",
          "name": "",
          "type": "string"
        }
      ],
      "stateMutability": "view",
      "type": "function"
    },
    {
      "inputs": [],
      "name": "getCurrentPlotAndTokenIdInfo",
      "outputs": [
        {
          "internalType": "uint256",
          "name": "",
          "type": "uint256"
        },
        {
          "internalType": "uint256",
          "name": "",
          "type": "uint256"
        }
      ],
      "stateMutability": "view",
      "type": "function"
    },
    {
      "inputs": [
        {
          "internalType": "uint256",
          "name": "_tokenId",
          "type": "uint256"
        }
      ],
      "name": "getLandInfo",
      "outputs": [
        {
          "components": [
            {
              "internalType": "string",
              "name": "blockInfo",
              "type": "string"
            },
            {
              "internalType": "string",
              "name": "parcelInfo",
              "type": "string"
            },
            {
              "internalType": "string",
              "name": "blockParcelTokenURI",
              "type": "string"
            },
            {
              "internalType": "uint256",
              "name": "totalSupply",
              "type": "uint256"
            },
            {
              "internalType": "uint256[]",
              "name": "plotAllocation",
              "type": "uint256[]"
            }
          ],
          "internalType": "struct LandAssetManager.LandInfo",
          "name": "",
          "type": "tuple"
        }
      ],
      "stateMutability": "view",
      "type": "function"
    },
    {
      "inputs": [],
      "name": "getListOfTotalPlots",
      "outputs": [
        {
          "internalType": "address[]",
          "name": "",
          "type": "address[]"
        }
      ],
      "stateMutability": "view",
      "type": "function"
    },
    {
      "inputs": [
        {
          "internalType": "uint256",
          "name": "_plotId",
          "type": "uint256"
        },
        {
          "internalType": "address",
          "name": "_user",
          "type": "address"
        }
      ],
      "name": "getOwnershipPercentage",
      "outputs": [
        {
          "internalType": "uint256",
          "name": "",
          "type": "uint256"
        }
      ],
      "stateMutability": "view",
      "type": "function"
    },
    {
      "inputs": [
        {
          "internalType": "uint256",
          "name": "_plotId",
          "type": "uint256"
        }
      ],
      "name": "getPlotAccountInfo",
      "outputs": [
        {
          "components": [
            {
              "internalType": "address",
              "name": "plotAccount",
              "type": "address"
            },
            {
              "internalType": "address",
              "name": "plotOwner",
              "type": "address"
            },
            {
              "internalType": "string",
              "name": "plotName",
              "type": "string"
            },
            {
              "internalType": "uint256[]",
              "name": "parcelIds",
              "type": "uint256[]"
            },
            {
              "internalType": "uint256[]",
              "name": "parcelAmounts",
              "type": "uint256[]"
            }
          ],
          "internalType": "struct LandAssetManager.PlotInfo",
          "name": "",
          "type": "tuple"
        }
      ],
      "stateMutability": "view",
      "type": "function"
    },
    {
      "inputs": [
        {
          "internalType": "uint256",
          "name": "_plotId",
          "type": "uint256"
        },
        {
          "internalType": "uint256",
          "name": "_parcelId",
          "type": "uint256"
        }
      ],
      "name": "getPlotAccountParcelShareholders",
      "outputs": [
        {
          "internalType": "address[]",
          "name": "",
          "type": "address[]"
        }
      ],
      "stateMutability": "view",
      "type": "function"
    },
    {
      "inputs": [
        {
          "internalType": "uint256",
          "name": "_plotId",
          "type": "uint256"
        },
        {
          "internalType": "uint256",
          "name": "_parcelId",
          "type": "uint256"
        }
      ],
      "name": "getPlotAccountParcelTotalShares",
      "outputs": [
        {
          "internalType": "uint256",
          "name": "",
          "type": "uint256"
        }
      ],
      "stateMutability": "view",
      "type": "function"
    },
    {
      "inputs": [
        {
          "internalType": "uint256",
          "name": "_plotId",
          "type": "uint256"
        },
        {
          "internalType": "address",
          "name": "_user",
          "type": "address"
        },
        {
          "internalType": "uint256",
          "name": "_parcel",
          "type": "uint256"
        }
      ],
      "name": "getPlotAccountUserParcels",
      "outputs": [
        {
          "internalType": "uint256[]",
          "name": "",
          "type": "uint256[]"
        }
      ],
      "stateMutability": "view",
      "type": "function"
    },
    {
      "inputs": [
        {
          "internalType": "uint256",
          "name": "_plotId",
          "type": "uint256"
        },
        {
          "internalType": "uint256",
          "name": "_parcelId",
          "type": "uint256"
        },
        {
          "internalType": "address",
          "name": "_user",
          "type": "address"
        }
      ],
      "name": "getPlotAccountUserShares",
      "outputs": [
        {
          "internalType": "uint256",
          "name": "",
          "type": "uint256"
        }
      ],
      "stateMutability": "view",
      "type": "function"
    },
    {
      "inputs": [
        {
          "internalType": "address",
          "name": "account",
          "type": "address"
        },
        {
          "internalType": "address",
          "name": "operator",
          "type": "address"
        }
      ],
      "name": "isApprovedForAll",
      "outputs": [
        {
          "internalType": "bool",
          "name": "",
          "type": "bool"
        }
      ],
      "stateMutability": "view",
      "type": "function"
    },
    {
      "inputs": [
        {
          "internalType": "uint256",
          "name": "",
          "type": "uint256"
        }
      ],
      "name": "listOfTotalPlots",
      "outputs": [
        {
          "internalType": "address",
          "name": "",
          "type": "address"
        }
      ],
      "stateMutability": "view",
      "type": "function"
    },
    {
      "inputs": [
        {
          "internalType": "address",
          "name": "operator",
          "type": "address"
        },
        {
          "internalType": "address",
          "name": "from",
          "type": "address"
        },
        {
          "internalType": "uint256",
          "name": "tokenId",
          "type": "uint256"
        },
        {
          "internalType": "bytes",
          "name": "data",
          "type": "bytes"
        }
      ],
      "name": "onERC721Received",
      "outputs": [
        {
          "internalType": "bytes4",
          "name": "",
          "type": "bytes4"
        }
      ],
      "stateMutability": "pure",
      "type": "function"
    },
    {
      "inputs": [
        {
          "internalType": "string",
          "name": "plotName",
          "type": "string"
        },
        {
          "internalType": "uint256[]",
          "name": "parcelIds",
          "type": "uint256[]"
        },
        {
          "internalType": "uint256[]",
          "name": "parcelAmounts",
          "type": "uint256[]"
        }
      ],
      "name": "plotInitiate",
      "outputs": [],
      "stateMutability": "nonpayable",
      "type": "function"
    },
    {
      "inputs": [],
      "name": "plotOwnership",
      "outputs": [
        {
          "internalType": "contract IPlotOwnership",
          "name": "",
          "type": "address"
        }
      ],
      "stateMutability": "view",
      "type": "function"
    },
    {
      "inputs": [],
      "name": "plotOwnershipAddress",
      "outputs": [
        {
          "internalType": "address",
          "name": "",
          "type": "address"
        }
      ],
      "stateMutability": "view",
      "type": "function"
    },
    {
      "inputs": [],
      "name": "plotRegistry",
      "outputs": [
        {
          "internalType": "contract IPlotRegistry",
          "name": "",
          "type": "address"
        }
      ],
      "stateMutability": "view",
      "type": "function"
    },
    {
      "inputs": [
        {
          "internalType": "uint256",
          "name": "_requestId",
          "type": "uint256"
        }
      ],
      "name": "rejectTransfer",
      "outputs": [],
      "stateMutability": "nonpayable",
      "type": "function"
    },
    {
      "inputs": [
        {
          "internalType": "uint256",
          "name": "_parcelId",
          "type": "uint256"
        },
        {
          "internalType": "uint256",
          "name": "parcelAmount",
          "type": "uint256"
        },
        {
          "internalType": "address",
          "name": "to",
          "type": "address"
        },
        {
          "internalType": "uint256",
          "name": "_plotId",
          "type": "uint256"
        }
      ],
      "name": "requestForParcelTransfer",
      "outputs": [],
      "stateMutability": "nonpayable",
      "type": "function"
    },
    {
      "inputs": [
        {
          "internalType": "uint256",
          "name": "_plotId",
          "type": "uint256"
        },
        {
          "internalType": "address",
          "name": "to",
          "type": "address"
        }
      ],
      "name": "requestForWholePlotTransfer",
      "outputs": [],
      "stateMutability": "nonpayable",
      "type": "function"
    },
    {
      "inputs": [],
      "name": "requestId",
      "outputs": [
        {
          "internalType": "uint256",
          "name": "",
          "type": "uint256"
        }
      ],
      "stateMutability": "view",
      "type": "function"
    },
    {
      "inputs": [
        {
          "internalType": "uint256",
          "name": "_requestId",
          "type": "uint256"
        }
      ],
      "name": "requestStatus",
      "outputs": [
        {
          "components": [
            {
              "internalType": "address",
              "name": "from",
              "type": "address"
            },
            {
              "internalType": "address",
              "name": "to",
              "type": "address"
            },
            {
              "internalType": "uint256",
              "name": "parcelId",
              "type": "uint256"
            },
            {
              "internalType": "uint256",
              "name": "parcelAmount",
              "type": "uint256"
            },
            {
              "internalType": "bool",
              "name": "isPlotTransfer",
              "type": "bool"
            },
            {
              "internalType": "uint256",
              "name": "plotId",
              "type": "uint256"
            },
            {
              "internalType": "uint256",
              "name": "timestamp",
              "type": "uint256"
            },
            {
              "internalType": "enum LandAssetManager.TransferStatus",
              "name": "status",
              "type": "uint8"
            },
            {
              "internalType": "bool",
              "name": "landAuthorityApproved",
              "type": "bool"
            },
            {
              "internalType": "bool",
              "name": "lawyerApproved",
              "type": "bool"
            },
            {
              "internalType": "bool",
              "name": "bankApproved",
              "type": "bool"
            }
          ],
          "internalType": "struct LandAssetManager.TransferRequest",
          "name": "",
          "type": "tuple"
        }
      ],
      "stateMutability": "view",
      "type": "function"
    },
    {
      "inputs": [
        {
          "internalType": "address",
          "name": "from",
          "type": "address"
        },
        {
          "internalType": "address",
          "name": "to",
          "type": "address"
        },
        {
          "internalType": "uint256[]",
          "name": "ids",
          "type": "uint256[]"
        },
        {
          "internalType": "uint256[]",
          "name": "values",
          "type": "uint256[]"
        },
        {
          "internalType": "bytes",
          "name": "data",
          "type": "bytes"
        }
      ],
      "name": "safeBatchTransferFrom",
      "outputs": [],
      "stateMutability": "nonpayable",
      "type": "function"
    },
    {
      "inputs": [
        {
          "internalType": "address",
          "name": "from",
          "type": "address"
        },
        {
          "internalType": "address",
          "name": "to",
          "type": "address"
        },
        {
          "internalType": "uint256",
          "name": "id",
          "type": "uint256"
        },
        {
          "internalType": "uint256",
          "name": "value",
          "type": "uint256"
        },
        {
          "internalType": "bytes",
          "name": "data",
          "type": "bytes"
        }
      ],
      "name": "safeTransferFrom",
      "outputs": [],
      "stateMutability": "nonpayable",
      "type": "function"
    },
    {
      "inputs": [
        {
          "internalType": "address",
          "name": "operator",
          "type": "address"
        },
        {
          "internalType": "bool",
          "name": "approved",
          "type": "bool"
        }
      ],
      "name": "setApprovalForAll",
      "outputs": [],
      "stateMutability": "nonpayable",
      "type": "function"
    },
    {
      "inputs": [
        {
          "internalType": "bytes4",
          "name": "interfaceId",
          "type": "bytes4"
        }
      ],
      "name": "supportsInterface",
      "outputs": [
        {
          "internalType": "bool",
          "name": "",
          "type": "bool"
        }
      ],
      "stateMutability": "view",
      "type": "function"
    },
    {
      "inputs": [
        {
          "internalType": "uint256",
          "name": "",
          "type": "uint256"
        }
      ],
      "name": "uri",
      "outputs": [
        {
          "internalType": "string",
          "name": "",
          "type": "string"
        }
      ],
      "stateMutability": "view",
      "type": "function"
    }
  ],
  "bytecode": "0x608060405234801561001057600080fd5b506040516147a93803806147a983398101604081905261002f916100cd565b836100398161008b565b50600a80546001600160a01b03199081166001600160a01b0395861617909155600880548216938516939093179092556009805483169190931690811790925560068054909116909117905550610312565b60026100978282610253565b5050565b634e487b7160e01b600052604160045260246000fd5b80516001600160a01b03811681146100c857600080fd5b919050565b600080600080608085870312156100e357600080fd5b84516001600160401b03808211156100fa57600080fd5b818701915087601f83011261010e57600080fd5b8151818111156101205761012061009b565b604051601f8201601f19908116603f011681019083821181831017156101485761014861009b565b81604052828152602093508a8484870101111561016457600080fd5b600091505b828210156101865784820184015181830185015290830190610169565b600084848301015280985050505061019f8188016100b1565b945050506101af604086016100b1565b91506101bd606086016100b1565b905092959194509250565b600181811c908216806101dc57607f821691505b6020821081036101fc57634e487b7160e01b600052602260045260246000fd5b50919050565b601f82111561024e576000816000526020600020601f850160051c8101602086101561022b5750805b601f850160051c820191505b8181101561024a57828155600101610237565b5050505b505050565b81516001600160401b0381111561026c5761026c61009b565b6102808161027a84546101c8565b84610202565b602080601f8311600181146102b5576000841561029d5750858301515b600019600386901b1c1916600185901b17855561024a565b600085815260208120601f198616915b828110156102e4578886015182559484019460019091019084016102c5565b50858210156103025787850151600019600388901b60f8161c191681555b5050505050600190811b01905550565b614488806103216000396000f3fe608060405234801561001057600080fd5b50600436106102195760003560e01c806382384f8111610125578063bdcb0314116100ad578063cea708441161007c578063cea708441461050a578063de9375f21461051d578063e985e9c514610530578063f242432a14610543578063f95a53d51461055657600080fd5b8063bdcb0314146104b1578063bf5f71b8146104c4578063c2d4769d146104d7578063c5725f4b146104f757600080fd5b8063a738a285116100f4578063a738a28514610450578063a900e23614610463578063ab3fdd2b14610476578063b865fefc14610489578063bceaebff1461049e57600080fd5b806382384f81146103fa57806382ff2ce114610415578063a22cb4651461042a578063a31a3a431461043d57600080fd5b80631a313202116101a85780633fbc7276116101775780633fbc7276146103695780634e1273f4146103945780636f6f9bef146103b45780636fbba4d9146103d45780637b3b9673146103e757600080fd5b80631a3132021461030e5780631fcc735b1461032e5780632eb2c2d614610343578063360f75821461035657600080fd5b80630cce22c7116101ef5780630cce22c7146102795780630d1dfd081461028e5780630e89341c146102a357806312effc32146102c3578063150b7a02146102d657600080fd5b80626d6cae1461021e5780629a9b7b1461023a578062fdd58e1461024357806301ffc9a714610256575b600080fd5b61022760055481565b6040519081526020015b60405180910390f35b61022760035481565b610227610251366004613465565b610569565b6102696102643660046134a7565b610591565b6040519015158152602001610231565b61028c6102873660046134cb565b61059c565b005b61029661083a565b6040516102319190613500565b6102b66102b136600461354d565b61089c565b60405161023191906135b6565b61028c6102d136600461354d565b610930565b6102f56102e43660046135c9565b630a85bd0160e11b95945050505050565b6040516001600160e01b03199091168152602001610231565b61032161031c36600461354d565b610a4d565b6040516102319190613743565b610336610b37565b60405161023191906137f6565b61028c6103513660046139a1565b610d9f565b610227610364366004613a4e565b610e06565b60065461037c906001600160a01b031681565b6040516001600160a01b039091168152602001610231565b6103a76103a2366004613a87565b610e92565b6040516102319190613b48565b6103c76103c236600461354d565b610f5e565b6040516102319190613bc7565b6102b66103e236600461354d565b6111c7565b6103a76103f5366004613bda565b6111e7565b60045460035460408051928352602083019190915201610231565b61041d611270565b6040516102319190613c12565b61028c610438366004613c77565b6115d6565b61037c61044b36600461354d565b6115e5565b61029661045e366004613cb0565b61160f565b60085461037c906001600160a01b031681565b61028c610484366004613cd2565b611698565b610491611b8d565b6040516102319190613d59565b60095461037c906001600160a01b031681565b6102276104bf366004613cb0565b611d49565b6102276104d2366004613d9c565b611dc5565b6104ea6104e536600461354d565b611e05565b6040516102319190613dc1565b61028c610505366004613d9c565b611f91565b610227610518366004613dd4565b61229d565b600a5461037c906001600160a01b031681565b61026961053e366004613e63565b6124b0565b61028c610551366004613e91565b6124de565b61028c610564366004613ef9565b61253d565b6000818152602081815260408083206001600160a01b03861684529091529020545b92915050565b600061058b826127c1565b600081600103610658576000838152600d60205260409020600701805461ff001916610100179081905562010000900460ff1680156105f357506000838152600d60205260409020600701546301000000900460ff165b156105fc575060015b836001600160a01b0316837faf49c9f2c598a27f6918ca87eb8058baac5f2f871de5ef13b001f58545e2806084844260405161064b939291909283529015156020830152604082015260600190565b60405180910390a36107fd565b81600203610703576000838152600d60205260409020600701805463ff00000019166301000000179081905562010000900460ff1680156105f357506000838152600d6020526040902060070154610100900460ff16156105fc57506040805182815260016020820181905242928201929092526001600160a01b0385169084907faf49c9f2c598a27f6918ca87eb8058baac5f2f871de5ef13b001f58545e280609060600161064b565b816003036107ad576000838152600d60205260409020600701805462ff000019166201000017908190556301000000900460ff1680156105f357506000838152600d6020526040902060070154610100900460ff16156105fc57506040805182815260016020820181905242928201929092526001600160a01b0385169084907faf49c9f2c598a27f6918ca87eb8058baac5f2f871de5ef13b001f58545e280609060600161064b565b6000821180156107bd5750600482105b6107fd5760405162461bcd60e51b815260206004820152600c60248201526b496e76616c696420726f6c6560a01b60448201526064015b60405180910390fd5b8015610834576000838152600d602052604090206004015460ff161561082b5761082683612811565b610834565b61083483612abd565b50505050565b6060600780548060200260200160405190810160405280929190818152602001828054801561089257602002820191906000526020600020905b81546001600160a01b03168152600190910190602001808311610874575b5050505050905090565b6060600280546108ab90613f38565b80601f01602080910402602001604051908101604052809291908181526020018280546108d790613f38565b80156109245780601f106108f957610100808354040283529160200191610924565b820191906000526020600020905b81548152906001019060200180831161090757829003601f168201915b50505050509050919050565b600a546001600160a01b03166324d7806c336040516001600160e01b031960e084901b1681526001600160a01b039091166004820152602401602060405180830381865afa158015610986573d6000803e3d6000fd5b505050506040513d601f19601f820116820180604052508101906109aa9190613f6c565b6109c65760405162461bcd60e51b81526004016107f490613f89565b6000818152600d602052604090206001600782015460ff1660038111156109ef576109ef613667565b14610a325760405162461bcd60e51b815260206004820152601360248201527252657175657374206e6f742070656e64696e6760681b60448201526064016107f4565b6007810180546002919060ff19166001835b02179055505050565b610a55613352565b6000828152600d602090815260409182902082516101608101845281546001600160a01b039081168252600183015416928101929092526002810154928201929092526003808301546060830152600483015460ff90811615156080840152600584015460a0840152600684015460c0840152600784015492939260e0850192911690811115610ae757610ae7613667565b6003811115610af857610af8613667565b81526007919091015460ff6101008204811615156020840152620100008204811615156040840152630100000090910416151560609091015292915050565b6060600454600003610b7a576040805160008082526020820190925290610b74565b610b616133ac565b815260200190600190039081610b595790505b50905090565b60006004546001600160401b03811115610b9657610b9661385a565b604051908082528060200260200182016040528015610bcf57816020015b610bbc6133ac565b815260200190600190039081610bb45790505b50905060015b6004548111610d99576000818152600e6020908152604091829020825160a08101845281546001600160a01b039081168252600183015416928101929092526002810180549293919291840191610c2b90613f38565b80601f0160208091040260200160405190810160405280929190818152602001828054610c5790613f38565b8015610ca45780601f10610c7957610100808354040283529160200191610ca4565b820191906000526020600020905b815481529060010190602001808311610c8757829003601f168201915b5050505050815260200160038201805480602002602001604051908101604052809291908181526020018280548015610cfc57602002820191906000526020600020905b815481526020019060010190808311610ce8575b5050505050815260200160048201805480602002602001604051908101604052809291908181526020018280548015610d5457602002820191906000526020600020905b815481526020019060010190808311610d40575b50505050508152505082600183610d6b9190613fd6565b81518110610d7b57610d7b613fe9565b60200260200101819052508080610d9190613fff565b915050610bd5565b50919050565b336001600160a01b0386168114801590610dc05750610dbe86826124b0565b155b15610df15760405163711bec9160e11b81526001600160a01b038083166004830152871660248201526044016107f4565b610dfe8686868686612c6e565b505050505050565b6000838152600e602052604080822054905163835dc40b60e01b8152600481018590526001600160a01b03848116602483015290911690819063835dc40b90604401602060405180830381865afa158015610e65573d6000803e3d6000fd5b505050506040513d601f19601f82011682018060405250810190610e899190614018565b95945050505050565b60608151835114610ec35781518351604051635b05999160e01b8152600481019290925260248201526044016107f4565b600083516001600160401b03811115610ede57610ede61385a565b604051908082528060200260200182016040528015610f07578160200160208202803683370190505b50905060005b8451811015610f5657602080820286010151610f3190602080840287010151610569565b828281518110610f4357610f43613fe9565b6020908102919091010152600101610f0d565b509392505050565b610f906040518060a0016040528060608152602001606081526020016060815260200160008152602001606081525090565b6000828152600c602052604090819020815160a08101909252805482908290610fb890613f38565b80601f0160208091040260200160405190810160405280929190818152602001828054610fe490613f38565b80156110315780601f1061100657610100808354040283529160200191611031565b820191906000526020600020905b81548152906001019060200180831161101457829003601f168201915b5050505050815260200160018201805461104a90613f38565b80601f016020809104026020016040519081016040528092919081815260200182805461107690613f38565b80156110c35780601f10611098576101008083540402835291602001916110c3565b820191906000526020600020905b8154815290600101906020018083116110a657829003601f168201915b505050505081526020016002820180546110dc90613f38565b80601f016020809104026020016040519081016040528092919081815260200182805461110890613f38565b80156111555780601f1061112a57610100808354040283529160200191611155565b820191906000526020600020905b81548152906001019060200180831161113857829003601f168201915b5050505050815260200160038201548152602001600482018054806020026020016040519081016040528092919081815260200182805480156111b757602002820191906000526020600020905b8154815260200190600101908083116111a3575b5050505050815250509050919050565b6000818152600c602052604090206002018054606091906108ab90613f38565b6000838152600e6020526040908190205490516363319d8d60e01b81526001600160a01b03848116600483015260248201849052606092169081906363319d8d90604401600060405180830381865afa158015611248573d6000803e3d6000fd5b505050506040513d6000823e601f3d908101601f19168201604052610e899190810190614031565b60606003546000036112dc576040805160008082526020820190925290610b74565b6112c46040518060a0016040528060608152602001606081526020016060815260200160008152602001606081525090565b81526020019060019003908161129257905050905090565b60006003546001600160401b038111156112f8576112f861385a565b60405190808252806020026020018201604052801561135b57816020015b6113486040518060a0016040528060608152602001606081526020016060815260200160008152602001606081525090565b8152602001906001900390816113165790505b50905060015b6003548111610d99576000818152600c602052604090819020815160a0810190925280548290829061139290613f38565b80601f01602080910402602001604051908101604052809291908181526020018280546113be90613f38565b801561140b5780601f106113e05761010080835404028352916020019161140b565b820191906000526020600020905b8154815290600101906020018083116113ee57829003601f168201915b5050505050815260200160018201805461142490613f38565b80601f016020809104026020016040519081016040528092919081815260200182805461145090613f38565b801561149d5780601f106114725761010080835404028352916020019161149d565b820191906000526020600020905b81548152906001019060200180831161148057829003601f168201915b505050505081526020016002820180546114b690613f38565b80601f01602080910402602001604051908101604052809291908181526020018280546114e290613f38565b801561152f5780601f106115045761010080835404028352916020019161152f565b820191906000526020600020905b81548152906001019060200180831161151257829003601f168201915b50505050508152602001600382015481526020016004820180548060200260200160405190810160405280929190818152602001828054801561159157602002820191906000526020600020905b81548152602001906001019080831161157d575b505050505081525050826001836115a89190613fd6565b815181106115b8576115b8613fe9565b602002602001018190525080806115ce90613fff565b915050611361565b6115e1338383612cd5565b5050565b600781815481106115f557600080fd5b6000918252602090912001546001600160a01b0316905081565b6000828152600e6020526040908190205490516309771aed60e41b8152600481018390526060916001600160a01b0316908190639771aed090602401600060405180830381865afa158015611668573d6000803e3d6000fd5b505050506040513d6000823e601f3d908101601f1916820160405261169091908101906140c1565b949350505050565b600a546001600160a01b03166324d7806c336040516001600160e01b031960e084901b1681526001600160a01b039091166004820152602401602060405180830381865afa1580156116ee573d6000803e3d6000fd5b505050506040513d601f19601f820116820180604052508101906117129190613f6c565b61172e5760405162461bcd60e51b81526004016107f490613f89565b60005b82518110156117a35781818151811061174c5761174c613fe9565b602002602001015161177d61175e3390565b85848151811061177057611770613fe9565b6020026020010151610569565b101561179b5760405162461bcd60e51b81526004016107f49061414f565b600101611731565b50600480549060006117b483613fff565b90915550506004805460095460405163af3dd63960e01b815292830182905230602484015290916001600160a01b039091169063af3dd639906044016020604051808303816000875af115801561180f573d6000803e3d6000fd5b505050506040513d601f19601f820116820180604052508101906118339190614018565b50600854600654604051630fcb200d60e21b81526001600160a01b0391821660048201526024810184905260606044820152600060648201819052929190911690633f2c8034906084016020604051808303816000875af115801561189c573d6000803e3d6000fd5b505050506040513d601f19601f820116820180604052508101906118c0919061417b565b90506040518060a00160405280826001600160a01b031681526020016118e33390565b6001600160a01b0390811682526020808301899052604080840189905260609093018790526000868152600e8252839020845181549084166001600160a01b0319918216178255918501516001820180549190941692169190911790915590820151600282019061195490826141e5565b50606082015180516119709160038401916020909101906133ed565b506080820151805161198c9160048401916020909101906133ed565b509050506119b261199a3390565b82868660405180602001604052806000815250610d9f565b6009546001600160a01b03166314c6bb7983336040516001600160e01b031960e085901b16815260048101929092526001600160a01b03166024820152604401600060405180830381600087803b158015611a0c57600080fd5b505af1158015611a20573d6000803e3d6000fd5b50505050806001600160a01b031663f69dc2ae611a3a3390565b8787876040518563ffffffff1660e01b8152600401611a5c94939291906142a4565b6020604051808303816000875af1158015611a7b573d6000803e3d6000fd5b505050506040513d601f19601f82011682018060405250810190611a9f9190614018565b5060005b8451811015611afe57600c6000868381518110611ac257611ac2613fe9565b60209081029190910181015182528181019290925260400160009081206004018054600181810183559183529290912090910184905501611aa3565b50600780546001810182556000919091527fa66cc928b5edb82af9bd49922954155ab7b0942694bea4ce44661d9a8736c6880180546001600160a01b0319166001600160a01b0383161790556040517f915708fb7ee5da90b08a28b58664546eae63c0680f363ea2cc38c345f5be294090611b7e908690869042906142ee565b60405180910390a15050505050565b6060600554600003611bcf576040805160008082526020820190925290610b74565b611bb7613352565b815260200190600190039081611baf57905050905090565b60006005546001600160401b03811115611beb57611beb61385a565b604051908082528060200260200182016040528015611c2457816020015b611c11613352565b815260200190600190039081611c095790505b50905060015b6005548111610d99576000818152600d602090815260409182902082516101608101845281546001600160a01b039081168252600183015416928101929092526002810154928201929092526003808301546060830152600483015460ff90811615156080840152600584015460a0840152600684015460c0840152600784015492939260e0850192911690811115611cc557611cc5613667565b6003811115611cd657611cd6613667565b81526007919091015460ff6101008204811615156020840152620100008204811615156040840152630100000090910416151560609091015282611d1b600184613fd6565b81518110611d2b57611d2b613fe9565b60200260200101819052508080611d4190613fff565b915050611c2a565b6000828152600e6020526040808220549051630447b88d60e51b8152600481018490526001600160a01b039091169081906388f711a0906024015b602060405180830381865afa158015611da1573d6000803e3d6000fd5b505050506040513d601f19601f820116820180604052508101906116909190614018565b6000828152600e602052604080822054905163145263fd60e31b81526001600160a01b03848116600483015290911690819063a2931fe890602401611d84565b611e0d6133ac565b6000828152600e6020908152604091829020825160a08101845281546001600160a01b039081168252600183015416928101929092526002810180549293919291840191611e5a90613f38565b80601f0160208091040260200160405190810160405280929190818152602001828054611e8690613f38565b8015611ed35780601f10611ea857610100808354040283529160200191611ed3565b820191906000526020600020905b815481529060010190602001808311611eb657829003601f168201915b5050505050815260200160038201805480602002602001604051908101604052809291908181526020018280548015611f2b57602002820191906000526020600020905b815481526020019060010190808311611f17575b50505050508152602001600482018054806020026020016040519081016040528092919081815260200182805480156111b757602002820191906000526020600020908154815260200190600101908083116111a3575050505050815250509050919050565b33600954604051632ea9327360e11b8152600481018590526001600160a01b039283169290911690635d5264e690602401602060405180830381865afa158015611fdf573d6000803e3d6000fd5b505050506040513d601f19601f82011682018060405250810190612003919061417b565b6001600160a01b0316146120555760405162461bcd60e51b8152602060048201526019602482015278139bdd081d1a19481bdddb995c881bd9881d1a19481c1b1bdd603a1b60448201526064016107f4565b61205f8233611dc5565b612710146120be5760405162461bcd60e51b815260206004820152602660248201527f5573657220646f6573206e6f742068617665207468652066756c6c206f776e6560448201526503939b434b8160d51b60648201526084016107f4565b600580549060006120ce83613fff565b909155505060055460408051610160810182523381526001600160a01b03841660208201526000918101829052606081019190915260016080820181905260a082018590524260c083015260e082019081526000602080830182905260408084018390526060938401839052858352600d825291829020845181546001600160a01b039182166001600160a01b03199182161783559286015160018381018054929093169190941617905591840151600283015591830151600380830191909155608084015160048301805491151560ff1992831617905560a0850151600584015560c0850151600684015560e085015160078401805494959194909392169184908111156121df576121df613667565b0217905550610100828101516007909201805461012085015161014090950151151563010000000263ff00000019951515620100000262ff0000199515159094029490941662ffff001990911617919091179290921617905560006122413390565b60408051600080825260208201526001818301526060810187905290516001600160a01b03929092169184917f4595add82735fb552f64748fc031bd6e53c364da7faac5ce52e2ee48c943b7d3919081900360800190a4505050565b600a546000906001600160a01b03166324d7806c336040516001600160e01b031960e084901b1681526001600160a01b039091166004820152602401602060405180830381865afa1580156122f6573d6000803e3d6000fd5b505050506040513d601f19601f8201168201806040525081019061231a9190613f6c565b6123365760405162461bcd60e51b81526004016107f490613f89565b600082116123925760405162461bcd60e51b815260206004820152602360248201527f546f74616c20737570706c79206d75737420626520677265617465722074686160448201526206e20360ec1b60648201526084016107f4565b600380549060006123a283613fff565b90915550506003546123c533828560405180602001604052806000815250612d6b565b6000818152600c602052604090206123dd87826141e5565b506000818152600c602052604090206001016123f986826141e5565b506000818152600c6020526040902060020161241585826141e5565b506000818152600c602052604090819020600301849055518190600b9061243d908990614324565b9081526020016040518091039020866040516124599190614324565b908152602001604051809103902081905550807fa09f8ded7663b6558550b417380d535c092265d90b5415bd6d16d8c95b027d1387878660405161249f93929190614340565b60405180910390a295945050505050565b6001600160a01b03918216600090815260016020908152604080832093909416825291909152205460ff1690565b336001600160a01b03861681148015906124ff57506124fd86826124b0565b155b156125305760405163711bec9160e11b81526001600160a01b038083166004830152871660248201526044016107f4565b610dfe8686868686612dc8565b600081118061254c5750600084115b6125ac5760405162461bcd60e51b815260206004820152602b60248201527f506c6f74204944206f722050617263656c204944206d7573742062652067726560448201526a061746572207468616e20360ac1b60648201526084016107f4565b826125b8828633610e06565b10156125d65760405162461bcd60e51b81526004016107f49061414f565b600580549060006125e683613fff565b909155505060055460408051610160810190915280336001600160a01b0390811682528516602082015260408101879052606081018690526000608082015260a081018490524260c082015260e001600181526000602080830182905260408084018390526060938401839052858352600d825291829020845181546001600160a01b039182166001600160a01b03199182161783559286015160018381018054929093169190941617905591840151600283015591830151600380830191909155608084015160048301805491151560ff1992831617905560a0850151600584015560c0850151600684015560e085015160078401805494959194909392169184908111156126f8576126f8613667565b0217905550610100828101516007909201805461012085015161014090950151151563010000000263ff00000019951515620100000262ff0000199515159094029490941662ffff0019909116179190911792909216179055600061275a3390565b6001600160a01b0316827f4595add82735fb552f64748fc031bd6e53c364da7faac5ce52e2ee48c943b7d388886000886040516127b29493929190938452602084019290925215156040830152606082015260800190565b60405180910390a45050505050565b60006001600160e01b03198216636cdb3d1360e11b14806127f257506001600160e01b031982166303a24d0760e21b145b8061058b57506301ffc9a760e01b6001600160e01b031983161461058b565b6000818152600d602052604090206005810154815461283991906001600160a01b0316611dc5565b612710146128a15760405162461bcd60e51b815260206004820152602f60248201527f53656e64657220646f6573206e6f7420686176652031303025206f776e65727360448201526e1a1a5c081bd9881d1a19481c1b1bdd608a1b60648201526084016107f4565b80546009546005830154604051632ea9327360e11b815260048101919091526001600160a01b039283169290911690635d5264e690602401602060405180830381865afa1580156128f6573d6000803e3d6000fd5b505050506040513d601f19601f8201168201806040525081019061291a919061417b565b6001600160a01b03161461296c5760405162461bcd60e51b8152602060048201526019602482015278139bdd081d1a19481bdddb995c881bd9881d1a19481c1b1bdd603a1b60448201526064016107f4565b60058101546000908152600e6020526040908190205482546001840154925163b061ce0560e01b81526001600160a01b0391821660048201529281166024840152169063b061ce05906044016020604051808303816000875af11580156129d7573d6000803e3d6000fd5b505050506040513d601f19601f820116820180604052508101906129fb9190613f6c565b50600954600582015460018301546040516314c6bb7960e01b815260048101929092526001600160a01b039081166024830152909116906314c6bb7990604401600060405180830381600087803b158015612a5557600080fd5b505af1158015612a69573d6000803e3d6000fd5b50505060018083015460058401546000908152600e60205260409020820180546001600160a01b0319166001600160a01b0390921691909117905560078301805460039350909160ff199091169083610a44565b6000818152600d602052604090206003810154600582015460028301548354612af09291906001600160a01b0316610e06565b1015612b0e5760405162461bcd60e51b81526004016107f49061414f565b60058101546000908152600e6020526040908190205482546001840154600285015460038601549451632f80af0f60e21b81526001600160a01b039384166004820152918316602483015260448201526064810193909352169063be02bc3c906084016020604051808303816000875af1158015612b90573d6000803e3d6000fd5b505050506040513d601f19601f82011682018060405250810190612bb49190613f6c565b5060078101805460ff1916600317905560058101546001820154612be191906001600160a01b0316611dc5565b61271003612c065760058101546001820154612c0691906001600160a01b0316612e56565b60018101548154600554600284015460038501546040516001600160a01b039586169594909416937fc6dd6857b8ac04586ee065e8ee95def9aaebf505c92d9a01be171df17b97798e92612c6292908252602082015260400190565b60405180910390a45050565b6001600160a01b038416612c9857604051632bfa23e760e11b8152600060048201526024016107f4565b6001600160a01b038516612cc157604051626a0d4560e21b8152600060048201526024016107f4565b612cce8585858585612eed565b5050505050565b6001600160a01b038216612cfe5760405162ced3e160e81b8152600060048201526024016107f4565b6001600160a01b03838116600081815260016020908152604080832094871680845294825291829020805460ff191686151590811790915591519182527f17307eab39ab6107e8899845ad3d59bd9653f200f220920489ca2b5937696c31910160405180910390a3505050565b6001600160a01b038416612d9557604051632bfa23e760e11b8152600060048201526024016107f4565b60408051600180825260208201869052818301908152606082018590526080820190925290610dfe600087848487612eed565b6001600160a01b038416612df257604051632bfa23e760e11b8152600060048201526024016107f4565b6001600160a01b038516612e1b57604051626a0d4560e21b8152600060048201526024016107f4565b60408051600180825260208201869052818301908152606082018590526080820190925290612e4d8787848487612eed565b50505050505050565b6009546040516314c6bb7960e01b8152600481018490526001600160a01b038381166024830152909116906314c6bb7990604401600060405180830381600087803b158015612ea457600080fd5b505af1158015612eb8573d6000803e3d6000fd5b505050600092835250600e602052604090912060010180546001600160a01b0319166001600160a01b03909216919091179055565b612ef985858585612f40565b6001600160a01b03841615612cce5782513390600103612f325760208481015190840151612f2b838989858589613145565b5050610dfe565b610dfe818787878787613269565b8051825114612f6f5781518151604051635b05999160e01b8152600481019290925260248201526044016107f4565b3360005b8351811015613075576020818102858101820151908501909101516001600160a01b03881615613026576000828152602081815260408083206001600160a01b038c16845290915290205481811015612fff576040516303dee4c560e01b81526001600160a01b038a1660048201526024810182905260448101839052606481018490526084016107f4565b6000838152602081815260408083206001600160a01b038d16845290915290209082900390555b6001600160a01b0387161561306b576000828152602081815260408083206001600160a01b038b16845290915281208054839290613065908490614365565b90915550505b5050600101612f73565b5082516001036130f65760208301516000906020840151909150856001600160a01b0316876001600160a01b0316846001600160a01b03167fc3d58168c5ae7397731d063d5bbf3d657854427343f4c083240f7aacaa2d0f6285856040516130e7929190918252602082015260400190565b60405180910390a45050612cce565b836001600160a01b0316856001600160a01b0316826001600160a01b03167f4a39dc06d4c0dbc64b70af90fd698a233a518aa5d07e595d983b8c0526c8f7fb86866040516127b2929190614378565b6001600160a01b0384163b15610dfe5760405163f23a6e6160e01b81526001600160a01b0385169063f23a6e6190613189908990899088908890889060040161439d565b6020604051808303816000875af19250505080156131c4575060408051601f3d908101601f191682019092526131c1918101906143d7565b60015b61322d573d8080156131f2576040519150601f19603f3d011682016040523d82523d6000602084013e6131f7565b606091505b50805160000361322557604051632bfa23e760e11b81526001600160a01b03861660048201526024016107f4565b805181602001fd5b6001600160e01b0319811663f23a6e6160e01b14612e4d57604051632bfa23e760e11b81526001600160a01b03861660048201526024016107f4565b6001600160a01b0384163b15610dfe5760405163bc197c8160e01b81526001600160a01b0385169063bc197c81906132ad90899089908890889088906004016143f4565b6020604051808303816000875af19250505080156132e8575060408051601f3d908101601f191682019092526132e5918101906143d7565b60015b613316573d8080156131f2576040519150601f19603f3d011682016040523d82523d6000602084013e6131f7565b6001600160e01b0319811663bc197c8160e01b14612e4d57604051632bfa23e760e11b81526001600160a01b03861660048201526024016107f4565b6040805161016081018252600080825260208201819052918101829052606081018290526080810182905260a0810182905260c081018290529060e082019081526000602082018190526040820181905260609091015290565b6040518060a0016040528060006001600160a01b0316815260200160006001600160a01b031681526020016060815260200160608152602001606081525090565b828054828255906000526020600020908101928215613428579160200282015b8281111561342857825182559160200191906001019061340d565b50613434929150613438565b5090565b5b808211156134345760008155600101613439565b6001600160a01b038116811461346257600080fd5b50565b6000806040838503121561347857600080fd5b82356134838161344d565b946020939093013593505050565b6001600160e01b03198116811461346257600080fd5b6000602082840312156134b957600080fd5b81356134c481613491565b9392505050565b6000806000606084860312156134e057600080fd5b83356134eb8161344d565b95602085013595506040909401359392505050565b6020808252825182820181905260009190848201906040850190845b818110156135415783516001600160a01b03168352928401929184019160010161351c565b50909695505050505050565b60006020828403121561355f57600080fd5b5035919050565b60005b83811015613581578181015183820152602001613569565b50506000910152565b600081518084526135a2816020860160208601613566565b601f01601f19169290920160200192915050565b6020815260006134c4602083018461358a565b6000806000806000608086880312156135e157600080fd5b85356135ec8161344d565b945060208601356135fc8161344d565b93506040860135925060608601356001600160401b038082111561361f57600080fd5b818801915088601f83011261363357600080fd5b81358181111561364257600080fd5b89602082850101111561365457600080fd5b9699959850939650602001949392505050565b634e487b7160e01b600052602160045260246000fd5b6004811061369b57634e487b7160e01b600052602160045260246000fd5b9052565b80516001600160a01b0316825260208101516136c660208401826001600160a01b03169052565b50604081015160408301526060810151606083015260808101516136ee608084018215159052565b5060a081015160a083015260c081015160c083015260e081015161371560e084018261367d565b5061010081810151151590830152610120808201511515908301526101408082015180151582850152610834565b610160810161058b828461369f565b60008151808452602080850194506020840160005b8381101561378357815187529582019590820190600101613767565b509495945050505050565b600060018060a01b0380835116845280602084015116602085015250604082015160a060408501526137c360a085018261358a565b9050606083015184820360608601526137dc8282613752565b91505060808301518482036080860152610e898282613752565b600060208083016020845280855180835260408601915060408160051b87010192506020870160005b8281101561384d57603f1988860301845261383b85835161378e565b9450928501929085019060010161381f565b5092979650505050505050565b634e487b7160e01b600052604160045260246000fd5b604051601f8201601f191681016001600160401b03811182821017156138985761389861385a565b604052919050565b60006001600160401b038211156138b9576138b961385a565b5060051b60200190565b600082601f8301126138d457600080fd5b813560206138e96138e4836138a0565b613870565b8083825260208201915060208460051b87010193508684111561390b57600080fd5b602086015b848110156139275780358352918301918301613910565b509695505050505050565b600082601f83011261394357600080fd5b81356001600160401b0381111561395c5761395c61385a565b61396f601f8201601f1916602001613870565b81815284602083860101111561398457600080fd5b816020850160208301376000918101602001919091529392505050565b600080600080600060a086880312156139b957600080fd5b85356139c48161344d565b945060208601356139d48161344d565b935060408601356001600160401b03808211156139f057600080fd5b6139fc89838a016138c3565b94506060880135915080821115613a1257600080fd5b613a1e89838a016138c3565b93506080880135915080821115613a3457600080fd5b50613a4188828901613932565b9150509295509295909350565b600080600060608486031215613a6357600080fd5b83359250602084013591506040840135613a7c8161344d565b809150509250925092565b60008060408385031215613a9a57600080fd5b82356001600160401b0380821115613ab157600080fd5b818501915085601f830112613ac557600080fd5b81356020613ad56138e4836138a0565b82815260059290921b84018101918181019089841115613af457600080fd5b948201945b83861015613b1b578535613b0c8161344d565b82529482019490820190613af9565b96505086013592505080821115613b3157600080fd5b50613b3e858286016138c3565b9150509250929050565b6020815260006134c46020830184613752565b6000815160a08452613b7060a085018261358a565b905060208301518482036020860152613b89828261358a565b91505060408301518482036040860152613ba3828261358a565b9150506060830151606085015260808301518482036080860152610e898282613752565b6020815260006134c46020830184613b5b565b600080600060608486031215613bef57600080fd5b833592506020840135613c018161344d565b929592945050506040919091013590565b600060208083016020845280855180835260408601915060408160051b87010192506020870160005b8281101561384d57603f19888603018452613c57858351613b5b565b94509285019290850190600101613c3b565b801515811461346257600080fd5b60008060408385031215613c8a57600080fd5b8235613c958161344d565b91506020830135613ca581613c69565b809150509250929050565b60008060408385031215613cc357600080fd5b50508035926020909101359150565b600080600060608486031215613ce757600080fd5b83356001600160401b0380821115613cfe57600080fd5b613d0a87838801613932565b94506020860135915080821115613d2057600080fd5b613d2c878388016138c3565b93506040860135915080821115613d4257600080fd5b50613d4f868287016138c3565b9150509250925092565b6020808252825182820181905260009190848201906040850190845b8181101561354157613d8883855161369f565b928401926101609290920191600101613d75565b60008060408385031215613daf57600080fd5b823591506020830135613ca58161344d565b6020815260006134c4602083018461378e565b60008060008060808587031215613dea57600080fd5b84356001600160401b0380821115613e0157600080fd5b613e0d88838901613932565b95506020870135915080821115613e2357600080fd5b613e2f88838901613932565b94506040870135915080821115613e4557600080fd5b50613e5287828801613932565b949793965093946060013593505050565b60008060408385031215613e7657600080fd5b8235613e818161344d565b91506020830135613ca58161344d565b600080600080600060a08688031215613ea957600080fd5b8535613eb48161344d565b94506020860135613ec48161344d565b9350604086013592506060860135915060808601356001600160401b03811115613eed57600080fd5b613a4188828901613932565b60008060008060808587031215613f0f57600080fd5b84359350602085013592506040850135613f288161344d565b9396929550929360600135925050565b600181811c90821680613f4c57607f821691505b602082108103610d9957634e487b7160e01b600052602260045260246000fd5b600060208284031215613f7e57600080fd5b81516134c481613c69565b6020808252601c908201527f4c616e644d616e6167656d656e743a204e6f7420616e2061646d696e00000000604082015260600190565b634e487b7160e01b600052601160045260246000fd5b8181038181111561058b5761058b613fc0565b634e487b7160e01b600052603260045260246000fd5b60006001820161401157614011613fc0565b5060010190565b60006020828403121561402a57600080fd5b5051919050565b6000602080838503121561404457600080fd5b82516001600160401b0381111561405a57600080fd5b8301601f8101851361406b57600080fd5b80516140796138e4826138a0565b81815260059190911b8201830190838101908783111561409857600080fd5b928401925b828410156140b65783518252928401929084019061409d565b979650505050505050565b600060208083850312156140d457600080fd5b82516001600160401b038111156140ea57600080fd5b8301601f810185136140fb57600080fd5b80516141096138e4826138a0565b81815260059190911b8201830190838101908783111561412857600080fd5b928401925b828410156140b65783516141408161344d565b8252928401929084019061412d565b6020808252601290820152714e6f7420656e6f7567682062616c616e636560701b604082015260600190565b60006020828403121561418d57600080fd5b81516134c48161344d565b601f8211156141e0576000816000526020600020601f850160051c810160208610156141c15750805b601f850160051c820191505b81811015610dfe578281556001016141cd565b505050565b81516001600160401b038111156141fe576141fe61385a565b6142128161420c8454613f38565b84614198565b602080601f831160018114614247576000841561422f5750858301515b600019600386901b1c1916600185901b178555610dfe565b600085815260208120601f198616915b8281101561427657888601518255948401946001909101908401614257565b50858210156142945787850151600019600388901b60f8161c191681555b5050505050600190811b01905550565b6001600160a01b03851681526080602082018190526000906142c89083018661358a565b82810360408401526142da8186613752565b905082810360608401526140b68185613752565b6060815260006143016060830186613752565b82810360208401526143138186613752565b915050826040830152949350505050565b60008251614336818460208701613566565b9190910192915050565b606081526000614353606083018661358a565b8281036020840152614313818661358a565b8082018082111561058b5761058b613fc0565b60408152600061438b6040830185613752565b8281036020840152610e898185613752565b6001600160a01b03868116825285166020820152604081018490526060810183905260a0608082018190526000906140b69083018461358a565b6000602082840312156143e957600080fd5b81516134c481613491565b6001600160a01b0386811682528516602082015260a06040820181905260009061442090830186613752565b82810360608401526144328186613752565b90508281036080840152614446818561358a565b9897505050505050505056fea2646970667358221220fb5b001cee8944e3d36344cf2174496b62757ca6b31f5989ddb6393d098e821464736f6c63430008190033",
  "linkReferences": {},
  "deployedLinkReferences": {}
}