{
  "_format": "hh-sol-artifact-1",
  "contractName": "LandAssetManager",
  "sourceName": "contracts/LandAssetManager.sol",
  "abi": [
    {
      "inputs": [
        {
          "internalType": "string",
          "name": "uri",
          "type": "string"
        },
        {
          "internalType": "address",
          "name": "_treasuryWallet",
          "type": "address"
        },
        {
          "internalType": "address",
          "name": "auth",
          "type": "address"
        }
      ],
      "stateMutability": "nonpayable",
      "type": "constructor"
    },
    {
      "inputs": [
        {
          "internalType": "address",
          "name": "sender",
          "type": "address"
        },
        {
          "internalType": "uint256",
          "name": "balance",
          "type": "uint256"
        },
        {
          "internalType": "uint256",
          "name": "needed",
          "type": "uint256"
        },
        {
          "internalType": "uint256",
          "name": "tokenId",
          "type": "uint256"
        }
      ],
      "name": "ERC1155InsufficientBalance",
      "type": "error"
    },
    {
      "inputs": [
        {
          "internalType": "address",
          "name": "approver",
          "type": "address"
        }
      ],
      "name": "ERC1155InvalidApprover",
      "type": "error"
    },
    {
      "inputs": [
        {
          "internalType": "uint256",
          "name": "idsLength",
          "type": "uint256"
        },
        {
          "internalType": "uint256",
          "name": "valuesLength",
          "type": "uint256"
        }
      ],
      "name": "ERC1155InvalidArrayLength",
      "type": "error"
    },
    {
      "inputs": [
        {
          "internalType": "address",
          "name": "operator",
          "type": "address"
        }
      ],
      "name": "ERC1155InvalidOperator",
      "type": "error"
    },
    {
      "inputs": [
        {
          "internalType": "address",
          "name": "receiver",
          "type": "address"
        }
      ],
      "name": "ERC1155InvalidReceiver",
      "type": "error"
    },
    {
      "inputs": [
        {
          "internalType": "address",
          "name": "sender",
          "type": "address"
        }
      ],
      "name": "ERC1155InvalidSender",
      "type": "error"
    },
    {
      "inputs": [
        {
          "internalType": "address",
          "name": "operator",
          "type": "address"
        },
        {
          "internalType": "address",
          "name": "owner",
          "type": "address"
        }
      ],
      "name": "ERC1155MissingApprovalForAll",
      "type": "error"
    },
    {
      "anonymous": false,
      "inputs": [
        {
          "indexed": true,
          "internalType": "address",
          "name": "account",
          "type": "address"
        },
        {
          "indexed": true,
          "internalType": "address",
          "name": "operator",
          "type": "address"
        },
        {
          "indexed": false,
          "internalType": "bool",
          "name": "approved",
          "type": "bool"
        }
      ],
      "name": "ApprovalForAll",
      "type": "event"
    },
    {
      "anonymous": false,
      "inputs": [
        {
          "indexed": false,
          "internalType": "uint256[]",
          "name": "parcelIds",
          "type": "uint256[]"
        },
        {
          "indexed": false,
          "internalType": "uint256[]",
          "name": "parcelAmount",
          "type": "uint256[]"
        },
        {
          "indexed": false,
          "internalType": "uint256",
          "name": "timestamp",
          "type": "uint256"
        }
      ],
      "name": "PlotCreated",
      "type": "event"
    },
    {
      "anonymous": false,
      "inputs": [
        {
          "indexed": true,
          "internalType": "uint256",
          "name": "tokenId",
          "type": "uint256"
        },
        {
          "indexed": false,
          "internalType": "string",
          "name": "blockInfo",
          "type": "string"
        },
        {
          "indexed": false,
          "internalType": "string",
          "name": "parcelInfo",
          "type": "string"
        },
        {
          "indexed": false,
          "internalType": "uint256",
          "name": "totalSupply",
          "type": "uint256"
        }
      ],
      "name": "TokenCreated",
      "type": "event"
    },
    {
      "anonymous": false,
      "inputs": [
        {
          "indexed": true,
          "internalType": "uint256",
          "name": "requestId",
          "type": "uint256"
        },
        {
          "indexed": true,
          "internalType": "address",
          "name": "approver",
          "type": "address"
        },
        {
          "indexed": false,
          "internalType": "uint256",
          "name": "role",
          "type": "uint256"
        },
        {
          "indexed": false,
          "internalType": "bool",
          "name": "isFullyApproved",
          "type": "bool"
        },
        {
          "indexed": false,
          "internalType": "uint256",
          "name": "timestamp",
          "type": "uint256"
        }
      ],
      "name": "TransferApproved",
      "type": "event"
    },
    {
      "anonymous": false,
      "inputs": [
        {
          "indexed": true,
          "internalType": "address",
          "name": "operator",
          "type": "address"
        },
        {
          "indexed": true,
          "internalType": "address",
          "name": "from",
          "type": "address"
        },
        {
          "indexed": true,
          "internalType": "address",
          "name": "to",
          "type": "address"
        },
        {
          "indexed": false,
          "internalType": "uint256[]",
          "name": "ids",
          "type": "uint256[]"
        },
        {
          "indexed": false,
          "internalType": "uint256[]",
          "name": "values",
          "type": "uint256[]"
        }
      ],
      "name": "TransferBatch",
      "type": "event"
    },
    {
      "anonymous": false,
      "inputs": [
        {
          "indexed": true,
          "internalType": "uint256",
          "name": "requestId",
          "type": "uint256"
        },
        {
          "indexed": true,
          "internalType": "address",
          "name": "from",
          "type": "address"
        },
        {
          "indexed": true,
          "internalType": "address",
          "name": "to",
          "type": "address"
        },
        {
          "indexed": false,
          "internalType": "uint256",
          "name": "tokenId",
          "type": "uint256"
        },
        {
          "indexed": false,
          "internalType": "uint256",
          "name": "amount",
          "type": "uint256"
        }
      ],
      "name": "TransferExecuted",
      "type": "event"
    },
    {
      "anonymous": false,
      "inputs": [
        {
          "indexed": true,
          "internalType": "uint256",
          "name": "requestId",
          "type": "uint256"
        },
        {
          "indexed": true,
          "internalType": "address",
          "name": "from",
          "type": "address"
        },
        {
          "indexed": true,
          "internalType": "address",
          "name": "to",
          "type": "address"
        },
        {
          "indexed": false,
          "internalType": "uint256",
          "name": "tokenId",
          "type": "uint256"
        },
        {
          "indexed": false,
          "internalType": "uint256",
          "name": "amount",
          "type": "uint256"
        },
        {
          "indexed": false,
          "internalType": "bool",
          "name": "isPlotTransfer",
          "type": "bool"
        },
        {
          "indexed": false,
          "internalType": "uint256",
          "name": "plotId",
          "type": "uint256"
        }
      ],
      "name": "TransferRequestCreated",
      "type": "event"
    },
    {
      "anonymous": false,
      "inputs": [
        {
          "indexed": true,
          "internalType": "address",
          "name": "operator",
          "type": "address"
        },
        {
          "indexed": true,
          "internalType": "address",
          "name": "from",
          "type": "address"
        },
        {
          "indexed": true,
          "internalType": "address",
          "name": "to",
          "type": "address"
        },
        {
          "indexed": false,
          "internalType": "uint256",
          "name": "id",
          "type": "uint256"
        },
        {
          "indexed": false,
          "internalType": "uint256",
          "name": "value",
          "type": "uint256"
        }
      ],
      "name": "TransferSingle",
      "type": "event"
    },
    {
      "anonymous": false,
      "inputs": [
        {
          "indexed": false,
          "internalType": "string",
          "name": "value",
          "type": "string"
        },
        {
          "indexed": true,
          "internalType": "uint256",
          "name": "id",
          "type": "uint256"
        }
      ],
      "name": "URI",
      "type": "event"
    },
    {
      "inputs": [
        {
          "internalType": "address",
          "name": "account",
          "type": "address"
        },
        {
          "internalType": "uint256",
          "name": "id",
          "type": "uint256"
        }
      ],
      "name": "balanceOf",
      "outputs": [
        {
          "internalType": "uint256",
          "name": "",
          "type": "uint256"
        }
      ],
      "stateMutability": "view",
      "type": "function"
    },
    {
      "inputs": [
        {
          "internalType": "address[]",
          "name": "accounts",
          "type": "address[]"
        },
        {
          "internalType": "uint256[]",
          "name": "ids",
          "type": "uint256[]"
        }
      ],
      "name": "balanceOfBatch",
      "outputs": [
        {
          "internalType": "uint256[]",
          "name": "",
          "type": "uint256[]"
        }
      ],
      "stateMutability": "view",
      "type": "function"
    },
    {
      "inputs": [
        {
          "internalType": "string",
          "name": "blockInfo",
          "type": "string"
        },
        {
          "internalType": "string",
          "name": "parcelInfo",
          "type": "string"
        },
        {
          "internalType": "string",
          "name": "tokenURI",
          "type": "string"
        },
        {
          "internalType": "uint256",
          "name": "totalSupply",
          "type": "uint256"
        }
      ],
      "name": "createBlockParcelToken",
      "outputs": [
        {
          "internalType": "uint256",
          "name": "",
          "type": "uint256"
        }
      ],
      "stateMutability": "nonpayable",
      "type": "function"
    },
    {
      "inputs": [
        {
          "internalType": "address",
          "name": "signerWallet",
          "type": "address"
        },
        {
          "internalType": "uint256",
          "name": "requestIdForApproval",
          "type": "uint256"
        },
        {
          "internalType": "uint256",
          "name": "_role",
          "type": "uint256"
        }
      ],
      "name": "delegateApproveAndTransfer",
      "outputs": [],
      "stateMutability": "nonpayable",
      "type": "function"
    },
    {
      "inputs": [
        {
          "internalType": "uint256",
          "name": "_tokenId",
          "type": "uint256"
        }
      ],
      "name": "getBlockParcelTokenURI",
      "outputs": [
        {
          "internalType": "string",
          "name": "",
          "type": "string"
        }
      ],
      "stateMutability": "view",
      "type": "function"
    },
    {
      "inputs": [
        {
          "internalType": "uint256",
          "name": "_tokenId",
          "type": "uint256"
        }
      ],
      "name": "getLandInfo",
      "outputs": [
        {
          "components": [
            {
              "internalType": "string",
              "name": "blockInfo",
              "type": "string"
            },
            {
              "internalType": "string",
              "name": "parcelInfo",
              "type": "string"
            },
            {
              "internalType": "string",
              "name": "blockParcelTokenURI",
              "type": "string"
            },
            {
              "internalType": "uint256",
              "name": "totalSupply",
              "type": "uint256"
            },
            {
              "internalType": "uint256[]",
              "name": "plotAllocation",
              "type": "uint256[]"
            }
          ],
          "internalType": "struct LandAssetManager.LandInfo",
          "name": "",
          "type": "tuple"
        }
      ],
      "stateMutability": "view",
      "type": "function"
    },
    {
      "inputs": [],
      "name": "getListOfTotalPlots",
      "outputs": [
        {
          "internalType": "address[]",
          "name": "",
          "type": "address[]"
        }
      ],
      "stateMutability": "view",
      "type": "function"
    },
    {
      "inputs": [
        {
          "internalType": "uint256",
          "name": "_plotId",
          "type": "uint256"
        },
        {
          "internalType": "address",
          "name": "_user",
          "type": "address"
        }
      ],
      "name": "getOwnershipPercentage",
      "outputs": [
        {
          "internalType": "uint256",
          "name": "",
          "type": "uint256"
        }
      ],
      "stateMutability": "view",
      "type": "function"
    },
    {
      "inputs": [
        {
          "internalType": "uint256",
          "name": "_plotId",
          "type": "uint256"
        }
      ],
      "name": "getPlotAccountInfo",
      "outputs": [
        {
          "components": [
            {
              "internalType": "address",
              "name": "plotAccount",
              "type": "address"
            },
            {
              "internalType": "uint256[]",
              "name": "parcelIds",
              "type": "uint256[]"
            },
            {
              "internalType": "uint256[]",
              "name": "parcelAmounts",
              "type": "uint256[]"
            }
          ],
          "internalType": "struct LandAssetManager.PlotInfo",
          "name": "",
          "type": "tuple"
        }
      ],
      "stateMutability": "view",
      "type": "function"
    },
    {
      "inputs": [
        {
          "internalType": "uint256",
          "name": "_plotId",
          "type": "uint256"
        },
        {
          "internalType": "uint256",
          "name": "_parcelId",
          "type": "uint256"
        }
      ],
      "name": "getPlotAccountParcelShareholders",
      "outputs": [
        {
          "internalType": "address[]",
          "name": "",
          "type": "address[]"
        }
      ],
      "stateMutability": "view",
      "type": "function"
    },
    {
      "inputs": [
        {
          "internalType": "uint256",
          "name": "_plotId",
          "type": "uint256"
        },
        {
          "internalType": "uint256",
          "name": "_parcelId",
          "type": "uint256"
        }
      ],
      "name": "getPlotAccountParcelTotalShares",
      "outputs": [
        {
          "internalType": "uint256",
          "name": "",
          "type": "uint256"
        }
      ],
      "stateMutability": "view",
      "type": "function"
    },
    {
      "inputs": [
        {
          "internalType": "uint256",
          "name": "_plotId",
          "type": "uint256"
        },
        {
          "internalType": "address",
          "name": "_user",
          "type": "address"
        },
        {
          "internalType": "uint256",
          "name": "_parcel",
          "type": "uint256"
        }
      ],
      "name": "getPlotAccountUserParcels",
      "outputs": [
        {
          "internalType": "uint256[]",
          "name": "",
          "type": "uint256[]"
        }
      ],
      "stateMutability": "view",
      "type": "function"
    },
    {
      "inputs": [
        {
          "internalType": "uint256",
          "name": "_plotId",
          "type": "uint256"
        },
        {
          "internalType": "uint256",
          "name": "_parcelId",
          "type": "uint256"
        },
        {
          "internalType": "address",
          "name": "_user",
          "type": "address"
        }
      ],
      "name": "getPlotAccountUserShares",
      "outputs": [
        {
          "internalType": "uint256",
          "name": "",
          "type": "uint256"
        }
      ],
      "stateMutability": "view",
      "type": "function"
    },
    {
      "inputs": [
        {
          "internalType": "uint256",
          "name": "_tokenId",
          "type": "uint256"
        }
      ],
      "name": "getPlotAllocation",
      "outputs": [
        {
          "internalType": "uint256[]",
          "name": "",
          "type": "uint256[]"
        }
      ],
      "stateMutability": "view",
      "type": "function"
    },
    {
      "inputs": [],
      "name": "getPlotAndTokenIdInfo",
      "outputs": [
        {
          "internalType": "uint256",
          "name": "",
          "type": "uint256"
        },
        {
          "internalType": "uint256",
          "name": "",
          "type": "uint256"
        }
      ],
      "stateMutability": "view",
      "type": "function"
    },
    {
      "inputs": [
        {
          "internalType": "address",
          "name": "account",
          "type": "address"
        },
        {
          "internalType": "address",
          "name": "operator",
          "type": "address"
        }
      ],
      "name": "isApprovedForAll",
      "outputs": [
        {
          "internalType": "bool",
          "name": "",
          "type": "bool"
        }
      ],
      "stateMutability": "view",
      "type": "function"
    },
    {
      "inputs": [
        {
          "internalType": "address",
          "name": "",
          "type": "address"
        }
      ],
      "name": "isPlotRegistered",
      "outputs": [
        {
          "internalType": "bool",
          "name": "",
          "type": "bool"
        }
      ],
      "stateMutability": "view",
      "type": "function"
    },
    {
      "inputs": [
        {
          "internalType": "uint256",
          "name": "",
          "type": "uint256"
        }
      ],
      "name": "listOfTotalPlots",
      "outputs": [
        {
          "internalType": "address",
          "name": "",
          "type": "address"
        }
      ],
      "stateMutability": "view",
      "type": "function"
    },
    {
      "inputs": [
        {
          "internalType": "address",
          "name": "operator",
          "type": "address"
        },
        {
          "internalType": "address",
          "name": "from",
          "type": "address"
        },
        {
          "internalType": "uint256",
          "name": "tokenId",
          "type": "uint256"
        },
        {
          "internalType": "bytes",
          "name": "data",
          "type": "bytes"
        }
      ],
      "name": "onERC721Received",
      "outputs": [
        {
          "internalType": "bytes4",
          "name": "",
          "type": "bytes4"
        }
      ],
      "stateMutability": "pure",
      "type": "function"
    },
    {
      "inputs": [
        {
          "internalType": "uint256",
          "name": "_plotId",
          "type": "uint256"
        }
      ],
      "name": "plotFinalize",
      "outputs": [],
      "stateMutability": "nonpayable",
      "type": "function"
    },
    {
      "inputs": [
        {
          "internalType": "uint256[]",
          "name": "parcelIds",
          "type": "uint256[]"
        },
        {
          "internalType": "uint256[]",
          "name": "parcelAmounts",
          "type": "uint256[]"
        }
      ],
      "name": "plotInitiate",
      "outputs": [],
      "stateMutability": "nonpayable",
      "type": "function"
    },
    {
      "inputs": [],
      "name": "plotNft",
      "outputs": [
        {
          "internalType": "contract IERC721",
          "name": "",
          "type": "address"
        }
      ],
      "stateMutability": "view",
      "type": "function"
    },
    {
      "inputs": [],
      "name": "plotPassAddress",
      "outputs": [
        {
          "internalType": "address",
          "name": "",
          "type": "address"
        }
      ],
      "stateMutability": "view",
      "type": "function"
    },
    {
      "inputs": [],
      "name": "plotRegistry",
      "outputs": [
        {
          "internalType": "contract IPlotRegistry",
          "name": "",
          "type": "address"
        }
      ],
      "stateMutability": "view",
      "type": "function"
    },
    {
      "inputs": [
        {
          "internalType": "uint256",
          "name": "_requestId",
          "type": "uint256"
        }
      ],
      "name": "rejectTransfer",
      "outputs": [],
      "stateMutability": "nonpayable",
      "type": "function"
    },
    {
      "inputs": [
        {
          "internalType": "uint256",
          "name": "_parcelId",
          "type": "uint256"
        },
        {
          "internalType": "uint256",
          "name": "parcelAmount",
          "type": "uint256"
        },
        {
          "internalType": "address",
          "name": "to",
          "type": "address"
        },
        {
          "internalType": "uint256",
          "name": "_plotId",
          "type": "uint256"
        },
        {
          "internalType": "bool",
          "name": "isPlotTransfer",
          "type": "bool"
        }
      ],
      "name": "requestForParcelTransfer",
      "outputs": [],
      "stateMutability": "nonpayable",
      "type": "function"
    },
    {
      "inputs": [
        {
          "internalType": "uint256",
          "name": "_plotId",
          "type": "uint256"
        },
        {
          "internalType": "address",
          "name": "to",
          "type": "address"
        }
      ],
      "name": "requestForWholePlotTransfer",
      "outputs": [],
      "stateMutability": "nonpayable",
      "type": "function"
    },
    {
      "inputs": [],
      "name": "requestId",
      "outputs": [
        {
          "internalType": "uint256",
          "name": "",
          "type": "uint256"
        }
      ],
      "stateMutability": "view",
      "type": "function"
    },
    {
      "inputs": [
        {
          "internalType": "uint256",
          "name": "_requestId",
          "type": "uint256"
        }
      ],
      "name": "requestStatus",
      "outputs": [
        {
          "components": [
            {
              "internalType": "address",
              "name": "from",
              "type": "address"
            },
            {
              "internalType": "address",
              "name": "to",
              "type": "address"
            },
            {
              "internalType": "uint256",
              "name": "parcelId",
              "type": "uint256"
            },
            {
              "internalType": "uint256",
              "name": "parcelAmount",
              "type": "uint256"
            },
            {
              "internalType": "bool",
              "name": "isPlotTransfer",
              "type": "bool"
            },
            {
              "internalType": "uint256",
              "name": "plotId",
              "type": "uint256"
            },
            {
              "internalType": "uint256",
              "name": "timestamp",
              "type": "uint256"
            },
            {
              "internalType": "enum LandAssetManager.TransferStatus",
              "name": "status",
              "type": "uint8"
            },
            {
              "internalType": "bool",
              "name": "landAuthorityApproved",
              "type": "bool"
            },
            {
              "internalType": "bool",
              "name": "lawyerApproved",
              "type": "bool"
            },
            {
              "internalType": "bool",
              "name": "bankApproved",
              "type": "bool"
            }
          ],
          "internalType": "struct LandAssetManager.TransferRequest",
          "name": "",
          "type": "tuple"
        }
      ],
      "stateMutability": "view",
      "type": "function"
    },
    {
      "inputs": [
        {
          "internalType": "address",
          "name": "from",
          "type": "address"
        },
        {
          "internalType": "address",
          "name": "to",
          "type": "address"
        },
        {
          "internalType": "uint256[]",
          "name": "ids",
          "type": "uint256[]"
        },
        {
          "internalType": "uint256[]",
          "name": "values",
          "type": "uint256[]"
        },
        {
          "internalType": "bytes",
          "name": "data",
          "type": "bytes"
        }
      ],
      "name": "safeBatchTransferFrom",
      "outputs": [],
      "stateMutability": "nonpayable",
      "type": "function"
    },
    {
      "inputs": [
        {
          "internalType": "address",
          "name": "from",
          "type": "address"
        },
        {
          "internalType": "address",
          "name": "to",
          "type": "address"
        },
        {
          "internalType": "uint256",
          "name": "id",
          "type": "uint256"
        },
        {
          "internalType": "uint256",
          "name": "value",
          "type": "uint256"
        },
        {
          "internalType": "bytes",
          "name": "data",
          "type": "bytes"
        }
      ],
      "name": "safeTransferFrom",
      "outputs": [],
      "stateMutability": "nonpayable",
      "type": "function"
    },
    {
      "inputs": [
        {
          "internalType": "address",
          "name": "operator",
          "type": "address"
        },
        {
          "internalType": "bool",
          "name": "approved",
          "type": "bool"
        }
      ],
      "name": "setApprovalForAll",
      "outputs": [],
      "stateMutability": "nonpayable",
      "type": "function"
    },
    {
      "inputs": [
        {
          "internalType": "address",
          "name": "_plotRegistry",
          "type": "address"
        }
      ],
      "name": "setPlotRegistryContract",
      "outputs": [],
      "stateMutability": "nonpayable",
      "type": "function"
    },
    {
      "inputs": [
        {
          "internalType": "address",
          "name": "_addr",
          "type": "address"
        }
      ],
      "name": "setTreasuryWalletAddress",
      "outputs": [],
      "stateMutability": "nonpayable",
      "type": "function"
    },
    {
      "inputs": [
        {
          "internalType": "address",
          "name": "_addr",
          "type": "address"
        }
      ],
      "name": "setplotOwnershipContract",
      "outputs": [],
      "stateMutability": "nonpayable",
      "type": "function"
    },
    {
      "inputs": [
        {
          "internalType": "bytes4",
          "name": "interfaceId",
          "type": "bytes4"
        }
      ],
      "name": "supportsInterface",
      "outputs": [
        {
          "internalType": "bool",
          "name": "",
          "type": "bool"
        }
      ],
      "stateMutability": "view",
      "type": "function"
    },
    {
      "inputs": [],
      "name": "treasuryWallet",
      "outputs": [
        {
          "internalType": "address",
          "name": "",
          "type": "address"
        }
      ],
      "stateMutability": "view",
      "type": "function"
    },
    {
      "inputs": [
        {
          "internalType": "uint256",
          "name": "",
          "type": "uint256"
        }
      ],
      "name": "uri",
      "outputs": [
        {
          "internalType": "string",
          "name": "",
          "type": "string"
        }
      ],
      "stateMutability": "view",
      "type": "function"
    }
  ],
  "bytecode": "0x608060405234801561001057600080fd5b5060405161460638038061460683398101604081905261002f91610115565b82610039816100d3565b506001600160a01b0382166100945760405162461bcd60e51b815260206004820152601760248201527f496e76616c69642074726561737572792077616c6c6574000000000000000000604482015260640160405180910390fd5b600680546001600160a01b039384166001600160a01b031991821617909155600c80549290931691811682179092556008805490921617905550610349565b60026100df828261028a565b5050565b634e487b7160e01b600052604160045260246000fd5b80516001600160a01b038116811461011057600080fd5b919050565b60008060006060848603121561012a57600080fd5b83516001600160401b038082111561014157600080fd5b818601915086601f83011261015557600080fd5b815181811115610167576101676100e3565b604051601f8201601f19908116603f0116810190838211818310171561018f5761018f6100e3565b816040528281526020935089848487010111156101ab57600080fd5b600091505b828210156101cd57848201840151818301850152908301906101b0565b60008484830101528097505050506101e68187016100f9565b935050506101f6604085016100f9565b90509250925092565b600181811c9082168061021357607f821691505b60208210810361023357634e487b7160e01b600052602260045260246000fd5b50919050565b601f821115610285576000816000526020600020601f850160051c810160208610156102625750805b601f850160051c820191505b818110156102815782815560010161026e565b5050505b505050565b81516001600160401b038111156102a3576102a36100e3565b6102b7816102b184546101ff565b84610239565b602080601f8311600181146102ec57600084156102d45750858301515b600019600386901b1c1916600185901b178555610281565b600085815260208120601f198616915b8281101561031b578886015182559484019460019091019084016102fc565b50858210156103395787850151600019600388901b60f8161c191681555b5050505050600190811b01905550565b6142ae806103586000396000f3fe608060405234801561001057600080fd5b50600436106102305760003560e01c80635efd930b11610130578063a7994b58116100b8578063c5725f4b1161007c578063c5725f4b1461055d578063c572aad014610570578063cea7084414610583578063e985e9c514610596578063f242432a146105a957600080fd5b8063a7994b58146104f1578063a900e23614610504578063bdcb031414610517578063bf5f71b81461052a578063c2d4769d1461053d57600080fd5b80637b3b9673116100ff5780637b3b967314610488578063863654091461049b578063a22cb465146104b8578063a31a3a43146104cb578063a738a285146104de57600080fd5b80635efd930b1461041f5780636f6f9bef146104325780636fbba4d91461045257806378fe88901461046557600080fd5b8063193e9ecb116101be57806340155f571161018257806340155f57146103b357806345b6453b146103c65780634626402b146103e65780634e1273f4146103f95780635d7766bb1461040c57600080fd5b8063193e9ecb1461032f5780631a313202146103425780631c1118db146103625780632eb2c2d61461038d578063360f7582146103a057600080fd5b80630d1dfd08116102055780630d1dfd081461029c5780630e89341c146102b157806312effc32146102d15780631379cf5c146102e4578063150b7a02146102f757600080fd5b80626d6cae14610235578062fdd58e1461025157806301ffc9a7146102645780630cce22c714610287575b600080fd5b61023e60055481565b6040519081526020015b60405180910390f35b61023e61025f3660046133ca565b6105bc565b61027761027236600461340c565b6105e4565b6040519015158152602001610248565b61029a610295366004613430565b6105ef565b005b6102a46109b1565b6040516102489190613465565b6102c46102bf3660046134b2565b610a13565b604051610248919061351b565b61029a6102df3660046134b2565b610aa7565b61029a6102f23660046134b2565b610bc4565b61031661030536600461352e565b630a85bd0160e11b95945050505050565b6040516001600160e01b03199091168152602001610248565b61029a61033d3660046135cc565b610f23565b6103556103503660046134b2565b610fdb565b6040516102489190613621565b600754610375906001600160a01b031681565b6040516001600160a01b039091168152602001610248565b61029a61039b366004613812565b611116565b61023e6103ae3660046138bf565b61117d565b61029a6103c13660046135cc565b611209565b6103d96103d43660046134b2565b6112cb565b6040516102489190613934565b600654610375906001600160a01b031681565b6103d9610407366004613947565b61132f565b600b54610375906001600160a01b031681565b61029a61042d3660046135cc565b6113fb565b6104456104403660046134b2565b6114b3565b6040516102489190613a08565b6102c46104603660046134b2565b61171c565b6102776104733660046135cc565b600e6020526000908152604090205460ff1681565b6103d9610496366004613a87565b61173c565b6104a36117c5565b60408051928352602083019190915201610248565b61029a6104c6366004613acd565b61186c565b6103756104d93660046134b2565b61187b565b6102a46104ec366004613b06565b6118a5565b61029a6104ff366004613b28565b61192e565b600a54610375906001600160a01b031681565b61023e610525366004613b06565b611b6e565b61023e610538366004613b7e565b611bea565b61055061054b3660046134b2565b611c2a565b6040516102489190613ba3565b61029a61056b366004613b7e565b611d32565b61029a61057e366004613bee565b6120b6565b61023e610591366004613c3a565b61244e565b6102776105a4366004613cc9565b612677565b61029a6105b7366004613cf7565b6126a5565b6000818152602081815260408083206001600160a01b03861684529091529020545b92915050565b60006105de82612704565b6000816001036106d0576000838152601060205260409020600701805461ff001916610100179081905562010000900460ff16801561064657506000838152601060205260409020600701546301000000900460ff165b1561067457600083815260106020526040902060070180546002919060ff19166001835b0217905550600190505b836001600160a01b0316837faf49c9f2c598a27f6918ca87eb8058baac5f2f871de5ef13b001f58545e280608484426040516106c3939291909283529015156020830152604082015260600190565b60405180910390a361081b565b8160020361074e576000838152601060205260409020600701805463ff00000019166301000000179081905562010000900460ff1680156106465750600083815260106020526040902060070154610100900460ff161561067457600083815260106020526040902060070180546002919060ff191660018361066a565b816003036107cb576000838152601060205260409020600701805462ff000019166201000017908190556301000000900460ff1680156106465750600083815260106020526040902060070154610100900460ff161561067457600083815260106020526040902060070180546002919060ff191660018361066a565b6000821180156107db5750600482105b61081b5760405162461bcd60e51b815260206004820152600c60248201526b496e76616c696420726f6c6560a01b60448201526064015b60405180910390fd5b80156109ab576000838152601060205260409020600481015460018201546002830154600384015460059094015460ff909316936001600160a01b0390921692909190848015610869575082155b8015610873575081155b156108865761088188612754565b6109a5565b61088f88612b10565b84801561089c5750600081115b801561091757506040516317ebee3760e31b8152600481018290526001600160a01b0385166024820152309063bf5f71b890604401602060405180830381865afa1580156108ee573d6000803e3d6000fd5b505050506040513d601f19601f820116820180604052508101906109129190613d5f565b612710145b156109a557600b546001600160a01b031663b88d4fde336040516001600160e01b031960e084901b1681526001600160a01b039182166004820152908716602482015260448101849052608060648201526000608482015260a401600060405180830381600087803b15801561098c57600080fd5b505af11580156109a0573d6000803e3d6000fd5b505050505b50505050505b50505050565b60606009805480602002602001604051908101604052809291908181526020018280548015610a0957602002820191906000526020600020905b81546001600160a01b031681526001909101906020018083116109eb575b5050505050905090565b606060028054610a2290613d78565b80601f0160208091040260200160405190810160405280929190818152602001828054610a4e90613d78565b8015610a9b5780601f10610a7057610100808354040283529160200191610a9b565b820191906000526020600020905b815481529060010190602001808311610a7e57829003601f168201915b50505050509050919050565b600c546001600160a01b03166324d7806c336040516001600160e01b031960e084901b1681526001600160a01b039091166004820152602401602060405180830381865afa158015610afd573d6000803e3d6000fd5b505050506040513d601f19601f82011682018060405250810190610b219190613db2565b610b3d5760405162461bcd60e51b815260040161081290613dcf565b60008181526010602052604090206001600782015460ff166004811115610b6657610b666135e9565b14610ba95760405162461bcd60e51b815260206004820152601360248201527252657175657374206e6f742070656e64696e6760681b6044820152606401610812565b6007810180546003919060ff19166001835b02179055505050565b600c546001600160a01b03166324d7806c336040516001600160e01b031960e084901b1681526001600160a01b039091166004820152602401602060405180830381865afa158015610c1a573d6000803e3d6000fd5b505050506040513d601f19601f82011682018060405250810190610c3e9190613db2565b610c5a5760405162461bcd60e51b815260040161081290613dcf565b6000818152601160209081526040808320546001600160a01b0316808452600e9092529091205460ff1615610cca5760405162461bcd60e51b8152602060048201526016602482015275141b1bdd08185b1c9958591e48199a5b985b1a5e995960521b6044820152606401610812565b6001600160a01b038181166000818152600e602052604090819020805460ff191660011790556008549051632b2e05c160e01b81529216600483015290632b2e05c190602401600060405180830381600087803b158015610d2a57600080fd5b505af1158015610d3e573d6000803e3d6000fd5b5050600b546001600160a01b031691506323b872dd905030336040516001600160e01b031960e085901b1681526001600160a01b0392831660048201529116602482015260448101859052606401600060405180830381600087803b158015610da657600080fd5b505af1158015610dba573d6000803e3d6000fd5b50505050610e97610dc83390565b6000848152601160209081526040918290206001018054835181840281018401909452808452869392830182828015610e2057602002820191906000526020600020905b815481526020019060010190808311610e0c575b50505060008881526011602090815260409182902060020180548351818402810184019094528084529294509250830182828015610e7d57602002820191906000526020600020905b815481526020019060010190808311610e69575b505050505060405180602001604052806000815250611116565b600082815260116020526040908190209051632187c29560e11b81526001600160a01b0383169163430f852a91610edb916001810191600290910190600401613e3c565b6020604051808303816000875af1158015610efa573d6000803e3d6000fd5b505050506040513d601f19601f82011682018060405250810190610f1e9190613d5f565b505050565b600c546001600160a01b03166324d7806c336040516001600160e01b031960e084901b1681526001600160a01b039091166004820152602401602060405180830381865afa158015610f79573d6000803e3d6000fd5b505050506040513d601f19601f82011682018060405250810190610f9d9190613db2565b610fb95760405162461bcd60e51b815260040161081290613dcf565b600a80546001600160a01b0319166001600160a01b0392909216919091179055565b6040805161016081018252600080825260208201819052918101829052606081018290526080810182905260a0810182905260c0810182905260e081018290526101008101829052610120810182905261014081019190915260008281526010602090815260409182902082516101608101845281546001600160a01b039081168252600183015416928101929092526002810154928201929092526003820154606082015260048083015460ff90811615156080840152600584015460a0840152600684015460c0840152600784015492939260e08501929116908111156110c6576110c66135e9565b60048111156110d7576110d76135e9565b81526007919091015460ff6101008204811615156020840152620100008204811615156040840152630100000090910416151560609091015292915050565b336001600160a01b038616811480159061113757506111358682612677565b155b156111685760405163711bec9160e11b81526001600160a01b03808316600483015287166024820152604401610812565b6111758686868686612cf6565b505050505050565b60008381526011602052604080822054905163835dc40b60e01b8152600481018590526001600160a01b03848116602483015290911690819063835dc40b90604401602060405180830381865afa1580156111dc573d6000803e3d6000fd5b505050506040513d601f19601f820116820180604052508101906112009190613d5f565b95945050505050565b600c546001600160a01b03166324d7806c336040516001600160e01b031960e084901b1681526001600160a01b039091166004820152602401602060405180830381865afa15801561125f573d6000803e3d6000fd5b505050506040513d601f19601f820116820180604052508101906112839190613db2565b61129f5760405162461bcd60e51b815260040161081290613dcf565b600b80546001600160a01b039092166001600160a01b0319928316811790915560078054909216179055565b6000818152600f6020908152604091829020600401805483518184028101840190945280845260609392830182828015610a9b57602002820191906000526020600020905b8154815260200190600101908083116113105750505050509050919050565b606081518351146113605781518351604051635b05999160e01b815260048101929092526024820152604401610812565b600083516001600160401b0381111561137b5761137b6136cb565b6040519080825280602002602001820160405280156113a4578160200160208202803683370190505b50905060005b84518110156113f3576020808202860101516113ce906020808402870101516105bc565b8282815181106113e0576113e0613e61565b60209081029190910101526001016113aa565b509392505050565b600c546001600160a01b03166324d7806c336040516001600160e01b031960e084901b1681526001600160a01b039091166004820152602401602060405180830381865afa158015611451573d6000803e3d6000fd5b505050506040513d601f19601f820116820180604052508101906114759190613db2565b6114915760405162461bcd60e51b815260040161081290613dcf565b600680546001600160a01b0319166001600160a01b0392909216919091179055565b6114e56040518060a0016040528060608152602001606081526020016060815260200160008152602001606081525090565b6000828152600f602052604090819020815160a0810190925280548290829061150d90613d78565b80601f016020809104026020016040519081016040528092919081815260200182805461153990613d78565b80156115865780601f1061155b57610100808354040283529160200191611586565b820191906000526020600020905b81548152906001019060200180831161156957829003601f168201915b5050505050815260200160018201805461159f90613d78565b80601f01602080910402602001604051908101604052809291908181526020018280546115cb90613d78565b80156116185780601f106115ed57610100808354040283529160200191611618565b820191906000526020600020905b8154815290600101906020018083116115fb57829003601f168201915b5050505050815260200160028201805461163190613d78565b80601f016020809104026020016040519081016040528092919081815260200182805461165d90613d78565b80156116aa5780601f1061167f576101008083540402835291602001916116aa565b820191906000526020600020905b81548152906001019060200180831161168d57829003601f168201915b50505050508152602001600382015481526020016004820180548060200260200160405190810160405280929190818152602001828054801561170c57602002820191906000526020600020905b8154815260200190600101908083116116f8575b5050505050815250509050919050565b6000818152600f60205260409020600201805460609190610a2290613d78565b600083815260116020526040908190205490516363319d8d60e01b81526001600160a01b03848116600483015260248201849052606092169081906363319d8d90604401600060405180830381865afa15801561179d573d6000803e3d6000fd5b505050506040513d6000823e601f3d908101601f191682016040526112009190810190613e77565b600c5460009081906001600160a01b03166324d7806c336040516001600160e01b031960e084901b1681526001600160a01b039091166004820152602401602060405180830381865afa158015611820573d6000803e3d6000fd5b505050506040513d601f19601f820116820180604052508101906118449190613db2565b6118605760405162461bcd60e51b815260040161081290613dcf565b50506004546003549091565b611877338383612d5d565b5050565b6009818154811061188b57600080fd5b6000918252602090912001546001600160a01b0316905081565b600082815260116020526040908190205490516309771aed60e41b8152600481018390526060916001600160a01b0316908190639771aed090602401600060405180830381865afa1580156118fe573d6000803e3d6000fd5b505050506040513d6000823e601f3d908101601f191682016040526119269190810190613f07565b949350505050565b80611961578361193e33876105bc565b101561195c5760405162461bcd60e51b815260040161081290613f95565b61198b565b8361196d83873361117d565b101561198b5760405162461bcd60e51b815260040161081290613f95565b6005805490600061199b83613fd7565b909155505060055460408051610160810182523381526001600160a01b038616602082015290810187905260608101869052821515608082015260a081018490524260c082015260e081016001815260006020808301829052604080840183905260609384018390528583526010825291829020845181546001600160a01b039182166001600160a01b03199182161783559286015160018381018054929093169190941617905591840151600283015591830151600382015560808301516004808301805492151560ff1993841617905560a0850151600584015560c0850151600684015560e085015160078401805494959194909316918490811115611aa557611aa56135e9565b0217905550610100828101516007909201805461012085015161014090950151151563010000000263ff00000019951515620100000262ff0000199515159094029490941662ffff00199091161791909117929092161790556000611b073390565b6001600160a01b0316827f4595add82735fb552f64748fc031bd6e53c364da7faac5ce52e2ee48c943b7d389898789604051611b5e9493929190938452602084019290925215156040830152606082015260800190565b60405180910390a4505050505050565b600082815260116020526040808220549051630447b88d60e51b8152600481018490526001600160a01b039091169081906388f711a0906024015b602060405180830381865afa158015611bc6573d6000803e3d6000fd5b505050506040513d601f19601f820116820180604052508101906119269190613d5f565b60008281526011602052604080822054905163145263fd60e31b81526001600160a01b03848116600483015290911690819063a2931fe890602401611ba9565b611c57604051806060016040528060006001600160a01b0316815260200160608152602001606081525090565b600082815260116020908152604091829020825160608101845281546001600160a01b0316815260018201805485518186028101860190965280865291949293858101939290830182828015611ccc57602002820191906000526020600020905b815481526020019060010190808311611cb8575b505050505081526020016002820180548060200260200160405190810160405280929190818152602001828054801561170c57602002820191906000526020600020908154815260200190600101908083116116f8575050505050815250509050919050565b33600b546040516331a9108f60e11b8152600481018590526001600160a01b039283169290911690636352211e90602401602060405180830381865afa158015611d80573d6000803e3d6000fd5b505050506040513d601f19601f82011682018060405250810190611da49190613ff0565b6001600160a01b031614611df65760405162461bcd60e51b8152602060048201526019602482015278139bdd081d1a19481bdddb995c881bd9881d1a19481c1b1bdd603a1b6044820152606401610812565b6000828152601160205260409020546001600160a01b031663a2931fe8336040516001600160e01b031960e084901b1681526001600160a01b039091166004820152602401602060405180830381865afa158015611e58573d6000803e3d6000fd5b505050506040513d601f19601f82011682018060405250810190611e7c9190613d5f565b61271014611edb5760405162461bcd60e51b815260206004820152602660248201527f5573657220646f6573206e6f742068617665207468652066756c6c206f776e6560448201526503939b434b8160d51b6064820152608401610812565b60058054906000611eeb83613fd7565b909155505060055460408051610160810182523381526001600160a01b03841660208201526000918101829052606081019190915260016080820181905260a082018590524260c083015260e0820190815260006020808301829052604080840183905260609384018390528583526010825291829020845181546001600160a01b039182166001600160a01b03199182161783559286015160018381018054929093169190941617905591840151600283015591830151600382015560808301516004808301805492151560ff1993841617905560a0850151600584015560c0850151600684015560e085015160078401805494959194909316918490811115611ff857611ff86135e9565b0217905550610100828101516007909201805461012085015161014090950151151563010000000263ff00000019951515620100000262ff0000199515159094029490941662ffff0019909116179190911792909216179055600061205a3390565b60408051600080825260208201526001818301526060810187905290516001600160a01b03929092169184917f4595add82735fb552f64748fc031bd6e53c364da7faac5ce52e2ee48c943b7d3919081900360800190a4505050565b600c546001600160a01b03166324d7806c336040516001600160e01b031960e084901b1681526001600160a01b039091166004820152602401602060405180830381865afa15801561210c573d6000803e3d6000fd5b505050506040513d601f19601f820116820180604052508101906121309190613db2565b61214c5760405162461bcd60e51b815260040161081290613dcf565b60005b82518110156121c15781818151811061216a5761216a613e61565b602002602001015161219b61217c3390565b85848151811061218e5761218e613e61565b60200260200101516105bc565b10156121b95760405162461bcd60e51b815260040161081290613f95565b60010161214f565b50600480549060006121d283613fd7565b90915550506004805460075460405163af3dd63960e01b815292830182905230602484015290916001600160a01b039091169063af3dd639906044016020604051808303816000875af115801561222d573d6000803e3d6000fd5b505050506040513d601f19601f820116820180604052508101906122519190613d5f565b50600a54600754604051630fcb200d60e21b81526001600160a01b0391821660048201526024810184905260606044820152600060648201819052929190911690633f2c8034906084016020604051808303816000875af11580156122ba573d6000803e3d6000fd5b505050506040513d601f19601f820116820180604052508101906122de9190613ff0565b604080516060810182526001600160a01b038381168252602080830189815283850189905260008881526011835294909420835181546001600160a01b03191693169290921782559251805194955091939092612342926001850192910190613352565b506040820151805161235e916002840191602090910190613352565b5090505060005b84518110156123c057600f600086838151811061238457612384613e61565b60209081029190910181015182528181019290925260400160009081206004018054600181810183559183529290912090910184905501612365565b50600980546001810182556000919091527f6e1540171b6c0c960b71a7020d9f60077f6af931a8bbf590da0223dacf75c7af0180546001600160a01b0319166001600160a01b0383161790556040517f915708fb7ee5da90b08a28b58664546eae63c0680f363ea2cc38c345f5be2940906124409086908690429061400d565b60405180910390a150505050565b600c546000906001600160a01b03166324d7806c336040516001600160e01b031960e084901b1681526001600160a01b039091166004820152602401602060405180830381865afa1580156124a7573d6000803e3d6000fd5b505050506040513d601f19601f820116820180604052508101906124cb9190613db2565b6124e75760405162461bcd60e51b815260040161081290613dcf565b600082116125435760405162461bcd60e51b815260206004820152602360248201527f546f74616c20737570706c79206d75737420626520677265617465722074686160448201526206e20360ec1b6064820152608401610812565b6003805490600061255383613fd7565b9091555050600354600654604080516020810190915260008152612584916001600160a01b03169083908690612df3565b6000818152600f6020526040902061259c878261408b565b506000818152600f602052604090206001016125b8868261408b565b506000818152600f602052604090206002016125d4858261408b565b506000818152600f6020526040908190206003908101859055549051600d906125fe90899061414a565b90815260200160405180910390208660405161261a919061414a565b9081526020016040518091039020819055506003547fa09f8ded7663b6558550b417380d535c092265d90b5415bd6d16d8c95b027d1387878660405161266293929190614166565b60405180910390a25050600354949350505050565b6001600160a01b03918216600090815260016020908152604080832093909416825291909152205460ff1690565b336001600160a01b03861681148015906126c657506126c48682612677565b155b156126f75760405163711bec9160e11b81526001600160a01b03808316600483015287166024820152604401610812565b6111758686868686612e50565b60006001600160e01b03198216636cdb3d1360e11b148061273557506001600160e01b031982166303a24d0760e21b145b806105de57506301ffc9a760e01b6001600160e01b03198316146105de565b60008181526010602052604090819020600b548154925163e985e9c560e01b81526001600160a01b0393841660048201523060248201529192169063e985e9c590604401602060405180830381865afa1580156127b5573d6000803e3d6000fd5b505050506040513d601f19601f820116820180604052508101906127d99190613db2565b8061285d5750600b54600582015460405163020604bf60e21b8152600481019190915230916001600160a01b03169063081812fc90602401602060405180830381865afa15801561282e573d6000803e3d6000fd5b505050506040513d601f19601f820116820180604052508101906128529190613ff0565b6001600160a01b0316145b6128bc5760405162461bcd60e51b815260206004820152602a60248201527f436f6e7472616374206e6f7420617070726f76656420746f207472616e7366656044820152691c881c1b1bdd0813919560b21b6064820152608401610812565b8054600b5460058301546040516331a9108f60e11b815260048101919091526001600160a01b039283169290911690636352211e90602401602060405180830381865afa158015612911573d6000803e3d6000fd5b505050506040513d601f19601f820116820180604052508101906129359190613ff0565b6001600160a01b0316146129875760405162461bcd60e51b8152602060048201526019602482015278139bdd081d1a19481bdddb995c881bd9881d1a19481c1b1bdd603a1b6044820152606401610812565b6002600782015460ff1660048111156129a2576129a26135e9565b146129e65760405162461bcd60e51b815260206004820152601460248201527314995c5d595cdd081b9bdd08185c1c1c9bdd995960621b6044820152606401610812565b6005810154600090815260116020526040908190205482546001840154925163b061ce0560e01b81526001600160a01b0391821660048201529281166024840152169063b061ce05906044016020604051808303816000875af1158015612a51573d6000803e3d6000fd5b505050506040513d601f19601f82011682018060405250810190612a759190613db2565b50600b54815460018301546005840154604051635c46a7ef60e11b81526001600160a01b03938416600482015291831660248301526044820152608060648201526000608482015291169063b88d4fde9060a401600060405180830381600087803b158015612ae357600080fd5b505af1158015612af7573d6000803e3d6000fd5b5050506007820180546004925060ff1916600183610bbb565b60008181526010602052604090206002600782015460ff166004811115612b3957612b396135e9565b14612b7d5760405162461bcd60e51b815260206004820152601460248201527314995c5d595cdd081b9bdd08185c1c1c9bdd995960621b6044820152606401610812565b600481015460ff1615612c45576005810154600090815260116020526040908190205482546001840154600285015460038601549451632f80af0f60e21b81526001600160a01b039384166004820152918316602483015260448201526064810193909352169063be02bc3c906084016020604051808303816000875af1158015612c0c573d6000803e3d6000fd5b505050506040513d601f19601f82011682018060405250810190612c309190613db2565b5060078101805460ff19166004179055612c8e565b8054600182015460028301546003840154604080516020810190915260008152612c7e946001600160a01b0390811694169291906126a5565b60078101805460ff191660041790555b60018101548154600554600284015460038501546040516001600160a01b039586169594909416937fc6dd6857b8ac04586ee065e8ee95def9aaebf505c92d9a01be171df17b97798e92612cea92908252602082015260400190565b60405180910390a45050565b6001600160a01b038416612d2057604051632bfa23e760e11b815260006004820152602401610812565b6001600160a01b038516612d4957604051626a0d4560e21b815260006004820152602401610812565b612d568585858585612ede565b5050505050565b6001600160a01b038216612d865760405162ced3e160e81b815260006004820152602401610812565b6001600160a01b03838116600081815260016020908152604080832094871680845294825291829020805460ff191686151590811790915591519182527f17307eab39ab6107e8899845ad3d59bd9653f200f220920489ca2b5937696c31910160405180910390a3505050565b6001600160a01b038416612e1d57604051632bfa23e760e11b815260006004820152602401610812565b60408051600180825260208201869052818301908152606082018590526080820190925290611175600087848487612ede565b6001600160a01b038416612e7a57604051632bfa23e760e11b815260006004820152602401610812565b6001600160a01b038516612ea357604051626a0d4560e21b815260006004820152602401610812565b60408051600180825260208201869052818301908152606082018590526080820190925290612ed58787848487612ede565b50505050505050565b612eea85858585612f31565b6001600160a01b03841615612d565782513390600103612f235760208481015190840151612f1c838989858589613145565b5050611175565b611175818787878787613269565b8051825114612f605781518151604051635b05999160e01b815260048101929092526024820152604401610812565b3360005b8351811015613066576020818102858101820151908501909101516001600160a01b03881615613017576000828152602081815260408083206001600160a01b038c16845290915290205481811015612ff0576040516303dee4c560e01b81526001600160a01b038a166004820152602481018290526044810183905260648101849052608401610812565b6000838152602081815260408083206001600160a01b038d16845290915290209082900390555b6001600160a01b0387161561305c576000828152602081815260408083206001600160a01b038b1684529091528120805483929061305690849061418b565b90915550505b5050600101612f64565b5082516001036130e75760208301516000906020840151909150856001600160a01b0316876001600160a01b0316846001600160a01b03167fc3d58168c5ae7397731d063d5bbf3d657854427343f4c083240f7aacaa2d0f6285856040516130d8929190918252602082015260400190565b60405180910390a45050612d56565b836001600160a01b0316856001600160a01b0316826001600160a01b03167f4a39dc06d4c0dbc64b70af90fd698a233a518aa5d07e595d983b8c0526c8f7fb868660405161313692919061419e565b60405180910390a45050505050565b6001600160a01b0384163b156111755760405163f23a6e6160e01b81526001600160a01b0385169063f23a6e619061318990899089908890889088906004016141c3565b6020604051808303816000875af19250505080156131c4575060408051601f3d908101601f191682019092526131c1918101906141fd565b60015b61322d573d8080156131f2576040519150601f19603f3d011682016040523d82523d6000602084013e6131f7565b606091505b50805160000361322557604051632bfa23e760e11b81526001600160a01b0386166004820152602401610812565b805181602001fd5b6001600160e01b0319811663f23a6e6160e01b14612ed557604051632bfa23e760e11b81526001600160a01b0386166004820152602401610812565b6001600160a01b0384163b156111755760405163bc197c8160e01b81526001600160a01b0385169063bc197c81906132ad908990899088908890889060040161421a565b6020604051808303816000875af19250505080156132e8575060408051601f3d908101601f191682019092526132e5918101906141fd565b60015b613316573d8080156131f2576040519150601f19603f3d011682016040523d82523d6000602084013e6131f7565b6001600160e01b0319811663bc197c8160e01b14612ed557604051632bfa23e760e11b81526001600160a01b0386166004820152602401610812565b82805482825590600052602060002090810192821561338d579160200282015b8281111561338d578251825591602001919060010190613372565b5061339992915061339d565b5090565b5b80821115613399576000815560010161339e565b6001600160a01b03811681146133c757600080fd5b50565b600080604083850312156133dd57600080fd5b82356133e8816133b2565b946020939093013593505050565b6001600160e01b0319811681146133c757600080fd5b60006020828403121561341e57600080fd5b8135613429816133f6565b9392505050565b60008060006060848603121561344557600080fd5b8335613450816133b2565b95602085013595506040909401359392505050565b6020808252825182820181905260009190848201906040850190845b818110156134a65783516001600160a01b031683529284019291840191600101613481565b50909695505050505050565b6000602082840312156134c457600080fd5b5035919050565b60005b838110156134e65781810151838201526020016134ce565b50506000910152565b600081518084526135078160208601602086016134cb565b601f01601f19169290920160200192915050565b60208152600061342960208301846134ef565b60008060008060006080868803121561354657600080fd5b8535613551816133b2565b94506020860135613561816133b2565b93506040860135925060608601356001600160401b038082111561358457600080fd5b818801915088601f83011261359857600080fd5b8135818111156135a757600080fd5b8960208285010111156135b957600080fd5b9699959850939650602001949392505050565b6000602082840312156135de57600080fd5b8135613429816133b2565b634e487b7160e01b600052602160045260246000fd5b6005811061361d57634e487b7160e01b600052602160045260246000fd5b9052565b81516001600160a01b031681526101608101602083015161364d60208401826001600160a01b03169052565b5060408301516040830152606083015160608301526080830151613675608084018215159052565b5060a083015160a083015260c083015160c083015260e083015161369c60e08401826135ff565b506101008381015115159083015261012080840151151590830152610140928301511515929091019190915290565b634e487b7160e01b600052604160045260246000fd5b604051601f8201601f191681016001600160401b0381118282101715613709576137096136cb565b604052919050565b60006001600160401b0382111561372a5761372a6136cb565b5060051b60200190565b600082601f83011261374557600080fd5b8135602061375a61375583613711565b6136e1565b8083825260208201915060208460051b87010193508684111561377c57600080fd5b602086015b848110156137985780358352918301918301613781565b509695505050505050565b600082601f8301126137b457600080fd5b81356001600160401b038111156137cd576137cd6136cb565b6137e0601f8201601f19166020016136e1565b8181528460208386010111156137f557600080fd5b816020850160208301376000918101602001919091529392505050565b600080600080600060a0868803121561382a57600080fd5b8535613835816133b2565b94506020860135613845816133b2565b935060408601356001600160401b038082111561386157600080fd5b61386d89838a01613734565b9450606088013591508082111561388357600080fd5b61388f89838a01613734565b935060808801359150808211156138a557600080fd5b506138b2888289016137a3565b9150509295509295909350565b6000806000606084860312156138d457600080fd5b833592506020840135915060408401356138ed816133b2565b809150509250925092565b60008151808452602080850194506020840160005b838110156139295781518752958201959082019060010161390d565b509495945050505050565b60208152600061342960208301846138f8565b6000806040838503121561395a57600080fd5b82356001600160401b038082111561397157600080fd5b818501915085601f83011261398557600080fd5b8135602061399561375583613711565b82815260059290921b840181019181810190898411156139b457600080fd5b948201945b838610156139db5785356139cc816133b2565b825294820194908201906139b9565b965050860135925050808211156139f157600080fd5b506139fe85828601613734565b9150509250929050565b602081526000825160a06020840152613a2460c08401826134ef565b90506020840151601f1980858403016040860152613a4283836134ef565b92506040860151915080858403016060860152613a5f83836134ef565b92506060860151608086015260808601519150808584030160a08601525061120082826138f8565b600080600060608486031215613a9c57600080fd5b833592506020840135613aae816133b2565b929592945050506040919091013590565b80151581146133c757600080fd5b60008060408385031215613ae057600080fd5b8235613aeb816133b2565b91506020830135613afb81613abf565b809150509250929050565b60008060408385031215613b1957600080fd5b50508035926020909101359150565b600080600080600060a08688031215613b4057600080fd5b85359450602086013593506040860135613b59816133b2565b9250606086013591506080860135613b7081613abf565b809150509295509295909350565b60008060408385031215613b9157600080fd5b823591506020830135613afb816133b2565b602080825282516001600160a01b03168282015282015160606040830152600090613bd160808401826138f8565b90506040840151601f1984830301606085015261120082826138f8565b60008060408385031215613c0157600080fd5b82356001600160401b0380821115613c1857600080fd5b613c2486838701613734565b935060208501359150808211156139f157600080fd5b60008060008060808587031215613c5057600080fd5b84356001600160401b0380821115613c6757600080fd5b613c73888389016137a3565b95506020870135915080821115613c8957600080fd5b613c95888389016137a3565b94506040870135915080821115613cab57600080fd5b50613cb8878288016137a3565b949793965093946060013593505050565b60008060408385031215613cdc57600080fd5b8235613ce7816133b2565b91506020830135613afb816133b2565b600080600080600060a08688031215613d0f57600080fd5b8535613d1a816133b2565b94506020860135613d2a816133b2565b9350604086013592506060860135915060808601356001600160401b03811115613d5357600080fd5b6138b2888289016137a3565b600060208284031215613d7157600080fd5b5051919050565b600181811c90821680613d8c57607f821691505b602082108103613dac57634e487b7160e01b600052602260045260246000fd5b50919050565b600060208284031215613dc457600080fd5b815161342981613abf565b6020808252601c908201527f4c616e644d616e6167656d656e743a204e6f7420616e2061646d696e00000000604082015260600190565b600081548084526020808501945083600052602060002060005b8381101561392957815487529582019560019182019101613e20565b604081526000613e4f6040830185613e06565b82810360208401526112008185613e06565b634e487b7160e01b600052603260045260246000fd5b60006020808385031215613e8a57600080fd5b82516001600160401b03811115613ea057600080fd5b8301601f81018513613eb157600080fd5b8051613ebf61375582613711565b81815260059190911b82018301908381019087831115613ede57600080fd5b928401925b82841015613efc57835182529284019290840190613ee3565b979650505050505050565b60006020808385031215613f1a57600080fd5b82516001600160401b03811115613f3057600080fd5b8301601f81018513613f4157600080fd5b8051613f4f61375582613711565b81815260059190911b82018301908381019087831115613f6e57600080fd5b928401925b82841015613efc578351613f86816133b2565b82529284019290840190613f73565b6020808252601290820152714e6f7420656e6f7567682062616c616e636560701b604082015260600190565b634e487b7160e01b600052601160045260246000fd5b600060018201613fe957613fe9613fc1565b5060010190565b60006020828403121561400257600080fd5b8151613429816133b2565b60608152600061402060608301866138f8565b828103602084015261403281866138f8565b915050826040830152949350505050565b601f821115610f1e576000816000526020600020601f850160051c8101602086101561406c5750805b601f850160051c820191505b8181101561117557828155600101614078565b81516001600160401b038111156140a4576140a46136cb565b6140b8816140b28454613d78565b84614043565b602080601f8311600181146140ed57600084156140d55750858301515b600019600386901b1c1916600185901b178555611175565b600085815260208120601f198616915b8281101561411c578886015182559484019460019091019084016140fd565b508582101561413a5787850151600019600388901b60f8161c191681555b5050505050600190811b01905550565b6000825161415c8184602087016134cb565b9190910192915050565b60608152600061417960608301866134ef565b828103602084015261403281866134ef565b808201808211156105de576105de613fc1565b6040815260006141b160408301856138f8565b828103602084015261120081856138f8565b6001600160a01b03868116825285166020820152604081018490526060810183905260a060808201819052600090613efc908301846134ef565b60006020828403121561420f57600080fd5b8151613429816133f6565b6001600160a01b0386811682528516602082015260a060408201819052600090614246908301866138f8565b828103606084015261425881866138f8565b9050828103608084015261426c81856134ef565b9897505050505050505056fea26469706673582212201d3629fe6edd000ca1c0dcd8cb09684caf85550038aec11fd44a26935bc7fcab64736f6c63430008190033",
  "linkReferences": {},
  "deployedLinkReferences": {}
}