{
  "_format": "hh-sol-artifact-1",
  "contractName": "LandAssetManager",
  "sourceName": "contracts/LandAssetManager.sol",
  "abi": [
    {
      "inputs": [
        {
          "internalType": "string",
          "name": "uri",
          "type": "string"
        },
        {
          "internalType": "address",
          "name": "_auth",
          "type": "address"
        },
        {
          "internalType": "address",
          "name": "_plotRegistry",
          "type": "address"
        },
        {
          "internalType": "address",
          "name": "_plotOwnership",
          "type": "address"
        }
      ],
      "stateMutability": "nonpayable",
      "type": "constructor"
    },
    {
      "inputs": [
        {
          "internalType": "address",
          "name": "sender",
          "type": "address"
        },
        {
          "internalType": "uint256",
          "name": "balance",
          "type": "uint256"
        },
        {
          "internalType": "uint256",
          "name": "needed",
          "type": "uint256"
        },
        {
          "internalType": "uint256",
          "name": "tokenId",
          "type": "uint256"
        }
      ],
      "name": "ERC1155InsufficientBalance",
      "type": "error"
    },
    {
      "inputs": [
        {
          "internalType": "address",
          "name": "approver",
          "type": "address"
        }
      ],
      "name": "ERC1155InvalidApprover",
      "type": "error"
    },
    {
      "inputs": [
        {
          "internalType": "uint256",
          "name": "idsLength",
          "type": "uint256"
        },
        {
          "internalType": "uint256",
          "name": "valuesLength",
          "type": "uint256"
        }
      ],
      "name": "ERC1155InvalidArrayLength",
      "type": "error"
    },
    {
      "inputs": [
        {
          "internalType": "address",
          "name": "operator",
          "type": "address"
        }
      ],
      "name": "ERC1155InvalidOperator",
      "type": "error"
    },
    {
      "inputs": [
        {
          "internalType": "address",
          "name": "receiver",
          "type": "address"
        }
      ],
      "name": "ERC1155InvalidReceiver",
      "type": "error"
    },
    {
      "inputs": [
        {
          "internalType": "address",
          "name": "sender",
          "type": "address"
        }
      ],
      "name": "ERC1155InvalidSender",
      "type": "error"
    },
    {
      "inputs": [
        {
          "internalType": "address",
          "name": "operator",
          "type": "address"
        },
        {
          "internalType": "address",
          "name": "owner",
          "type": "address"
        }
      ],
      "name": "ERC1155MissingApprovalForAll",
      "type": "error"
    },
    {
      "anonymous": false,
      "inputs": [
        {
          "indexed": true,
          "internalType": "address",
          "name": "account",
          "type": "address"
        },
        {
          "indexed": true,
          "internalType": "address",
          "name": "operator",
          "type": "address"
        },
        {
          "indexed": false,
          "internalType": "bool",
          "name": "approved",
          "type": "bool"
        }
      ],
      "name": "ApprovalForAll",
      "type": "event"
    },
    {
      "anonymous": false,
      "inputs": [
        {
          "indexed": false,
          "internalType": "uint256[]",
          "name": "parcelIds",
          "type": "uint256[]"
        },
        {
          "indexed": false,
          "internalType": "uint256[]",
          "name": "parcelAmount",
          "type": "uint256[]"
        },
        {
          "indexed": false,
          "internalType": "uint256",
          "name": "timestamp",
          "type": "uint256"
        }
      ],
      "name": "PlotCreated",
      "type": "event"
    },
    {
      "anonymous": false,
      "inputs": [
        {
          "indexed": true,
          "internalType": "uint256",
          "name": "tokenId",
          "type": "uint256"
        },
        {
          "indexed": false,
          "internalType": "string",
          "name": "blockInfo",
          "type": "string"
        },
        {
          "indexed": false,
          "internalType": "string",
          "name": "parcelInfo",
          "type": "string"
        },
        {
          "indexed": false,
          "internalType": "uint256",
          "name": "totalSupply",
          "type": "uint256"
        }
      ],
      "name": "TokenCreated",
      "type": "event"
    },
    {
      "anonymous": false,
      "inputs": [
        {
          "indexed": true,
          "internalType": "uint256",
          "name": "requestId",
          "type": "uint256"
        },
        {
          "indexed": true,
          "internalType": "address",
          "name": "approver",
          "type": "address"
        },
        {
          "indexed": false,
          "internalType": "uint256",
          "name": "role",
          "type": "uint256"
        },
        {
          "indexed": false,
          "internalType": "bool",
          "name": "isFullyApproved",
          "type": "bool"
        },
        {
          "indexed": false,
          "internalType": "uint256",
          "name": "timestamp",
          "type": "uint256"
        }
      ],
      "name": "TransferApproved",
      "type": "event"
    },
    {
      "anonymous": false,
      "inputs": [
        {
          "indexed": true,
          "internalType": "address",
          "name": "operator",
          "type": "address"
        },
        {
          "indexed": true,
          "internalType": "address",
          "name": "from",
          "type": "address"
        },
        {
          "indexed": true,
          "internalType": "address",
          "name": "to",
          "type": "address"
        },
        {
          "indexed": false,
          "internalType": "uint256[]",
          "name": "ids",
          "type": "uint256[]"
        },
        {
          "indexed": false,
          "internalType": "uint256[]",
          "name": "values",
          "type": "uint256[]"
        }
      ],
      "name": "TransferBatch",
      "type": "event"
    },
    {
      "anonymous": false,
      "inputs": [
        {
          "indexed": true,
          "internalType": "uint256",
          "name": "requestId",
          "type": "uint256"
        },
        {
          "indexed": true,
          "internalType": "address",
          "name": "from",
          "type": "address"
        },
        {
          "indexed": true,
          "internalType": "address",
          "name": "to",
          "type": "address"
        },
        {
          "indexed": false,
          "internalType": "uint256",
          "name": "tokenId",
          "type": "uint256"
        },
        {
          "indexed": false,
          "internalType": "uint256",
          "name": "amount",
          "type": "uint256"
        }
      ],
      "name": "TransferExecuted",
      "type": "event"
    },
    {
      "anonymous": false,
      "inputs": [
        {
          "indexed": true,
          "internalType": "uint256",
          "name": "requestId",
          "type": "uint256"
        },
        {
          "indexed": true,
          "internalType": "address",
          "name": "from",
          "type": "address"
        },
        {
          "indexed": true,
          "internalType": "address",
          "name": "to",
          "type": "address"
        },
        {
          "indexed": false,
          "internalType": "uint256",
          "name": "tokenId",
          "type": "uint256"
        },
        {
          "indexed": false,
          "internalType": "uint256",
          "name": "amount",
          "type": "uint256"
        },
        {
          "indexed": false,
          "internalType": "bool",
          "name": "isPlotTransfer",
          "type": "bool"
        },
        {
          "indexed": false,
          "internalType": "uint256",
          "name": "plotId",
          "type": "uint256"
        }
      ],
      "name": "TransferRequestCreated",
      "type": "event"
    },
    {
      "anonymous": false,
      "inputs": [
        {
          "indexed": true,
          "internalType": "address",
          "name": "operator",
          "type": "address"
        },
        {
          "indexed": true,
          "internalType": "address",
          "name": "from",
          "type": "address"
        },
        {
          "indexed": true,
          "internalType": "address",
          "name": "to",
          "type": "address"
        },
        {
          "indexed": false,
          "internalType": "uint256",
          "name": "id",
          "type": "uint256"
        },
        {
          "indexed": false,
          "internalType": "uint256",
          "name": "value",
          "type": "uint256"
        }
      ],
      "name": "TransferSingle",
      "type": "event"
    },
    {
      "anonymous": false,
      "inputs": [
        {
          "indexed": false,
          "internalType": "string",
          "name": "value",
          "type": "string"
        },
        {
          "indexed": true,
          "internalType": "uint256",
          "name": "id",
          "type": "uint256"
        }
      ],
      "name": "URI",
      "type": "event"
    },
    {
      "inputs": [],
      "name": "auth",
      "outputs": [
        {
          "internalType": "contract IAuth",
          "name": "",
          "type": "address"
        }
      ],
      "stateMutability": "view",
      "type": "function"
    },
    {
      "inputs": [
        {
          "internalType": "address",
          "name": "account",
          "type": "address"
        },
        {
          "internalType": "uint256",
          "name": "id",
          "type": "uint256"
        }
      ],
      "name": "balanceOf",
      "outputs": [
        {
          "internalType": "uint256",
          "name": "",
          "type": "uint256"
        }
      ],
      "stateMutability": "view",
      "type": "function"
    },
    {
      "inputs": [
        {
          "internalType": "address[]",
          "name": "accounts",
          "type": "address[]"
        },
        {
          "internalType": "uint256[]",
          "name": "ids",
          "type": "uint256[]"
        }
      ],
      "name": "balanceOfBatch",
      "outputs": [
        {
          "internalType": "uint256[]",
          "name": "",
          "type": "uint256[]"
        }
      ],
      "stateMutability": "view",
      "type": "function"
    },
    {
      "inputs": [
        {
          "internalType": "string",
          "name": "blockInfo",
          "type": "string"
        },
        {
          "internalType": "string",
          "name": "parcelInfo",
          "type": "string"
        },
        {
          "internalType": "string",
          "name": "tokenURI",
          "type": "string"
        },
        {
          "internalType": "uint256",
          "name": "totalSupply",
          "type": "uint256"
        }
      ],
      "name": "createBlockParcelToken",
      "outputs": [
        {
          "internalType": "uint256",
          "name": "",
          "type": "uint256"
        }
      ],
      "stateMutability": "nonpayable",
      "type": "function"
    },
    {
      "inputs": [],
      "name": "currentTokenId",
      "outputs": [
        {
          "internalType": "uint256",
          "name": "",
          "type": "uint256"
        }
      ],
      "stateMutability": "view",
      "type": "function"
    },
    {
      "inputs": [
        {
          "internalType": "address",
          "name": "signerWallet",
          "type": "address"
        },
        {
          "internalType": "uint256",
          "name": "requestIdForApproval",
          "type": "uint256"
        },
        {
          "internalType": "uint256",
          "name": "_role",
          "type": "uint256"
        }
      ],
      "name": "delegateApproveAndTransfer",
      "outputs": [],
      "stateMutability": "nonpayable",
      "type": "function"
    },
    {
      "inputs": [
        {
          "internalType": "uint256",
          "name": "_plotId",
          "type": "uint256"
        }
      ],
      "name": "getAllParcelIds",
      "outputs": [
        {
          "internalType": "uint256[]",
          "name": "",
          "type": "uint256[]"
        }
      ],
      "stateMutability": "view",
      "type": "function"
    },
    {
      "inputs": [
        {
          "internalType": "uint256",
          "name": "_tokenId",
          "type": "uint256"
        }
      ],
      "name": "getBlockParcelTokenURI",
      "outputs": [
        {
          "internalType": "string",
          "name": "",
          "type": "string"
        }
      ],
      "stateMutability": "view",
      "type": "function"
    },
    {
      "inputs": [],
      "name": "getCurrentPlotAndTokenIdInfo",
      "outputs": [
        {
          "internalType": "uint256",
          "name": "",
          "type": "uint256"
        },
        {
          "internalType": "uint256",
          "name": "",
          "type": "uint256"
        }
      ],
      "stateMutability": "view",
      "type": "function"
    },
    {
      "inputs": [
        {
          "internalType": "uint256",
          "name": "_tokenId",
          "type": "uint256"
        }
      ],
      "name": "getLandInfo",
      "outputs": [
        {
          "components": [
            {
              "internalType": "string",
              "name": "blockInfo",
              "type": "string"
            },
            {
              "internalType": "string",
              "name": "parcelInfo",
              "type": "string"
            },
            {
              "internalType": "string",
              "name": "blockParcelTokenURI",
              "type": "string"
            },
            {
              "internalType": "uint256",
              "name": "totalSupply",
              "type": "uint256"
            },
            {
              "internalType": "uint256[]",
              "name": "plotAllocation",
              "type": "uint256[]"
            }
          ],
          "internalType": "struct LandAssetManager.LandInfo",
          "name": "",
          "type": "tuple"
        }
      ],
      "stateMutability": "view",
      "type": "function"
    },
    {
      "inputs": [],
      "name": "getListOfTotalPlots",
      "outputs": [
        {
          "internalType": "address[]",
          "name": "",
          "type": "address[]"
        }
      ],
      "stateMutability": "view",
      "type": "function"
    },
    {
      "inputs": [
        {
          "internalType": "uint256",
          "name": "_plotId",
          "type": "uint256"
        },
        {
          "internalType": "address",
          "name": "_user",
          "type": "address"
        }
      ],
      "name": "getOwnershipPercentage",
      "outputs": [
        {
          "internalType": "uint256",
          "name": "",
          "type": "uint256"
        }
      ],
      "stateMutability": "view",
      "type": "function"
    },
    {
      "inputs": [
        {
          "internalType": "uint256",
          "name": "_plotId",
          "type": "uint256"
        }
      ],
      "name": "getPlotAccountInfo",
      "outputs": [
        {
          "components": [
            {
              "internalType": "address",
              "name": "plotAccount",
              "type": "address"
            },
            {
              "internalType": "uint256[]",
              "name": "parcelIds",
              "type": "uint256[]"
            },
            {
              "internalType": "uint256[]",
              "name": "parcelAmounts",
              "type": "uint256[]"
            }
          ],
          "internalType": "struct LandAssetManager.PlotInfo",
          "name": "",
          "type": "tuple"
        }
      ],
      "stateMutability": "view",
      "type": "function"
    },
    {
      "inputs": [
        {
          "internalType": "uint256",
          "name": "_plotId",
          "type": "uint256"
        },
        {
          "internalType": "uint256",
          "name": "_parcelId",
          "type": "uint256"
        }
      ],
      "name": "getPlotAccountParcelShareholders",
      "outputs": [
        {
          "internalType": "address[]",
          "name": "",
          "type": "address[]"
        }
      ],
      "stateMutability": "view",
      "type": "function"
    },
    {
      "inputs": [
        {
          "internalType": "uint256",
          "name": "_plotId",
          "type": "uint256"
        },
        {
          "internalType": "uint256",
          "name": "_parcelId",
          "type": "uint256"
        }
      ],
      "name": "getPlotAccountParcelTotalShares",
      "outputs": [
        {
          "internalType": "uint256",
          "name": "",
          "type": "uint256"
        }
      ],
      "stateMutability": "view",
      "type": "function"
    },
    {
      "inputs": [
        {
          "internalType": "uint256",
          "name": "_plotId",
          "type": "uint256"
        },
        {
          "internalType": "address",
          "name": "_user",
          "type": "address"
        }
      ],
      "name": "getPlotAccountUserParcels",
      "outputs": [
        {
          "internalType": "uint256[]",
          "name": "",
          "type": "uint256[]"
        }
      ],
      "stateMutability": "view",
      "type": "function"
    },
    {
      "inputs": [
        {
          "internalType": "uint256",
          "name": "_plotId",
          "type": "uint256"
        },
        {
          "internalType": "uint256",
          "name": "_parcelId",
          "type": "uint256"
        },
        {
          "internalType": "address",
          "name": "_user",
          "type": "address"
        }
      ],
      "name": "getPlotAccountUserShares",
      "outputs": [
        {
          "internalType": "uint256",
          "name": "",
          "type": "uint256"
        }
      ],
      "stateMutability": "view",
      "type": "function"
    },
    {
      "inputs": [
        {
          "internalType": "uint256",
          "name": "_tokenId",
          "type": "uint256"
        }
      ],
      "name": "getPlotAllocation",
      "outputs": [
        {
          "internalType": "uint256[]",
          "name": "",
          "type": "uint256[]"
        }
      ],
      "stateMutability": "view",
      "type": "function"
    },
    {
      "inputs": [
        {
          "internalType": "address",
          "name": "account",
          "type": "address"
        },
        {
          "internalType": "address",
          "name": "operator",
          "type": "address"
        }
      ],
      "name": "isApprovedForAll",
      "outputs": [
        {
          "internalType": "bool",
          "name": "",
          "type": "bool"
        }
      ],
      "stateMutability": "view",
      "type": "function"
    },
    {
      "inputs": [
        {
          "internalType": "uint256",
          "name": "",
          "type": "uint256"
        }
      ],
      "name": "listOfTotalPlots",
      "outputs": [
        {
          "internalType": "address",
          "name": "",
          "type": "address"
        }
      ],
      "stateMutability": "view",
      "type": "function"
    },
    {
      "inputs": [
        {
          "internalType": "address",
          "name": "operator",
          "type": "address"
        },
        {
          "internalType": "address",
          "name": "from",
          "type": "address"
        },
        {
          "internalType": "uint256",
          "name": "tokenId",
          "type": "uint256"
        },
        {
          "internalType": "bytes",
          "name": "data",
          "type": "bytes"
        }
      ],
      "name": "onERC721Received",
      "outputs": [
        {
          "internalType": "bytes4",
          "name": "",
          "type": "bytes4"
        }
      ],
      "stateMutability": "pure",
      "type": "function"
    },
    {
      "inputs": [
        {
          "internalType": "uint256[]",
          "name": "parcelIds",
          "type": "uint256[]"
        },
        {
          "internalType": "uint256[]",
          "name": "parcelAmounts",
          "type": "uint256[]"
        }
      ],
      "name": "plotInitiate",
      "outputs": [],
      "stateMutability": "nonpayable",
      "type": "function"
    },
    {
      "inputs": [],
      "name": "plotOwnership",
      "outputs": [
        {
          "internalType": "contract IPlotOwnership",
          "name": "",
          "type": "address"
        }
      ],
      "stateMutability": "view",
      "type": "function"
    },
    {
      "inputs": [],
      "name": "plotOwnershipAddress",
      "outputs": [
        {
          "internalType": "address",
          "name": "",
          "type": "address"
        }
      ],
      "stateMutability": "view",
      "type": "function"
    },
    {
      "inputs": [],
      "name": "plotRegistry",
      "outputs": [
        {
          "internalType": "contract IPlotRegistry",
          "name": "",
          "type": "address"
        }
      ],
      "stateMutability": "view",
      "type": "function"
    },
    {
      "inputs": [
        {
          "internalType": "uint256",
          "name": "_requestId",
          "type": "uint256"
        }
      ],
      "name": "rejectTransfer",
      "outputs": [],
      "stateMutability": "nonpayable",
      "type": "function"
    },
    {
      "inputs": [
        {
          "internalType": "uint256",
          "name": "_parcelId",
          "type": "uint256"
        },
        {
          "internalType": "uint256",
          "name": "parcelAmount",
          "type": "uint256"
        },
        {
          "internalType": "address",
          "name": "to",
          "type": "address"
        },
        {
          "internalType": "uint256",
          "name": "_plotId",
          "type": "uint256"
        }
      ],
      "name": "requestForParcelTransfer",
      "outputs": [],
      "stateMutability": "nonpayable",
      "type": "function"
    },
    {
      "inputs": [
        {
          "internalType": "uint256",
          "name": "_plotId",
          "type": "uint256"
        },
        {
          "internalType": "address",
          "name": "to",
          "type": "address"
        }
      ],
      "name": "requestForWholePlotTransfer",
      "outputs": [],
      "stateMutability": "nonpayable",
      "type": "function"
    },
    {
      "inputs": [],
      "name": "requestId",
      "outputs": [
        {
          "internalType": "uint256",
          "name": "",
          "type": "uint256"
        }
      ],
      "stateMutability": "view",
      "type": "function"
    },
    {
      "inputs": [
        {
          "internalType": "uint256",
          "name": "_requestId",
          "type": "uint256"
        }
      ],
      "name": "requestStatus",
      "outputs": [
        {
          "components": [
            {
              "internalType": "address",
              "name": "from",
              "type": "address"
            },
            {
              "internalType": "address",
              "name": "to",
              "type": "address"
            },
            {
              "internalType": "uint256",
              "name": "parcelId",
              "type": "uint256"
            },
            {
              "internalType": "uint256",
              "name": "parcelAmount",
              "type": "uint256"
            },
            {
              "internalType": "bool",
              "name": "isPlotTransfer",
              "type": "bool"
            },
            {
              "internalType": "uint256",
              "name": "plotId",
              "type": "uint256"
            },
            {
              "internalType": "uint256",
              "name": "timestamp",
              "type": "uint256"
            },
            {
              "internalType": "enum LandAssetManager.TransferStatus",
              "name": "status",
              "type": "uint8"
            },
            {
              "internalType": "bool",
              "name": "landAuthorityApproved",
              "type": "bool"
            },
            {
              "internalType": "bool",
              "name": "lawyerApproved",
              "type": "bool"
            },
            {
              "internalType": "bool",
              "name": "bankApproved",
              "type": "bool"
            }
          ],
          "internalType": "struct LandAssetManager.TransferRequest",
          "name": "",
          "type": "tuple"
        }
      ],
      "stateMutability": "view",
      "type": "function"
    },
    {
      "inputs": [
        {
          "internalType": "address",
          "name": "from",
          "type": "address"
        },
        {
          "internalType": "address",
          "name": "to",
          "type": "address"
        },
        {
          "internalType": "uint256[]",
          "name": "ids",
          "type": "uint256[]"
        },
        {
          "internalType": "uint256[]",
          "name": "values",
          "type": "uint256[]"
        },
        {
          "internalType": "bytes",
          "name": "data",
          "type": "bytes"
        }
      ],
      "name": "safeBatchTransferFrom",
      "outputs": [],
      "stateMutability": "nonpayable",
      "type": "function"
    },
    {
      "inputs": [
        {
          "internalType": "address",
          "name": "from",
          "type": "address"
        },
        {
          "internalType": "address",
          "name": "to",
          "type": "address"
        },
        {
          "internalType": "uint256",
          "name": "id",
          "type": "uint256"
        },
        {
          "internalType": "uint256",
          "name": "value",
          "type": "uint256"
        },
        {
          "internalType": "bytes",
          "name": "data",
          "type": "bytes"
        }
      ],
      "name": "safeTransferFrom",
      "outputs": [],
      "stateMutability": "nonpayable",
      "type": "function"
    },
    {
      "inputs": [
        {
          "internalType": "address",
          "name": "operator",
          "type": "address"
        },
        {
          "internalType": "bool",
          "name": "approved",
          "type": "bool"
        }
      ],
      "name": "setApprovalForAll",
      "outputs": [],
      "stateMutability": "nonpayable",
      "type": "function"
    },
    {
      "inputs": [
        {
          "internalType": "bytes4",
          "name": "interfaceId",
          "type": "bytes4"
        }
      ],
      "name": "supportsInterface",
      "outputs": [
        {
          "internalType": "bool",
          "name": "",
          "type": "bool"
        }
      ],
      "stateMutability": "view",
      "type": "function"
    },
    {
      "inputs": [
        {
          "internalType": "uint256",
          "name": "",
          "type": "uint256"
        }
      ],
      "name": "uri",
      "outputs": [
        {
          "internalType": "string",
          "name": "",
          "type": "string"
        }
      ],
      "stateMutability": "view",
      "type": "function"
    }
  ],
  "bytecode": "0x608060405234801561001057600080fd5b50604051613d86380380613d8683398101604081905261002f916100cd565b836100398161008b565b50600a80546001600160a01b03199081166001600160a01b0395861617909155600880548216938516939093179092556009805483169190931690811790925560068054909116909117905550610312565b60026100978282610253565b5050565b634e487b7160e01b600052604160045260246000fd5b80516001600160a01b03811681146100c857600080fd5b919050565b600080600080608085870312156100e357600080fd5b84516001600160401b03808211156100fa57600080fd5b818701915087601f83011261010e57600080fd5b8151818111156101205761012061009b565b604051601f8201601f19908116603f011681019083821181831017156101485761014861009b565b81604052828152602093508a8484870101111561016457600080fd5b600091505b828210156101865784820184015181830185015290830190610169565b600084848301015280985050505061019f8188016100b1565b945050506101af604086016100b1565b91506101bd606086016100b1565b905092959194509250565b600181811c908216806101dc57607f821691505b6020821081036101fc57634e487b7160e01b600052602260045260246000fd5b50919050565b601f82111561024e576000816000526020600020601f850160051c8101602086101561022b5750805b601f850160051c820191505b8181101561024a57828155600101610237565b5050505b505050565b81516001600160401b0381111561026c5761026c61009b565b6102808161027a84546101c8565b84610202565b602080601f8311600181146102b5576000841561029d5750858301515b600019600386901b1c1916600185901b17855561024a565b600085815260208120601f198616915b828110156102e4578886015182559484019460019091019084016102c5565b50858210156103025787850151600019600388901b60f8161c191681555b5050505050600190811b01905550565b613a65806103216000396000f3fe608060405234801561001057600080fd5b506004361061020e5760003560e01c80636f6f9bef11610125578063bf5f71b8116100ad578063cea708441161007c578063cea70844146104e6578063de9375f2146104f9578063e985e9c51461050c578063f242432a1461051f578063f95a53d51461053257600080fd5b8063bf5f71b81461048d578063c2d4769d146104a0578063c5725f4b146104c0578063c572aad0146104d357600080fd5b8063a31a3a43116100f4578063a31a3a431461042e578063a738a28514610441578063a900e23614610454578063bceaebff14610467578063bdcb03141461047a57600080fd5b80636f6f9bef146103cd5780636fbba4d9146103ed57806382384f8114610400578063a22cb4651461041b57600080fd5b806312effc32116101a85780632eb2c2d6116101775780632eb2c2d614610356578063360f7582146103695780633fbc72761461037c57806345b6453b146103a75780634e1273f4146103ba57600080fd5b806312effc32146102d8578063150b7a02146102eb578063177531ea146103235780631a3132021461033657600080fd5b80630aa3c492116101e45780630aa3c4921461026e5780630cce22c71461028e5780630d1dfd08146102a35780630e89341c146102b857600080fd5b80626d6cae146102135780629a9b7b1461022f578062fdd58e1461023857806301ffc9a71461024b575b600080fd5b61021c60055481565b6040519081526020015b60405180910390f35b61021c60035481565b61021c610246366004612c03565b610545565b61025e610259366004612c45565b61056d565b6040519015158152602001610226565b61028161027c366004612c69565b610578565b6040516102269190612cd5565b6102a161029c366004612ce8565b610602565b005b6102ab6108a0565b6040516102269190612d1d565b6102cb6102c6366004612d6a565b610902565b6040516102269190612dd3565b6102a16102e6366004612d6a565b610996565b61030a6102f9366004612de6565b630a85bd0160e11b95945050505050565b6040516001600160e01b03199091168152602001610226565b610281610331366004612d6a565b610ab3565b610349610344366004612d6a565b610b2f565b6040516102269190612ebc565b6102a16103643660046130ad565b610c6a565b61021c61037736600461315a565b610cd1565b60065461038f906001600160a01b031681565b6040516001600160a01b039091168152602001610226565b6102816103b5366004612d6a565b610d5d565b6102816103c8366004613193565b610dc1565b6103e06103db366004612d6a565b610e8d565b6040516102269190613254565b6102cb6103fb366004612d6a565b6110f6565b60045460035460408051928352602083019190915201610226565b6102a16104293660046132e1565b611116565b61038f61043c366004612d6a565b611125565b6102ab61044f36600461330f565b61114f565b60085461038f906001600160a01b031681565b60095461038f906001600160a01b031681565b61021c61048836600461330f565b6111d0565b61021c61049b366004612c69565b61124c565b6104b36104ae366004612d6a565b61128c565b6040516102269190613331565b6102a16104ce366004612c69565b611394565b6102a16104e136600461337c565b6116a0565b61021c6104f43660046133c8565b611b46565b600a5461038f906001600160a01b031681565b61025e61051a366004613457565b611d59565b6102a161052d366004613485565b611d87565b6102a16105403660046134ed565b611de6565b6000818152602081815260408083206001600160a01b03861684529091529020545b92915050565b60006105678261206a565b6000828152600e60205260409081902054905163041634bf60e01b81526001600160a01b0383811660048301526060921690819063041634bf90602401600060405180830381865afa1580156105d2573d6000803e3d6000fd5b505050506040513d6000823e601f3d908101601f191682016040526105fa919081019061352c565b949350505050565b6000816001036106be576000838152600d60205260409020600701805461ff001916610100179081905562010000900460ff16801561065957506000838152600d60205260409020600701546301000000900460ff165b15610662575060015b836001600160a01b0316837faf49c9f2c598a27f6918ca87eb8058baac5f2f871de5ef13b001f58545e280608484426040516106b1939291909283529015156020830152604082015260600190565b60405180910390a3610863565b81600203610769576000838152600d60205260409020600701805463ff00000019166301000000179081905562010000900460ff16801561065957506000838152600d6020526040902060070154610100900460ff161561066257506040805182815260016020820181905242928201929092526001600160a01b0385169084907faf49c9f2c598a27f6918ca87eb8058baac5f2f871de5ef13b001f58545e28060906060016106b1565b81600303610813576000838152600d60205260409020600701805462ff000019166201000017908190556301000000900460ff16801561065957506000838152600d6020526040902060070154610100900460ff161561066257506040805182815260016020820181905242928201929092526001600160a01b0385169084907faf49c9f2c598a27f6918ca87eb8058baac5f2f871de5ef13b001f58545e28060906060016106b1565b6000821180156108235750600482105b6108635760405162461bcd60e51b815260206004820152600c60248201526b496e76616c696420726f6c6560a01b60448201526064015b60405180910390fd5b801561089a576000838152600d602052604090206004015460ff16156108915761088c836120ba565b61089a565b61089a8361232b565b50505050565b606060078054806020026020016040519081016040528092919081815260200182805480156108f857602002820191906000526020600020905b81546001600160a01b031681526001909101906020018083116108da575b5050505050905090565b606060028054610911906135bc565b80601f016020809104026020016040519081016040528092919081815260200182805461093d906135bc565b801561098a5780601f1061095f5761010080835404028352916020019161098a565b820191906000526020600020905b81548152906001019060200180831161096d57829003601f168201915b50505050509050919050565b600a546001600160a01b03166324d7806c336040516001600160e01b031960e084901b1681526001600160a01b039091166004820152602401602060405180830381865afa1580156109ec573d6000803e3d6000fd5b505050506040513d601f19601f82011682018060405250810190610a1091906135f6565b610a2c5760405162461bcd60e51b815260040161085a90613613565b6000818152600d602052604090206001600782015460ff166003811115610a5557610a55612e84565b14610a985760405162461bcd60e51b815260206004820152601360248201527252657175657374206e6f742070656e64696e6760681b604482015260640161085a565b6007810180546002919060ff19166001835b02179055505050565b6000818152600e6020526040808220548151631bdf9dc360e21b815291516060936001600160a01b0390921692636f7e770c9260048083019391928290030181865afa158015610b07573d6000803e3d6000fd5b505050506040513d6000823e601f3d908101601f19168201604052610567919081019061352c565b6040805161016081018252600080825260208201819052918101829052606081018290526080810182905260a0810182905260c0810182905260e08101829052610100810182905261012081018290526101408101919091526000828152600d602090815260409182902082516101608101845281546001600160a01b039081168252600183015416928101929092526002810154928201929092526003808301546060830152600483015460ff90811615156080840152600584015460a0840152600684015460c0840152600784015492939260e0850192911690811115610c1a57610c1a612e84565b6003811115610c2b57610c2b612e84565b81526007919091015460ff6101008204811615156020840152620100008204811615156040840152630100000090910416151560609091015292915050565b336001600160a01b0386168114801590610c8b5750610c898682611d59565b155b15610cbc5760405163711bec9160e11b81526001600160a01b0380831660048301528716602482015260440161085a565b610cc986868686866124dc565b505050505050565b6000838152600e602052604080822054905163835dc40b60e01b8152600481018590526001600160a01b03848116602483015290911690819063835dc40b90604401602060405180830381865afa158015610d30573d6000803e3d6000fd5b505050506040513d601f19601f82011682018060405250810190610d54919061364a565b95945050505050565b6000818152600c602090815260409182902060040180548351818402810184019094528084526060939283018282801561098a57602002820191906000526020600020905b815481526020019060010190808311610da25750505050509050919050565b60608151835114610df25781518351604051635b05999160e01b81526004810192909252602482015260440161085a565b600083516001600160401b03811115610e0d57610e0d612f66565b604051908082528060200260200182016040528015610e36578160200160208202803683370190505b50905060005b8451811015610e8557602080820286010151610e6090602080840287010151610545565b828281518110610e7257610e72613663565b6020908102919091010152600101610e3c565b509392505050565b610ebf6040518060a0016040528060608152602001606081526020016060815260200160008152602001606081525090565b6000828152600c602052604090819020815160a08101909252805482908290610ee7906135bc565b80601f0160208091040260200160405190810160405280929190818152602001828054610f13906135bc565b8015610f605780601f10610f3557610100808354040283529160200191610f60565b820191906000526020600020905b815481529060010190602001808311610f4357829003601f168201915b50505050508152602001600182018054610f79906135bc565b80601f0160208091040260200160405190810160405280929190818152602001828054610fa5906135bc565b8015610ff25780601f10610fc757610100808354040283529160200191610ff2565b820191906000526020600020905b815481529060010190602001808311610fd557829003601f168201915b5050505050815260200160028201805461100b906135bc565b80601f0160208091040260200160405190810160405280929190818152602001828054611037906135bc565b80156110845780601f1061105957610100808354040283529160200191611084565b820191906000526020600020905b81548152906001019060200180831161106757829003601f168201915b5050505050815260200160038201548152602001600482018054806020026020016040519081016040528092919081815260200182805480156110e657602002820191906000526020600020905b8154815260200190600101908083116110d2575b5050505050815250509050919050565b6000818152600c60205260409020600201805460609190610911906135bc565b611121338383612543565b5050565b6007818154811061113557600080fd5b6000918252602090912001546001600160a01b0316905081565b6000828152600e6020526040908190205490516309771aed60e41b8152600481018390526060916001600160a01b0316908190639771aed090602401600060405180830381865afa1580156111a8573d6000803e3d6000fd5b505050506040513d6000823e601f3d908101601f191682016040526105fa9190810190613679565b6000828152600e6020526040808220549051630447b88d60e51b8152600481018490526001600160a01b039091169081906388f711a0906024015b602060405180830381865afa158015611228573d6000803e3d6000fd5b505050506040513d601f19601f820116820180604052508101906105fa919061364a565b6000828152600e602052604080822054905163145263fd60e31b81526001600160a01b03848116600483015290911690819063a2931fe89060240161120b565b6112b9604051806060016040528060006001600160a01b0316815260200160608152602001606081525090565b6000828152600e6020908152604091829020825160608101845281546001600160a01b031681526001820180548551818602810186019096528086529194929385810193929083018282801561132e57602002820191906000526020600020905b81548152602001906001019080831161131a575b50505050508152602001600282018054806020026020016040519081016040528092919081815260200182805480156110e657602002820191906000526020600020908154815260200190600101908083116110d2575050505050815250509050919050565b33600954604051632ea9327360e11b8152600481018590526001600160a01b039283169290911690635d5264e690602401602060405180830381865afa1580156113e2573d6000803e3d6000fd5b505050506040513d601f19601f820116820180604052508101906114069190613707565b6001600160a01b0316146114585760405162461bcd60e51b8152602060048201526019602482015278139bdd081d1a19481bdddb995c881bd9881d1a19481c1b1bdd603a1b604482015260640161085a565b611462823361124c565b612710146114c15760405162461bcd60e51b815260206004820152602660248201527f5573657220646f6573206e6f742068617665207468652066756c6c206f776e6560448201526503939b434b8160d51b606482015260840161085a565b600580549060006114d18361373a565b909155505060055460408051610160810182523381526001600160a01b03841660208201526000918101829052606081019190915260016080820181905260a082018590524260c083015260e082019081526000602080830182905260408084018390526060938401839052858352600d825291829020845181546001600160a01b039182166001600160a01b03199182161783559286015160018381018054929093169190941617905591840151600283015591830151600380830191909155608084015160048301805491151560ff1992831617905560a0850151600584015560c0850151600684015560e085015160078401805494959194909392169184908111156115e2576115e2612e84565b0217905550610100828101516007909201805461012085015161014090950151151563010000000263ff00000019951515620100000262ff0000199515159094029490941662ffff001990911617919091179290921617905560006116443390565b60408051600080825260208201526001818301526060810187905290516001600160a01b03929092169184917f4595add82735fb552f64748fc031bd6e53c364da7faac5ce52e2ee48c943b7d3919081900360800190a4505050565b600a546001600160a01b03166324d7806c336040516001600160e01b031960e084901b1681526001600160a01b039091166004820152602401602060405180830381865afa1580156116f6573d6000803e3d6000fd5b505050506040513d601f19601f8201168201806040525081019061171a91906135f6565b6117365760405162461bcd60e51b815260040161085a90613613565b60005b82518110156117ab5781818151811061175457611754613663565b60200260200101516117856117663390565b85848151811061177857611778613663565b6020026020010151610545565b10156117a35760405162461bcd60e51b815260040161085a90613753565b600101611739565b50600480549060006117bc8361373a565b90915550506004805460095460405163af3dd63960e01b815292830182905230602484015290916001600160a01b039091169063af3dd639906044016020604051808303816000875af1158015611817573d6000803e3d6000fd5b505050506040513d601f19601f8201168201806040525081019061183b919061364a565b50600854600654604051630fcb200d60e21b81526001600160a01b0391821660048201526024810184905260606044820152600060648201819052929190911690633f2c8034906084016020604051808303816000875af11580156118a4573d6000803e3d6000fd5b505050506040513d601f19601f820116820180604052508101906118c89190613707565b604080516060810182526001600160a01b03838116825260208083018981528385018990526000888152600e835294909420835181546001600160a01b0319169316929092178255925180519495509193909261192c926001850192910190612b8b565b5060408201518051611948916002840191602090910190612b8b565b5090505061196e6119563390565b82868660405180602001604052806000815250610c6a565b6009546001600160a01b03166314c6bb7983336040516001600160e01b031960e085901b16815260048101929092526001600160a01b03166024820152604401600060405180830381600087803b1580156119c857600080fd5b505af11580156119dc573d6000803e3d6000fd5b50505050806001600160a01b0316636786e9586119f63390565b86866040518463ffffffff1660e01b8152600401611a169392919061377f565b6020604051808303816000875af1158015611a35573d6000803e3d6000fd5b505050506040513d601f19601f82011682018060405250810190611a59919061364a565b5060005b8451811015611ab857600c6000868381518110611a7c57611a7c613663565b60209081029190910181015182528181019290925260400160009081206004018054600181810183559183529290912090910184905501611a5d565b50600780546001810182556000919091527fa66cc928b5edb82af9bd49922954155ab7b0942694bea4ce44661d9a8736c6880180546001600160a01b0319166001600160a01b0383161790556040517f915708fb7ee5da90b08a28b58664546eae63c0680f363ea2cc38c345f5be294090611b38908690869042906137bf565b60405180910390a150505050565b600a546000906001600160a01b03166324d7806c336040516001600160e01b031960e084901b1681526001600160a01b039091166004820152602401602060405180830381865afa158015611b9f573d6000803e3d6000fd5b505050506040513d601f19601f82011682018060405250810190611bc391906135f6565b611bdf5760405162461bcd60e51b815260040161085a90613613565b60008211611c3b5760405162461bcd60e51b815260206004820152602360248201527f546f74616c20737570706c79206d75737420626520677265617465722074686160448201526206e20360ec1b606482015260840161085a565b60038054906000611c4b8361373a565b9091555050600354611c6e338285604051806020016040528060008152506125d9565b6000818152600c60205260409020611c868782613842565b506000818152600c60205260409020600101611ca28682613842565b506000818152600c60205260409020600201611cbe8582613842565b506000818152600c602052604090819020600301849055518190600b90611ce6908990613901565b908152602001604051809103902086604051611d029190613901565b908152602001604051809103902081905550807fa09f8ded7663b6558550b417380d535c092265d90b5415bd6d16d8c95b027d13878786604051611d489392919061391d565b60405180910390a295945050505050565b6001600160a01b03918216600090815260016020908152604080832093909416825291909152205460ff1690565b336001600160a01b0386168114801590611da85750611da68682611d59565b155b15611dd95760405163711bec9160e11b81526001600160a01b0380831660048301528716602482015260440161085a565b610cc98686868686612636565b6000811180611df55750600084115b611e555760405162461bcd60e51b815260206004820152602b60248201527f506c6f74204944206f722050617263656c204944206d7573742062652067726560448201526a061746572207468616e20360ac1b606482015260840161085a565b82611e61828633610cd1565b1015611e7f5760405162461bcd60e51b815260040161085a90613753565b60058054906000611e8f8361373a565b909155505060055460408051610160810190915280336001600160a01b0390811682528516602082015260408101879052606081018690526000608082015260a081018490524260c082015260e001600181526000602080830182905260408084018390526060938401839052858352600d825291829020845181546001600160a01b039182166001600160a01b03199182161783559286015160018381018054929093169190941617905591840151600283015591830151600380830191909155608084015160048301805491151560ff1992831617905560a0850151600584015560c0850151600684015560e08501516007840180549495919490939216918490811115611fa157611fa1612e84565b0217905550610100828101516007909201805461012085015161014090950151151563010000000263ff00000019951515620100000262ff0000199515159094029490941662ffff001990911617919091179290921617905560006120033390565b6001600160a01b0316827f4595add82735fb552f64748fc031bd6e53c364da7faac5ce52e2ee48c943b7d3888860008860405161205b9493929190938452602084019290925215156040830152606082015260800190565b60405180910390a45050505050565b60006001600160e01b03198216636cdb3d1360e11b148061209b57506001600160e01b031982166303a24d0760e21b145b8061056757506301ffc9a760e01b6001600160e01b0319831614610567565b6000818152600d60205260409020600581015481546120e291906001600160a01b031661124c565b6127101461214a5760405162461bcd60e51b815260206004820152602f60248201527f53656e64657220646f6573206e6f7420686176652031303025206f776e65727360448201526e1a1a5c081bd9881d1a19481c1b1bdd608a1b606482015260840161085a565b80546009546005830154604051632ea9327360e11b815260048101919091526001600160a01b039283169290911690635d5264e690602401602060405180830381865afa15801561219f573d6000803e3d6000fd5b505050506040513d601f19601f820116820180604052508101906121c39190613707565b6001600160a01b0316146122155760405162461bcd60e51b8152602060048201526019602482015278139bdd081d1a19481bdddb995c881bd9881d1a19481c1b1bdd603a1b604482015260640161085a565b60058101546000908152600e6020526040908190205482546001840154925163b061ce0560e01b81526001600160a01b0391821660048201529281166024840152169063b061ce05906044016020604051808303816000875af1158015612280573d6000803e3d6000fd5b505050506040513d601f19601f820116820180604052508101906122a491906135f6565b50600954600582015460018301546040516314c6bb7960e01b815260048101929092526001600160a01b039081166024830152909116906314c6bb7990604401600060405180830381600087803b1580156122fe57600080fd5b505af1158015612312573d6000803e3d6000fd5b5050506007820180546003925060ff1916600183610aaa565b6000818152600d60205260409020600381015460058201546002830154835461235e9291906001600160a01b0316610cd1565b101561237c5760405162461bcd60e51b815260040161085a90613753565b60058101546000908152600e6020526040908190205482546001840154600285015460038601549451632f80af0f60e21b81526001600160a01b039384166004820152918316602483015260448201526064810193909352169063be02bc3c906084016020604051808303816000875af11580156123fe573d6000803e3d6000fd5b505050506040513d601f19601f8201168201806040525081019061242291906135f6565b5060078101805460ff191660031790556005810154600182015461244f91906001600160a01b031661124c565b61271003612474576005810154600182015461247491906001600160a01b03166126c4565b60018101548154600554600284015460038501546040516001600160a01b039586169594909416937fc6dd6857b8ac04586ee065e8ee95def9aaebf505c92d9a01be171df17b97798e926124d092908252602082015260400190565b60405180910390a45050565b6001600160a01b03841661250657604051632bfa23e760e11b81526000600482015260240161085a565b6001600160a01b03851661252f57604051626a0d4560e21b81526000600482015260240161085a565b61253c8585858585612726565b5050505050565b6001600160a01b03821661256c5760405162ced3e160e81b81526000600482015260240161085a565b6001600160a01b03838116600081815260016020908152604080832094871680845294825291829020805460ff191686151590811790915591519182527f17307eab39ab6107e8899845ad3d59bd9653f200f220920489ca2b5937696c31910160405180910390a3505050565b6001600160a01b03841661260357604051632bfa23e760e11b81526000600482015260240161085a565b60408051600180825260208201869052818301908152606082018590526080820190925290610cc9600087848487612726565b6001600160a01b03841661266057604051632bfa23e760e11b81526000600482015260240161085a565b6001600160a01b03851661268957604051626a0d4560e21b81526000600482015260240161085a565b604080516001808252602082018690528183019081526060820185905260808201909252906126bb8787848487612726565b50505050505050565b6009546040516314c6bb7960e01b8152600481018490526001600160a01b038381166024830152909116906314c6bb7990604401600060405180830381600087803b15801561271257600080fd5b505af1158015610cc9573d6000803e3d6000fd5b61273285858585612779565b6001600160a01b0384161561253c578251339060010361276b576020848101519084015161276483898985858961297e565b5050610cc9565b610cc9818787878787612aa2565b80518251146127a85781518151604051635b05999160e01b81526004810192909252602482015260440161085a565b3360005b83518110156128ae576020818102858101820151908501909101516001600160a01b0388161561285f576000828152602081815260408083206001600160a01b038c16845290915290205481811015612838576040516303dee4c560e01b81526001600160a01b038a16600482015260248101829052604481018390526064810184905260840161085a565b6000838152602081815260408083206001600160a01b038d16845290915290209082900390555b6001600160a01b038716156128a4576000828152602081815260408083206001600160a01b038b1684529091528120805483929061289e908490613942565b90915550505b50506001016127ac565b50825160010361292f5760208301516000906020840151909150856001600160a01b0316876001600160a01b0316846001600160a01b03167fc3d58168c5ae7397731d063d5bbf3d657854427343f4c083240f7aacaa2d0f628585604051612920929190918252602082015260400190565b60405180910390a4505061253c565b836001600160a01b0316856001600160a01b0316826001600160a01b03167f4a39dc06d4c0dbc64b70af90fd698a233a518aa5d07e595d983b8c0526c8f7fb868660405161205b929190613955565b6001600160a01b0384163b15610cc95760405163f23a6e6160e01b81526001600160a01b0385169063f23a6e61906129c2908990899088908890889060040161397a565b6020604051808303816000875af19250505080156129fd575060408051601f3d908101601f191682019092526129fa918101906139b4565b60015b612a66573d808015612a2b576040519150601f19603f3d011682016040523d82523d6000602084013e612a30565b606091505b508051600003612a5e57604051632bfa23e760e11b81526001600160a01b038616600482015260240161085a565b805181602001fd5b6001600160e01b0319811663f23a6e6160e01b146126bb57604051632bfa23e760e11b81526001600160a01b038616600482015260240161085a565b6001600160a01b0384163b15610cc95760405163bc197c8160e01b81526001600160a01b0385169063bc197c8190612ae690899089908890889088906004016139d1565b6020604051808303816000875af1925050508015612b21575060408051601f3d908101601f19168201909252612b1e918101906139b4565b60015b612b4f573d808015612a2b576040519150601f19603f3d011682016040523d82523d6000602084013e612a30565b6001600160e01b0319811663bc197c8160e01b146126bb57604051632bfa23e760e11b81526001600160a01b038616600482015260240161085a565b828054828255906000526020600020908101928215612bc6579160200282015b82811115612bc6578251825591602001919060010190612bab565b50612bd2929150612bd6565b5090565b5b80821115612bd25760008155600101612bd7565b6001600160a01b0381168114612c0057600080fd5b50565b60008060408385031215612c1657600080fd5b8235612c2181612beb565b946020939093013593505050565b6001600160e01b031981168114612c0057600080fd5b600060208284031215612c5757600080fd5b8135612c6281612c2f565b9392505050565b60008060408385031215612c7c57600080fd5b823591506020830135612c8e81612beb565b809150509250929050565b60008151808452602080850194506020840160005b83811015612cca57815187529582019590820190600101612cae565b509495945050505050565b602081526000612c626020830184612c99565b600080600060608486031215612cfd57600080fd5b8335612d0881612beb565b95602085013595506040909401359392505050565b6020808252825182820181905260009190848201906040850190845b81811015612d5e5783516001600160a01b031683529284019291840191600101612d39565b50909695505050505050565b600060208284031215612d7c57600080fd5b5035919050565b60005b83811015612d9e578181015183820152602001612d86565b50506000910152565b60008151808452612dbf816020860160208601612d83565b601f01601f19169290920160200192915050565b602081526000612c626020830184612da7565b600080600080600060808688031215612dfe57600080fd5b8535612e0981612beb565b94506020860135612e1981612beb565b93506040860135925060608601356001600160401b0380821115612e3c57600080fd5b818801915088601f830112612e5057600080fd5b813581811115612e5f57600080fd5b896020828501011115612e7157600080fd5b9699959850939650602001949392505050565b634e487b7160e01b600052602160045260246000fd5b60048110612eb857634e487b7160e01b600052602160045260246000fd5b9052565b81516001600160a01b0316815261016081016020830151612ee860208401826001600160a01b03169052565b5060408301516040830152606083015160608301526080830151612f10608084018215159052565b5060a083015160a083015260c083015160c083015260e0830151612f3760e0840182612e9a565b506101008381015115159083015261012080840151151590830152610140928301511515929091019190915290565b634e487b7160e01b600052604160045260246000fd5b604051601f8201601f191681016001600160401b0381118282101715612fa457612fa4612f66565b604052919050565b60006001600160401b03821115612fc557612fc5612f66565b5060051b60200190565b600082601f830112612fe057600080fd5b81356020612ff5612ff083612fac565b612f7c565b8083825260208201915060208460051b87010193508684111561301757600080fd5b602086015b84811015613033578035835291830191830161301c565b509695505050505050565b600082601f83011261304f57600080fd5b81356001600160401b0381111561306857613068612f66565b61307b601f8201601f1916602001612f7c565b81815284602083860101111561309057600080fd5b816020850160208301376000918101602001919091529392505050565b600080600080600060a086880312156130c557600080fd5b85356130d081612beb565b945060208601356130e081612beb565b935060408601356001600160401b03808211156130fc57600080fd5b61310889838a01612fcf565b9450606088013591508082111561311e57600080fd5b61312a89838a01612fcf565b9350608088013591508082111561314057600080fd5b5061314d8882890161303e565b9150509295509295909350565b60008060006060848603121561316f57600080fd5b8335925060208401359150604084013561318881612beb565b809150509250925092565b600080604083850312156131a657600080fd5b82356001600160401b03808211156131bd57600080fd5b818501915085601f8301126131d157600080fd5b813560206131e1612ff083612fac565b82815260059290921b8401810191818101908984111561320057600080fd5b948201945b8386101561322757853561321881612beb565b82529482019490820190613205565b9650508601359250508082111561323d57600080fd5b5061324a85828601612fcf565b9150509250929050565b602081526000825160a0602084015261327060c0840182612da7565b90506020840151601f198085840301604086015261328e8383612da7565b925060408601519150808584030160608601526132ab8383612da7565b92506060860151608086015260808601519150808584030160a086015250610d548282612c99565b8015158114612c0057600080fd5b600080604083850312156132f457600080fd5b82356132ff81612beb565b91506020830135612c8e816132d3565b6000806040838503121561332257600080fd5b50508035926020909101359150565b602080825282516001600160a01b0316828201528201516060604083015260009061335f6080840182612c99565b90506040840151601f19848303016060850152610d548282612c99565b6000806040838503121561338f57600080fd5b82356001600160401b03808211156133a657600080fd5b6133b286838701612fcf565b9350602085013591508082111561323d57600080fd5b600080600080608085870312156133de57600080fd5b84356001600160401b03808211156133f557600080fd5b6134018883890161303e565b9550602087013591508082111561341757600080fd5b6134238883890161303e565b9450604087013591508082111561343957600080fd5b506134468782880161303e565b949793965093946060013593505050565b6000806040838503121561346a57600080fd5b823561347581612beb565b91506020830135612c8e81612beb565b600080600080600060a0868803121561349d57600080fd5b85356134a881612beb565b945060208601356134b881612beb565b9350604086013592506060860135915060808601356001600160401b038111156134e157600080fd5b61314d8882890161303e565b6000806000806080858703121561350357600080fd5b8435935060208501359250604085013561351c81612beb565b9396929550929360600135925050565b6000602080838503121561353f57600080fd5b82516001600160401b0381111561355557600080fd5b8301601f8101851361356657600080fd5b8051613574612ff082612fac565b81815260059190911b8201830190838101908783111561359357600080fd5b928401925b828410156135b157835182529284019290840190613598565b979650505050505050565b600181811c908216806135d057607f821691505b6020821081036135f057634e487b7160e01b600052602260045260246000fd5b50919050565b60006020828403121561360857600080fd5b8151612c62816132d3565b6020808252601c908201527f4c616e644d616e6167656d656e743a204e6f7420616e2061646d696e00000000604082015260600190565b60006020828403121561365c57600080fd5b5051919050565b634e487b7160e01b600052603260045260246000fd5b6000602080838503121561368c57600080fd5b82516001600160401b038111156136a257600080fd5b8301601f810185136136b357600080fd5b80516136c1612ff082612fac565b81815260059190911b820183019083810190878311156136e057600080fd5b928401925b828410156135b15783516136f881612beb565b825292840192908401906136e5565b60006020828403121561371957600080fd5b8151612c6281612beb565b634e487b7160e01b600052601160045260246000fd5b60006001820161374c5761374c613724565b5060010190565b6020808252601290820152714e6f7420656e6f7567682062616c616e636560701b604082015260600190565b6001600160a01b03841681526060602082018190526000906137a390830185612c99565b82810360408401526137b58185612c99565b9695505050505050565b6060815260006137d26060830186612c99565b82810360208401526137e48186612c99565b915050826040830152949350505050565b601f82111561383d576000816000526020600020601f850160051c8101602086101561381e5750805b601f850160051c820191505b81811015610cc95782815560010161382a565b505050565b81516001600160401b0381111561385b5761385b612f66565b61386f8161386984546135bc565b846137f5565b602080601f8311600181146138a4576000841561388c5750858301515b600019600386901b1c1916600185901b178555610cc9565b600085815260208120601f198616915b828110156138d3578886015182559484019460019091019084016138b4565b50858210156138f15787850151600019600388901b60f8161c191681555b5050505050600190811b01905550565b60008251613913818460208701612d83565b9190910192915050565b6060815260006139306060830186612da7565b82810360208401526137e48186612da7565b8082018082111561056757610567613724565b6040815260006139686040830185612c99565b8281036020840152610d548185612c99565b6001600160a01b03868116825285166020820152604081018490526060810183905260a0608082018190526000906135b190830184612da7565b6000602082840312156139c657600080fd5b8151612c6281612c2f565b6001600160a01b0386811682528516602082015260a0604082018190526000906139fd90830186612c99565b8281036060840152613a0f8186612c99565b90508281036080840152613a238185612da7565b9897505050505050505056fea2646970667358221220c27d6b6ac10bbcd69f8c7d0da3fdcc7959e9c8cd2e0babba370f1ec163e7618764736f6c63430008190033",
  "linkReferences": {},
  "deployedLinkReferences": {}
}