{
  "_format": "hh-sol-artifact-1",
  "contractName": "LandAssetManager",
  "sourceName": "contracts/LandAssetManager.sol",
  "abi": [
    {
      "inputs": [
        {
          "internalType": "string",
          "name": "uri",
          "type": "string"
        },
        {
          "internalType": "address",
          "name": "_auth",
          "type": "address"
        },
        {
          "internalType": "address",
          "name": "_plotRegistry",
          "type": "address"
        },
        {
          "internalType": "address",
          "name": "_plotOwnership",
          "type": "address"
        }
      ],
      "stateMutability": "nonpayable",
      "type": "constructor"
    },
    {
      "inputs": [
        {
          "internalType": "address",
          "name": "sender",
          "type": "address"
        },
        {
          "internalType": "uint256",
          "name": "balance",
          "type": "uint256"
        },
        {
          "internalType": "uint256",
          "name": "needed",
          "type": "uint256"
        },
        {
          "internalType": "uint256",
          "name": "tokenId",
          "type": "uint256"
        }
      ],
      "name": "ERC1155InsufficientBalance",
      "type": "error"
    },
    {
      "inputs": [
        {
          "internalType": "address",
          "name": "approver",
          "type": "address"
        }
      ],
      "name": "ERC1155InvalidApprover",
      "type": "error"
    },
    {
      "inputs": [
        {
          "internalType": "uint256",
          "name": "idsLength",
          "type": "uint256"
        },
        {
          "internalType": "uint256",
          "name": "valuesLength",
          "type": "uint256"
        }
      ],
      "name": "ERC1155InvalidArrayLength",
      "type": "error"
    },
    {
      "inputs": [
        {
          "internalType": "address",
          "name": "operator",
          "type": "address"
        }
      ],
      "name": "ERC1155InvalidOperator",
      "type": "error"
    },
    {
      "inputs": [
        {
          "internalType": "address",
          "name": "receiver",
          "type": "address"
        }
      ],
      "name": "ERC1155InvalidReceiver",
      "type": "error"
    },
    {
      "inputs": [
        {
          "internalType": "address",
          "name": "sender",
          "type": "address"
        }
      ],
      "name": "ERC1155InvalidSender",
      "type": "error"
    },
    {
      "inputs": [
        {
          "internalType": "address",
          "name": "operator",
          "type": "address"
        },
        {
          "internalType": "address",
          "name": "owner",
          "type": "address"
        }
      ],
      "name": "ERC1155MissingApprovalForAll",
      "type": "error"
    },
    {
      "anonymous": false,
      "inputs": [
        {
          "indexed": true,
          "internalType": "address",
          "name": "account",
          "type": "address"
        },
        {
          "indexed": true,
          "internalType": "address",
          "name": "operator",
          "type": "address"
        },
        {
          "indexed": false,
          "internalType": "bool",
          "name": "approved",
          "type": "bool"
        }
      ],
      "name": "ApprovalForAll",
      "type": "event"
    },
    {
      "anonymous": false,
      "inputs": [
        {
          "indexed": false,
          "internalType": "uint256[]",
          "name": "parcelIds",
          "type": "uint256[]"
        },
        {
          "indexed": false,
          "internalType": "uint256[]",
          "name": "parcelAmount",
          "type": "uint256[]"
        },
        {
          "indexed": false,
          "internalType": "uint256",
          "name": "timestamp",
          "type": "uint256"
        }
      ],
      "name": "PlotCreated",
      "type": "event"
    },
    {
      "anonymous": false,
      "inputs": [
        {
          "indexed": true,
          "internalType": "uint256",
          "name": "tokenId",
          "type": "uint256"
        },
        {
          "indexed": false,
          "internalType": "string",
          "name": "blockInfo",
          "type": "string"
        },
        {
          "indexed": false,
          "internalType": "string",
          "name": "parcelInfo",
          "type": "string"
        },
        {
          "indexed": false,
          "internalType": "uint256",
          "name": "totalSupply",
          "type": "uint256"
        }
      ],
      "name": "TokenCreated",
      "type": "event"
    },
    {
      "anonymous": false,
      "inputs": [
        {
          "indexed": true,
          "internalType": "uint256",
          "name": "requestId",
          "type": "uint256"
        },
        {
          "indexed": true,
          "internalType": "address",
          "name": "approver",
          "type": "address"
        },
        {
          "indexed": false,
          "internalType": "uint256",
          "name": "role",
          "type": "uint256"
        },
        {
          "indexed": false,
          "internalType": "bool",
          "name": "isFullyApproved",
          "type": "bool"
        },
        {
          "indexed": false,
          "internalType": "uint256",
          "name": "timestamp",
          "type": "uint256"
        }
      ],
      "name": "TransferApproved",
      "type": "event"
    },
    {
      "anonymous": false,
      "inputs": [
        {
          "indexed": true,
          "internalType": "address",
          "name": "operator",
          "type": "address"
        },
        {
          "indexed": true,
          "internalType": "address",
          "name": "from",
          "type": "address"
        },
        {
          "indexed": true,
          "internalType": "address",
          "name": "to",
          "type": "address"
        },
        {
          "indexed": false,
          "internalType": "uint256[]",
          "name": "ids",
          "type": "uint256[]"
        },
        {
          "indexed": false,
          "internalType": "uint256[]",
          "name": "values",
          "type": "uint256[]"
        }
      ],
      "name": "TransferBatch",
      "type": "event"
    },
    {
      "anonymous": false,
      "inputs": [
        {
          "indexed": true,
          "internalType": "uint256",
          "name": "requestId",
          "type": "uint256"
        },
        {
          "indexed": true,
          "internalType": "address",
          "name": "from",
          "type": "address"
        },
        {
          "indexed": true,
          "internalType": "address",
          "name": "to",
          "type": "address"
        },
        {
          "indexed": false,
          "internalType": "uint256",
          "name": "tokenId",
          "type": "uint256"
        },
        {
          "indexed": false,
          "internalType": "uint256",
          "name": "amount",
          "type": "uint256"
        }
      ],
      "name": "TransferExecuted",
      "type": "event"
    },
    {
      "anonymous": false,
      "inputs": [
        {
          "indexed": true,
          "internalType": "uint256",
          "name": "requestId",
          "type": "uint256"
        },
        {
          "indexed": true,
          "internalType": "address",
          "name": "from",
          "type": "address"
        },
        {
          "indexed": true,
          "internalType": "address",
          "name": "to",
          "type": "address"
        },
        {
          "indexed": false,
          "internalType": "uint256",
          "name": "tokenId",
          "type": "uint256"
        },
        {
          "indexed": false,
          "internalType": "uint256",
          "name": "amount",
          "type": "uint256"
        },
        {
          "indexed": false,
          "internalType": "bool",
          "name": "isPlotTransfer",
          "type": "bool"
        },
        {
          "indexed": false,
          "internalType": "uint256",
          "name": "plotId",
          "type": "uint256"
        }
      ],
      "name": "TransferRequestCreated",
      "type": "event"
    },
    {
      "anonymous": false,
      "inputs": [
        {
          "indexed": true,
          "internalType": "address",
          "name": "operator",
          "type": "address"
        },
        {
          "indexed": true,
          "internalType": "address",
          "name": "from",
          "type": "address"
        },
        {
          "indexed": true,
          "internalType": "address",
          "name": "to",
          "type": "address"
        },
        {
          "indexed": false,
          "internalType": "uint256",
          "name": "id",
          "type": "uint256"
        },
        {
          "indexed": false,
          "internalType": "uint256",
          "name": "value",
          "type": "uint256"
        }
      ],
      "name": "TransferSingle",
      "type": "event"
    },
    {
      "anonymous": false,
      "inputs": [
        {
          "indexed": false,
          "internalType": "string",
          "name": "value",
          "type": "string"
        },
        {
          "indexed": true,
          "internalType": "uint256",
          "name": "id",
          "type": "uint256"
        }
      ],
      "name": "URI",
      "type": "event"
    },
    {
      "inputs": [],
      "name": "auth",
      "outputs": [
        {
          "internalType": "contract IAuth",
          "name": "",
          "type": "address"
        }
      ],
      "stateMutability": "view",
      "type": "function"
    },
    {
      "inputs": [
        {
          "internalType": "address",
          "name": "account",
          "type": "address"
        },
        {
          "internalType": "uint256",
          "name": "id",
          "type": "uint256"
        }
      ],
      "name": "balanceOf",
      "outputs": [
        {
          "internalType": "uint256",
          "name": "",
          "type": "uint256"
        }
      ],
      "stateMutability": "view",
      "type": "function"
    },
    {
      "inputs": [
        {
          "internalType": "address[]",
          "name": "accounts",
          "type": "address[]"
        },
        {
          "internalType": "uint256[]",
          "name": "ids",
          "type": "uint256[]"
        }
      ],
      "name": "balanceOfBatch",
      "outputs": [
        {
          "internalType": "uint256[]",
          "name": "",
          "type": "uint256[]"
        }
      ],
      "stateMutability": "view",
      "type": "function"
    },
    {
      "inputs": [
        {
          "internalType": "string",
          "name": "blockInfo",
          "type": "string"
        },
        {
          "internalType": "string",
          "name": "parcelInfo",
          "type": "string"
        },
        {
          "internalType": "string",
          "name": "tokenURI",
          "type": "string"
        },
        {
          "internalType": "uint256",
          "name": "totalSupply",
          "type": "uint256"
        }
      ],
      "name": "createBlockParcelToken",
      "outputs": [
        {
          "internalType": "uint256",
          "name": "",
          "type": "uint256"
        }
      ],
      "stateMutability": "nonpayable",
      "type": "function"
    },
    {
      "inputs": [],
      "name": "currentTokenId",
      "outputs": [
        {
          "internalType": "uint256",
          "name": "",
          "type": "uint256"
        }
      ],
      "stateMutability": "view",
      "type": "function"
    },
    {
      "inputs": [
        {
          "internalType": "address",
          "name": "signerWallet",
          "type": "address"
        },
        {
          "internalType": "uint256",
          "name": "requestIdForApproval",
          "type": "uint256"
        },
        {
          "internalType": "uint256",
          "name": "_role",
          "type": "uint256"
        }
      ],
      "name": "delegateApproveAndTransfer",
      "outputs": [],
      "stateMutability": "nonpayable",
      "type": "function"
    },
    {
      "inputs": [
        {
          "internalType": "uint256",
          "name": "_tokenId",
          "type": "uint256"
        }
      ],
      "name": "getBlockParcelTokenURI",
      "outputs": [
        {
          "internalType": "string",
          "name": "",
          "type": "string"
        }
      ],
      "stateMutability": "view",
      "type": "function"
    },
    {
      "inputs": [],
      "name": "getCurrentPlotAndTokenIdInfo",
      "outputs": [
        {
          "internalType": "uint256",
          "name": "",
          "type": "uint256"
        },
        {
          "internalType": "uint256",
          "name": "",
          "type": "uint256"
        }
      ],
      "stateMutability": "view",
      "type": "function"
    },
    {
      "inputs": [
        {
          "internalType": "uint256",
          "name": "_tokenId",
          "type": "uint256"
        }
      ],
      "name": "getLandInfo",
      "outputs": [
        {
          "components": [
            {
              "internalType": "string",
              "name": "blockInfo",
              "type": "string"
            },
            {
              "internalType": "string",
              "name": "parcelInfo",
              "type": "string"
            },
            {
              "internalType": "string",
              "name": "blockParcelTokenURI",
              "type": "string"
            },
            {
              "internalType": "uint256",
              "name": "totalSupply",
              "type": "uint256"
            },
            {
              "internalType": "uint256[]",
              "name": "plotAllocation",
              "type": "uint256[]"
            }
          ],
          "internalType": "struct LandAssetManager.LandInfo",
          "name": "",
          "type": "tuple"
        }
      ],
      "stateMutability": "view",
      "type": "function"
    },
    {
      "inputs": [],
      "name": "getListOfTotalPlots",
      "outputs": [
        {
          "internalType": "address[]",
          "name": "",
          "type": "address[]"
        }
      ],
      "stateMutability": "view",
      "type": "function"
    },
    {
      "inputs": [
        {
          "internalType": "uint256",
          "name": "_plotId",
          "type": "uint256"
        },
        {
          "internalType": "address",
          "name": "_user",
          "type": "address"
        }
      ],
      "name": "getOwnershipPercentage",
      "outputs": [
        {
          "internalType": "uint256",
          "name": "",
          "type": "uint256"
        }
      ],
      "stateMutability": "view",
      "type": "function"
    },
    {
      "inputs": [
        {
          "internalType": "uint256",
          "name": "_plotId",
          "type": "uint256"
        }
      ],
      "name": "getPlotAccountInfo",
      "outputs": [
        {
          "components": [
            {
              "internalType": "address",
              "name": "plotAccount",
              "type": "address"
            },
            {
              "internalType": "uint256[]",
              "name": "parcelIds",
              "type": "uint256[]"
            },
            {
              "internalType": "uint256[]",
              "name": "parcelAmounts",
              "type": "uint256[]"
            }
          ],
          "internalType": "struct LandAssetManager.PlotInfo",
          "name": "",
          "type": "tuple"
        }
      ],
      "stateMutability": "view",
      "type": "function"
    },
    {
      "inputs": [
        {
          "internalType": "uint256",
          "name": "_plotId",
          "type": "uint256"
        },
        {
          "internalType": "uint256",
          "name": "_parcelId",
          "type": "uint256"
        }
      ],
      "name": "getPlotAccountParcelShareholders",
      "outputs": [
        {
          "internalType": "address[]",
          "name": "",
          "type": "address[]"
        }
      ],
      "stateMutability": "view",
      "type": "function"
    },
    {
      "inputs": [
        {
          "internalType": "uint256",
          "name": "_plotId",
          "type": "uint256"
        },
        {
          "internalType": "uint256",
          "name": "_parcelId",
          "type": "uint256"
        }
      ],
      "name": "getPlotAccountParcelTotalShares",
      "outputs": [
        {
          "internalType": "uint256",
          "name": "",
          "type": "uint256"
        }
      ],
      "stateMutability": "view",
      "type": "function"
    },
    {
      "inputs": [
        {
          "internalType": "uint256",
          "name": "_plotId",
          "type": "uint256"
        },
        {
          "internalType": "address",
          "name": "_user",
          "type": "address"
        },
        {
          "internalType": "uint256",
          "name": "_parcel",
          "type": "uint256"
        }
      ],
      "name": "getPlotAccountUserParcels",
      "outputs": [
        {
          "internalType": "uint256[]",
          "name": "",
          "type": "uint256[]"
        }
      ],
      "stateMutability": "view",
      "type": "function"
    },
    {
      "inputs": [
        {
          "internalType": "uint256",
          "name": "_plotId",
          "type": "uint256"
        },
        {
          "internalType": "uint256",
          "name": "_parcelId",
          "type": "uint256"
        },
        {
          "internalType": "address",
          "name": "_user",
          "type": "address"
        }
      ],
      "name": "getPlotAccountUserShares",
      "outputs": [
        {
          "internalType": "uint256",
          "name": "",
          "type": "uint256"
        }
      ],
      "stateMutability": "view",
      "type": "function"
    },
    {
      "inputs": [
        {
          "internalType": "uint256",
          "name": "_tokenId",
          "type": "uint256"
        }
      ],
      "name": "getPlotAllocation",
      "outputs": [
        {
          "internalType": "uint256[]",
          "name": "",
          "type": "uint256[]"
        }
      ],
      "stateMutability": "view",
      "type": "function"
    },
    {
      "inputs": [
        {
          "internalType": "address",
          "name": "account",
          "type": "address"
        },
        {
          "internalType": "address",
          "name": "operator",
          "type": "address"
        }
      ],
      "name": "isApprovedForAll",
      "outputs": [
        {
          "internalType": "bool",
          "name": "",
          "type": "bool"
        }
      ],
      "stateMutability": "view",
      "type": "function"
    },
    {
      "inputs": [
        {
          "internalType": "uint256",
          "name": "",
          "type": "uint256"
        }
      ],
      "name": "listOfTotalPlots",
      "outputs": [
        {
          "internalType": "address",
          "name": "",
          "type": "address"
        }
      ],
      "stateMutability": "view",
      "type": "function"
    },
    {
      "inputs": [
        {
          "internalType": "address",
          "name": "operator",
          "type": "address"
        },
        {
          "internalType": "address",
          "name": "from",
          "type": "address"
        },
        {
          "internalType": "uint256",
          "name": "tokenId",
          "type": "uint256"
        },
        {
          "internalType": "bytes",
          "name": "data",
          "type": "bytes"
        }
      ],
      "name": "onERC721Received",
      "outputs": [
        {
          "internalType": "bytes4",
          "name": "",
          "type": "bytes4"
        }
      ],
      "stateMutability": "pure",
      "type": "function"
    },
    {
      "inputs": [
        {
          "internalType": "uint256[]",
          "name": "parcelIds",
          "type": "uint256[]"
        },
        {
          "internalType": "uint256[]",
          "name": "parcelAmounts",
          "type": "uint256[]"
        }
      ],
      "name": "plotInitiate",
      "outputs": [],
      "stateMutability": "nonpayable",
      "type": "function"
    },
    {
      "inputs": [],
      "name": "plotOwnership",
      "outputs": [
        {
          "internalType": "contract IPlotOwnership",
          "name": "",
          "type": "address"
        }
      ],
      "stateMutability": "view",
      "type": "function"
    },
    {
      "inputs": [],
      "name": "plotOwnershipAddress",
      "outputs": [
        {
          "internalType": "address",
          "name": "",
          "type": "address"
        }
      ],
      "stateMutability": "view",
      "type": "function"
    },
    {
      "inputs": [],
      "name": "plotRegistry",
      "outputs": [
        {
          "internalType": "contract IPlotRegistry",
          "name": "",
          "type": "address"
        }
      ],
      "stateMutability": "view",
      "type": "function"
    },
    {
      "inputs": [
        {
          "internalType": "uint256",
          "name": "_requestId",
          "type": "uint256"
        }
      ],
      "name": "rejectTransfer",
      "outputs": [],
      "stateMutability": "nonpayable",
      "type": "function"
    },
    {
      "inputs": [
        {
          "internalType": "uint256",
          "name": "_parcelId",
          "type": "uint256"
        },
        {
          "internalType": "uint256",
          "name": "parcelAmount",
          "type": "uint256"
        },
        {
          "internalType": "address",
          "name": "to",
          "type": "address"
        },
        {
          "internalType": "uint256",
          "name": "_plotId",
          "type": "uint256"
        }
      ],
      "name": "requestForParcelTransfer",
      "outputs": [],
      "stateMutability": "nonpayable",
      "type": "function"
    },
    {
      "inputs": [
        {
          "internalType": "uint256",
          "name": "_plotId",
          "type": "uint256"
        },
        {
          "internalType": "address",
          "name": "to",
          "type": "address"
        }
      ],
      "name": "requestForWholePlotTransfer",
      "outputs": [],
      "stateMutability": "nonpayable",
      "type": "function"
    },
    {
      "inputs": [],
      "name": "requestId",
      "outputs": [
        {
          "internalType": "uint256",
          "name": "",
          "type": "uint256"
        }
      ],
      "stateMutability": "view",
      "type": "function"
    },
    {
      "inputs": [
        {
          "internalType": "uint256",
          "name": "_requestId",
          "type": "uint256"
        }
      ],
      "name": "requestStatus",
      "outputs": [
        {
          "components": [
            {
              "internalType": "address",
              "name": "from",
              "type": "address"
            },
            {
              "internalType": "address",
              "name": "to",
              "type": "address"
            },
            {
              "internalType": "uint256",
              "name": "parcelId",
              "type": "uint256"
            },
            {
              "internalType": "uint256",
              "name": "parcelAmount",
              "type": "uint256"
            },
            {
              "internalType": "bool",
              "name": "isPlotTransfer",
              "type": "bool"
            },
            {
              "internalType": "uint256",
              "name": "plotId",
              "type": "uint256"
            },
            {
              "internalType": "uint256",
              "name": "timestamp",
              "type": "uint256"
            },
            {
              "internalType": "enum LandAssetManager.TransferStatus",
              "name": "status",
              "type": "uint8"
            },
            {
              "internalType": "bool",
              "name": "landAuthorityApproved",
              "type": "bool"
            },
            {
              "internalType": "bool",
              "name": "lawyerApproved",
              "type": "bool"
            },
            {
              "internalType": "bool",
              "name": "bankApproved",
              "type": "bool"
            }
          ],
          "internalType": "struct LandAssetManager.TransferRequest",
          "name": "",
          "type": "tuple"
        }
      ],
      "stateMutability": "view",
      "type": "function"
    },
    {
      "inputs": [
        {
          "internalType": "address",
          "name": "from",
          "type": "address"
        },
        {
          "internalType": "address",
          "name": "to",
          "type": "address"
        },
        {
          "internalType": "uint256[]",
          "name": "ids",
          "type": "uint256[]"
        },
        {
          "internalType": "uint256[]",
          "name": "values",
          "type": "uint256[]"
        },
        {
          "internalType": "bytes",
          "name": "data",
          "type": "bytes"
        }
      ],
      "name": "safeBatchTransferFrom",
      "outputs": [],
      "stateMutability": "nonpayable",
      "type": "function"
    },
    {
      "inputs": [
        {
          "internalType": "address",
          "name": "from",
          "type": "address"
        },
        {
          "internalType": "address",
          "name": "to",
          "type": "address"
        },
        {
          "internalType": "uint256",
          "name": "id",
          "type": "uint256"
        },
        {
          "internalType": "uint256",
          "name": "value",
          "type": "uint256"
        },
        {
          "internalType": "bytes",
          "name": "data",
          "type": "bytes"
        }
      ],
      "name": "safeTransferFrom",
      "outputs": [],
      "stateMutability": "nonpayable",
      "type": "function"
    },
    {
      "inputs": [
        {
          "internalType": "address",
          "name": "operator",
          "type": "address"
        },
        {
          "internalType": "bool",
          "name": "approved",
          "type": "bool"
        }
      ],
      "name": "setApprovalForAll",
      "outputs": [],
      "stateMutability": "nonpayable",
      "type": "function"
    },
    {
      "inputs": [
        {
          "internalType": "bytes4",
          "name": "interfaceId",
          "type": "bytes4"
        }
      ],
      "name": "supportsInterface",
      "outputs": [
        {
          "internalType": "bool",
          "name": "",
          "type": "bool"
        }
      ],
      "stateMutability": "view",
      "type": "function"
    },
    {
      "inputs": [
        {
          "internalType": "uint256",
          "name": "",
          "type": "uint256"
        }
      ],
      "name": "uri",
      "outputs": [
        {
          "internalType": "string",
          "name": "",
          "type": "string"
        }
      ],
      "stateMutability": "view",
      "type": "function"
    }
  ],
  "bytecode": "0x608060405234801561001057600080fd5b50604051613d2b380380613d2b83398101604081905261002f916100cd565b836100398161008b565b50600a80546001600160a01b03199081166001600160a01b0395861617909155600880548216938516939093179092556009805483169190931690811790925560068054909116909117905550610312565b60026100978282610253565b5050565b634e487b7160e01b600052604160045260246000fd5b80516001600160a01b03811681146100c857600080fd5b919050565b600080600080608085870312156100e357600080fd5b84516001600160401b03808211156100fa57600080fd5b818701915087601f83011261010e57600080fd5b8151818111156101205761012061009b565b604051601f8201601f19908116603f011681019083821181831017156101485761014861009b565b81604052828152602093508a8484870101111561016457600080fd5b600091505b828210156101865784820184015181830185015290830190610169565b600084848301015280985050505061019f8188016100b1565b945050506101af604086016100b1565b91506101bd606086016100b1565b905092959194509250565b600181811c908216806101dc57607f821691505b6020821081036101fc57634e487b7160e01b600052602260045260246000fd5b50919050565b601f82111561024e576000816000526020600020601f850160051c8101602086101561022b5750805b601f850160051c820191505b8181101561024a57828155600101610237565b5050505b505050565b81516001600160401b0381111561026c5761026c61009b565b6102808161027a84546101c8565b84610202565b602080601f8311600181146102b5576000841561029d5750858301515b600019600386901b1c1916600185901b17855561024a565b600085815260208120601f198616915b828110156102e4578886015182559484019460019091019084016102c5565b50858210156103025787850151600019600388901b60f8161c191681555b5050505050600190811b01905550565b613a0a806103216000396000f3fe608060405234801561001057600080fd5b50600436106102035760003560e01c80637b3b96731161011a578063bf5f71b8116100ad578063cea708441161007c578063cea70844146104c8578063de9375f2146104db578063e985e9c5146104ee578063f242432a14610501578063f95a53d51461051457600080fd5b8063bf5f71b81461046f578063c2d4769d14610482578063c5725f4b146104a2578063c572aad0146104b557600080fd5b8063a738a285116100e9578063a738a28514610423578063a900e23614610436578063bceaebff14610449578063bdcb03141461045c57600080fd5b80637b3b9673146103cf57806382384f81146103e2578063a22cb465146103fd578063a31a3a431461041057600080fd5b8063150b7a021161019d5780633fbc72761161016c5780633fbc72761461033e57806345b6453b146103695780634e1273f4146103895780636f6f9bef1461039c5780636fbba4d9146103bc57600080fd5b8063150b7a02146102c05780631a313202146102f85780632eb2c2d614610318578063360f75821461032b57600080fd5b80630cce22c7116101d95780630cce22c7146102635780630d1dfd08146102785780630e89341c1461028d57806312effc32146102ad57600080fd5b80626d6cae146102085780629a9b7b14610224578062fdd58e1461022d57806301ffc9a714610240575b600080fd5b61021160055481565b6040519081526020015b60405180910390f35b61021160035481565b61021161023b366004612b70565b610527565b61025361024e366004612bb2565b61054f565b604051901515815260200161021b565b610276610271366004612bd6565b61055a565b005b6102806107f8565b60405161021b9190612c0b565b6102a061029b366004612c58565b61085a565b60405161021b9190612cc1565b6102766102bb366004612c58565b6108ee565b6102df6102ce366004612cd4565b630a85bd0160e11b95945050505050565b6040516001600160e01b0319909116815260200161021b565b61030b610306366004612c58565b610a0b565b60405161021b9190612daa565b610276610326366004612f9b565b610b46565b610211610339366004613048565b610bad565b600654610351906001600160a01b031681565b6040516001600160a01b03909116815260200161021b565b61037c610377366004612c58565b610c39565b60405161021b91906130bd565b61037c6103973660046130d0565b610c9d565b6103af6103aa366004612c58565b610d69565b60405161021b9190613191565b6102a06103ca366004612c58565b610fd2565b61037c6103dd366004613210565b610ff2565b6004546003546040805192835260208301919091520161021b565b61027661040b366004613256565b61107b565b61035161041e366004612c58565b61108a565b61028061043136600461328f565b6110b4565b600854610351906001600160a01b031681565b600954610351906001600160a01b031681565b61021161046a36600461328f565b61113d565b61021161047d3660046132b1565b6111b9565b610495610490366004612c58565b6111f9565b60405161021b91906132d6565b6102766104b03660046132b1565b611301565b6102766104c3366004613321565b61160d565b6102116104d636600461336d565b611ab3565b600a54610351906001600160a01b031681565b6102536104fc3660046133fc565b611cc6565b61027661050f36600461342a565b611cf4565b610276610522366004613492565b611d53565b6000818152602081815260408083206001600160a01b03861684529091529020545b92915050565b600061054982611fd7565b600081600103610616576000838152600d60205260409020600701805461ff001916610100179081905562010000900460ff1680156105b157506000838152600d60205260409020600701546301000000900460ff165b156105ba575060015b836001600160a01b0316837faf49c9f2c598a27f6918ca87eb8058baac5f2f871de5ef13b001f58545e28060848442604051610609939291909283529015156020830152604082015260600190565b60405180910390a36107bb565b816002036106c1576000838152600d60205260409020600701805463ff00000019166301000000179081905562010000900460ff1680156105b157506000838152600d6020526040902060070154610100900460ff16156105ba57506040805182815260016020820181905242928201929092526001600160a01b0385169084907faf49c9f2c598a27f6918ca87eb8058baac5f2f871de5ef13b001f58545e2806090606001610609565b8160030361076b576000838152600d60205260409020600701805462ff000019166201000017908190556301000000900460ff1680156105b157506000838152600d6020526040902060070154610100900460ff16156105ba57506040805182815260016020820181905242928201929092526001600160a01b0385169084907faf49c9f2c598a27f6918ca87eb8058baac5f2f871de5ef13b001f58545e2806090606001610609565b60008211801561077b5750600482105b6107bb5760405162461bcd60e51b815260206004820152600c60248201526b496e76616c696420726f6c6560a01b60448201526064015b60405180910390fd5b80156107f2576000838152600d602052604090206004015460ff16156107e9576107e483612027565b6107f2565b6107f283612298565b50505050565b6060600780548060200260200160405190810160405280929190818152602001828054801561085057602002820191906000526020600020905b81546001600160a01b03168152600190910190602001808311610832575b5050505050905090565b606060028054610869906134d1565b80601f0160208091040260200160405190810160405280929190818152602001828054610895906134d1565b80156108e25780601f106108b7576101008083540402835291602001916108e2565b820191906000526020600020905b8154815290600101906020018083116108c557829003601f168201915b50505050509050919050565b600a546001600160a01b03166324d7806c336040516001600160e01b031960e084901b1681526001600160a01b039091166004820152602401602060405180830381865afa158015610944573d6000803e3d6000fd5b505050506040513d601f19601f82011682018060405250810190610968919061350b565b6109845760405162461bcd60e51b81526004016107b290613528565b6000818152600d602052604090206001600782015460ff1660038111156109ad576109ad612d72565b146109f05760405162461bcd60e51b815260206004820152601360248201527252657175657374206e6f742070656e64696e6760681b60448201526064016107b2565b6007810180546002919060ff19166001835b02179055505050565b6040805161016081018252600080825260208201819052918101829052606081018290526080810182905260a0810182905260c0810182905260e08101829052610100810182905261012081018290526101408101919091526000828152600d602090815260409182902082516101608101845281546001600160a01b039081168252600183015416928101929092526002810154928201929092526003808301546060830152600483015460ff90811615156080840152600584015460a0840152600684015460c0840152600784015492939260e0850192911690811115610af657610af6612d72565b6003811115610b0757610b07612d72565b81526007919091015460ff6101008204811615156020840152620100008204811615156040840152630100000090910416151560609091015292915050565b336001600160a01b0386168114801590610b675750610b658682611cc6565b155b15610b985760405163711bec9160e11b81526001600160a01b038083166004830152871660248201526044016107b2565b610ba58686868686612449565b505050505050565b6000838152600e602052604080822054905163835dc40b60e01b8152600481018590526001600160a01b03848116602483015290911690819063835dc40b90604401602060405180830381865afa158015610c0c573d6000803e3d6000fd5b505050506040513d601f19601f82011682018060405250810190610c30919061355f565b95945050505050565b6000818152600c60209081526040918290206004018054835181840281018401909452808452606093928301828280156108e257602002820191906000526020600020905b815481526020019060010190808311610c7e5750505050509050919050565b60608151835114610cce5781518351604051635b05999160e01b8152600481019290925260248201526044016107b2565b600083516001600160401b03811115610ce957610ce9612e54565b604051908082528060200260200182016040528015610d12578160200160208202803683370190505b50905060005b8451811015610d6157602080820286010151610d3c90602080840287010151610527565b828281518110610d4e57610d4e613578565b6020908102919091010152600101610d18565b509392505050565b610d9b6040518060a0016040528060608152602001606081526020016060815260200160008152602001606081525090565b6000828152600c602052604090819020815160a08101909252805482908290610dc3906134d1565b80601f0160208091040260200160405190810160405280929190818152602001828054610def906134d1565b8015610e3c5780601f10610e1157610100808354040283529160200191610e3c565b820191906000526020600020905b815481529060010190602001808311610e1f57829003601f168201915b50505050508152602001600182018054610e55906134d1565b80601f0160208091040260200160405190810160405280929190818152602001828054610e81906134d1565b8015610ece5780601f10610ea357610100808354040283529160200191610ece565b820191906000526020600020905b815481529060010190602001808311610eb157829003601f168201915b50505050508152602001600282018054610ee7906134d1565b80601f0160208091040260200160405190810160405280929190818152602001828054610f13906134d1565b8015610f605780601f10610f3557610100808354040283529160200191610f60565b820191906000526020600020905b815481529060010190602001808311610f4357829003601f168201915b505050505081526020016003820154815260200160048201805480602002602001604051908101604052809291908181526020018280548015610fc257602002820191906000526020600020905b815481526020019060010190808311610fae575b5050505050815250509050919050565b6000818152600c60205260409020600201805460609190610869906134d1565b6000838152600e6020526040908190205490516363319d8d60e01b81526001600160a01b03848116600483015260248201849052606092169081906363319d8d90604401600060405180830381865afa158015611053573d6000803e3d6000fd5b505050506040513d6000823e601f3d908101601f19168201604052610c30919081019061358e565b6110863383836124b0565b5050565b6007818154811061109a57600080fd5b6000918252602090912001546001600160a01b0316905081565b6000828152600e6020526040908190205490516309771aed60e41b8152600481018390526060916001600160a01b0316908190639771aed090602401600060405180830381865afa15801561110d573d6000803e3d6000fd5b505050506040513d6000823e601f3d908101601f19168201604052611135919081019061361e565b949350505050565b6000828152600e6020526040808220549051630447b88d60e51b8152600481018490526001600160a01b039091169081906388f711a0906024015b602060405180830381865afa158015611195573d6000803e3d6000fd5b505050506040513d601f19601f82011682018060405250810190611135919061355f565b6000828152600e602052604080822054905163145263fd60e31b81526001600160a01b03848116600483015290911690819063a2931fe890602401611178565b611226604051806060016040528060006001600160a01b0316815260200160608152602001606081525090565b6000828152600e6020908152604091829020825160608101845281546001600160a01b031681526001820180548551818602810186019096528086529194929385810193929083018282801561129b57602002820191906000526020600020905b815481526020019060010190808311611287575b5050505050815260200160028201805480602002602001604051908101604052809291908181526020018280548015610fc25760200282019190600052602060002090815481526020019060010190808311610fae575050505050815250509050919050565b33600954604051632ea9327360e11b8152600481018590526001600160a01b039283169290911690635d5264e690602401602060405180830381865afa15801561134f573d6000803e3d6000fd5b505050506040513d601f19601f8201168201806040525081019061137391906136ac565b6001600160a01b0316146113c55760405162461bcd60e51b8152602060048201526019602482015278139bdd081d1a19481bdddb995c881bd9881d1a19481c1b1bdd603a1b60448201526064016107b2565b6113cf82336111b9565b6127101461142e5760405162461bcd60e51b815260206004820152602660248201527f5573657220646f6573206e6f742068617665207468652066756c6c206f776e6560448201526503939b434b8160d51b60648201526084016107b2565b6005805490600061143e836136df565b909155505060055460408051610160810182523381526001600160a01b03841660208201526000918101829052606081019190915260016080820181905260a082018590524260c083015260e082019081526000602080830182905260408084018390526060938401839052858352600d825291829020845181546001600160a01b039182166001600160a01b03199182161783559286015160018381018054929093169190941617905591840151600283015591830151600380830191909155608084015160048301805491151560ff1992831617905560a0850151600584015560c0850151600684015560e0850151600784018054949591949093921691849081111561154f5761154f612d72565b0217905550610100828101516007909201805461012085015161014090950151151563010000000263ff00000019951515620100000262ff0000199515159094029490941662ffff001990911617919091179290921617905560006115b13390565b60408051600080825260208201526001818301526060810187905290516001600160a01b03929092169184917f4595add82735fb552f64748fc031bd6e53c364da7faac5ce52e2ee48c943b7d3919081900360800190a4505050565b600a546001600160a01b03166324d7806c336040516001600160e01b031960e084901b1681526001600160a01b039091166004820152602401602060405180830381865afa158015611663573d6000803e3d6000fd5b505050506040513d601f19601f82011682018060405250810190611687919061350b565b6116a35760405162461bcd60e51b81526004016107b290613528565b60005b8251811015611718578181815181106116c1576116c1613578565b60200260200101516116f26116d33390565b8584815181106116e5576116e5613578565b6020026020010151610527565b10156117105760405162461bcd60e51b81526004016107b2906136f8565b6001016116a6565b5060048054906000611729836136df565b90915550506004805460095460405163af3dd63960e01b815292830182905230602484015290916001600160a01b039091169063af3dd639906044016020604051808303816000875af1158015611784573d6000803e3d6000fd5b505050506040513d601f19601f820116820180604052508101906117a8919061355f565b50600854600654604051630fcb200d60e21b81526001600160a01b0391821660048201526024810184905260606044820152600060648201819052929190911690633f2c8034906084016020604051808303816000875af1158015611811573d6000803e3d6000fd5b505050506040513d601f19601f8201168201806040525081019061183591906136ac565b604080516060810182526001600160a01b03838116825260208083018981528385018990526000888152600e835294909420835181546001600160a01b03191693169290921782559251805194955091939092611899926001850192910190612af8565b50604082015180516118b5916002840191602090910190612af8565b509050506118db6118c33390565b82868660405180602001604052806000815250610b46565b6009546001600160a01b03166314c6bb7983336040516001600160e01b031960e085901b16815260048101929092526001600160a01b03166024820152604401600060405180830381600087803b15801561193557600080fd5b505af1158015611949573d6000803e3d6000fd5b50505050806001600160a01b0316636786e9586119633390565b86866040518463ffffffff1660e01b815260040161198393929190613724565b6020604051808303816000875af11580156119a2573d6000803e3d6000fd5b505050506040513d601f19601f820116820180604052508101906119c6919061355f565b5060005b8451811015611a2557600c60008683815181106119e9576119e9613578565b602090810291909101810151825281810192909252604001600090812060040180546001818101835591835292909120909101849055016119ca565b50600780546001810182556000919091527fa66cc928b5edb82af9bd49922954155ab7b0942694bea4ce44661d9a8736c6880180546001600160a01b0319166001600160a01b0383161790556040517f915708fb7ee5da90b08a28b58664546eae63c0680f363ea2cc38c345f5be294090611aa590869086904290613764565b60405180910390a150505050565b600a546000906001600160a01b03166324d7806c336040516001600160e01b031960e084901b1681526001600160a01b039091166004820152602401602060405180830381865afa158015611b0c573d6000803e3d6000fd5b505050506040513d601f19601f82011682018060405250810190611b30919061350b565b611b4c5760405162461bcd60e51b81526004016107b290613528565b60008211611ba85760405162461bcd60e51b815260206004820152602360248201527f546f74616c20737570706c79206d75737420626520677265617465722074686160448201526206e20360ec1b60648201526084016107b2565b60038054906000611bb8836136df565b9091555050600354611bdb33828560405180602001604052806000815250612546565b6000818152600c60205260409020611bf387826137e7565b506000818152600c60205260409020600101611c0f86826137e7565b506000818152600c60205260409020600201611c2b85826137e7565b506000818152600c602052604090819020600301849055518190600b90611c539089906138a6565b908152602001604051809103902086604051611c6f91906138a6565b908152602001604051809103902081905550807fa09f8ded7663b6558550b417380d535c092265d90b5415bd6d16d8c95b027d13878786604051611cb5939291906138c2565b60405180910390a295945050505050565b6001600160a01b03918216600090815260016020908152604080832093909416825291909152205460ff1690565b336001600160a01b0386168114801590611d155750611d138682611cc6565b155b15611d465760405163711bec9160e11b81526001600160a01b038083166004830152871660248201526044016107b2565b610ba586868686866125a3565b6000811180611d625750600084115b611dc25760405162461bcd60e51b815260206004820152602b60248201527f506c6f74204944206f722050617263656c204944206d7573742062652067726560448201526a061746572207468616e20360ac1b60648201526084016107b2565b82611dce828633610bad565b1015611dec5760405162461bcd60e51b81526004016107b2906136f8565b60058054906000611dfc836136df565b909155505060055460408051610160810190915280336001600160a01b0390811682528516602082015260408101879052606081018690526000608082015260a081018490524260c082015260e001600181526000602080830182905260408084018390526060938401839052858352600d825291829020845181546001600160a01b039182166001600160a01b03199182161783559286015160018381018054929093169190941617905591840151600283015591830151600380830191909155608084015160048301805491151560ff1992831617905560a0850151600584015560c0850151600684015560e08501516007840180549495919490939216918490811115611f0e57611f0e612d72565b0217905550610100828101516007909201805461012085015161014090950151151563010000000263ff00000019951515620100000262ff0000199515159094029490941662ffff00199091161791909117929092161790556000611f703390565b6001600160a01b0316827f4595add82735fb552f64748fc031bd6e53c364da7faac5ce52e2ee48c943b7d38888600088604051611fc89493929190938452602084019290925215156040830152606082015260800190565b60405180910390a45050505050565b60006001600160e01b03198216636cdb3d1360e11b148061200857506001600160e01b031982166303a24d0760e21b145b8061054957506301ffc9a760e01b6001600160e01b0319831614610549565b6000818152600d602052604090206005810154815461204f91906001600160a01b03166111b9565b612710146120b75760405162461bcd60e51b815260206004820152602f60248201527f53656e64657220646f6573206e6f7420686176652031303025206f776e65727360448201526e1a1a5c081bd9881d1a19481c1b1bdd608a1b60648201526084016107b2565b80546009546005830154604051632ea9327360e11b815260048101919091526001600160a01b039283169290911690635d5264e690602401602060405180830381865afa15801561210c573d6000803e3d6000fd5b505050506040513d601f19601f8201168201806040525081019061213091906136ac565b6001600160a01b0316146121825760405162461bcd60e51b8152602060048201526019602482015278139bdd081d1a19481bdddb995c881bd9881d1a19481c1b1bdd603a1b60448201526064016107b2565b60058101546000908152600e6020526040908190205482546001840154925163b061ce0560e01b81526001600160a01b0391821660048201529281166024840152169063b061ce05906044016020604051808303816000875af11580156121ed573d6000803e3d6000fd5b505050506040513d601f19601f82011682018060405250810190612211919061350b565b50600954600582015460018301546040516314c6bb7960e01b815260048101929092526001600160a01b039081166024830152909116906314c6bb7990604401600060405180830381600087803b15801561226b57600080fd5b505af115801561227f573d6000803e3d6000fd5b5050506007820180546003925060ff1916600183610a02565b6000818152600d6020526040902060038101546005820154600283015483546122cb9291906001600160a01b0316610bad565b10156122e95760405162461bcd60e51b81526004016107b2906136f8565b60058101546000908152600e6020526040908190205482546001840154600285015460038601549451632f80af0f60e21b81526001600160a01b039384166004820152918316602483015260448201526064810193909352169063be02bc3c906084016020604051808303816000875af115801561236b573d6000803e3d6000fd5b505050506040513d601f19601f8201168201806040525081019061238f919061350b565b5060078101805460ff19166003179055600581015460018201546123bc91906001600160a01b03166111b9565b612710036123e157600581015460018201546123e191906001600160a01b0316612631565b60018101548154600554600284015460038501546040516001600160a01b039586169594909416937fc6dd6857b8ac04586ee065e8ee95def9aaebf505c92d9a01be171df17b97798e9261243d92908252602082015260400190565b60405180910390a45050565b6001600160a01b03841661247357604051632bfa23e760e11b8152600060048201526024016107b2565b6001600160a01b03851661249c57604051626a0d4560e21b8152600060048201526024016107b2565b6124a98585858585612693565b5050505050565b6001600160a01b0382166124d95760405162ced3e160e81b8152600060048201526024016107b2565b6001600160a01b03838116600081815260016020908152604080832094871680845294825291829020805460ff191686151590811790915591519182527f17307eab39ab6107e8899845ad3d59bd9653f200f220920489ca2b5937696c31910160405180910390a3505050565b6001600160a01b03841661257057604051632bfa23e760e11b8152600060048201526024016107b2565b60408051600180825260208201869052818301908152606082018590526080820190925290610ba5600087848487612693565b6001600160a01b0384166125cd57604051632bfa23e760e11b8152600060048201526024016107b2565b6001600160a01b0385166125f657604051626a0d4560e21b8152600060048201526024016107b2565b604080516001808252602082018690528183019081526060820185905260808201909252906126288787848487612693565b50505050505050565b6009546040516314c6bb7960e01b8152600481018490526001600160a01b038381166024830152909116906314c6bb7990604401600060405180830381600087803b15801561267f57600080fd5b505af1158015610ba5573d6000803e3d6000fd5b61269f858585856126e6565b6001600160a01b038416156124a957825133906001036126d857602084810151908401516126d18389898585896128eb565b5050610ba5565b610ba5818787878787612a0f565b80518251146127155781518151604051635b05999160e01b8152600481019290925260248201526044016107b2565b3360005b835181101561281b576020818102858101820151908501909101516001600160a01b038816156127cc576000828152602081815260408083206001600160a01b038c168452909152902054818110156127a5576040516303dee4c560e01b81526001600160a01b038a1660048201526024810182905260448101839052606481018490526084016107b2565b6000838152602081815260408083206001600160a01b038d16845290915290209082900390555b6001600160a01b03871615612811576000828152602081815260408083206001600160a01b038b1684529091528120805483929061280b9084906138e7565b90915550505b5050600101612719565b50825160010361289c5760208301516000906020840151909150856001600160a01b0316876001600160a01b0316846001600160a01b03167fc3d58168c5ae7397731d063d5bbf3d657854427343f4c083240f7aacaa2d0f62858560405161288d929190918252602082015260400190565b60405180910390a450506124a9565b836001600160a01b0316856001600160a01b0316826001600160a01b03167f4a39dc06d4c0dbc64b70af90fd698a233a518aa5d07e595d983b8c0526c8f7fb8686604051611fc89291906138fa565b6001600160a01b0384163b15610ba55760405163f23a6e6160e01b81526001600160a01b0385169063f23a6e619061292f908990899088908890889060040161391f565b6020604051808303816000875af192505050801561296a575060408051601f3d908101601f1916820190925261296791810190613959565b60015b6129d3573d808015612998576040519150601f19603f3d011682016040523d82523d6000602084013e61299d565b606091505b5080516000036129cb57604051632bfa23e760e11b81526001600160a01b03861660048201526024016107b2565b805181602001fd5b6001600160e01b0319811663f23a6e6160e01b1461262857604051632bfa23e760e11b81526001600160a01b03861660048201526024016107b2565b6001600160a01b0384163b15610ba55760405163bc197c8160e01b81526001600160a01b0385169063bc197c8190612a539089908990889088908890600401613976565b6020604051808303816000875af1925050508015612a8e575060408051601f3d908101601f19168201909252612a8b91810190613959565b60015b612abc573d808015612998576040519150601f19603f3d011682016040523d82523d6000602084013e61299d565b6001600160e01b0319811663bc197c8160e01b1461262857604051632bfa23e760e11b81526001600160a01b03861660048201526024016107b2565b828054828255906000526020600020908101928215612b33579160200282015b82811115612b33578251825591602001919060010190612b18565b50612b3f929150612b43565b5090565b5b80821115612b3f5760008155600101612b44565b6001600160a01b0381168114612b6d57600080fd5b50565b60008060408385031215612b8357600080fd5b8235612b8e81612b58565b946020939093013593505050565b6001600160e01b031981168114612b6d57600080fd5b600060208284031215612bc457600080fd5b8135612bcf81612b9c565b9392505050565b600080600060608486031215612beb57600080fd5b8335612bf681612b58565b95602085013595506040909401359392505050565b6020808252825182820181905260009190848201906040850190845b81811015612c4c5783516001600160a01b031683529284019291840191600101612c27565b50909695505050505050565b600060208284031215612c6a57600080fd5b5035919050565b60005b83811015612c8c578181015183820152602001612c74565b50506000910152565b60008151808452612cad816020860160208601612c71565b601f01601f19169290920160200192915050565b602081526000612bcf6020830184612c95565b600080600080600060808688031215612cec57600080fd5b8535612cf781612b58565b94506020860135612d0781612b58565b93506040860135925060608601356001600160401b0380821115612d2a57600080fd5b818801915088601f830112612d3e57600080fd5b813581811115612d4d57600080fd5b896020828501011115612d5f57600080fd5b9699959850939650602001949392505050565b634e487b7160e01b600052602160045260246000fd5b60048110612da657634e487b7160e01b600052602160045260246000fd5b9052565b81516001600160a01b0316815261016081016020830151612dd660208401826001600160a01b03169052565b5060408301516040830152606083015160608301526080830151612dfe608084018215159052565b5060a083015160a083015260c083015160c083015260e0830151612e2560e0840182612d88565b506101008381015115159083015261012080840151151590830152610140928301511515929091019190915290565b634e487b7160e01b600052604160045260246000fd5b604051601f8201601f191681016001600160401b0381118282101715612e9257612e92612e54565b604052919050565b60006001600160401b03821115612eb357612eb3612e54565b5060051b60200190565b600082601f830112612ece57600080fd5b81356020612ee3612ede83612e9a565b612e6a565b8083825260208201915060208460051b870101935086841115612f0557600080fd5b602086015b84811015612f215780358352918301918301612f0a565b509695505050505050565b600082601f830112612f3d57600080fd5b81356001600160401b03811115612f5657612f56612e54565b612f69601f8201601f1916602001612e6a565b818152846020838601011115612f7e57600080fd5b816020850160208301376000918101602001919091529392505050565b600080600080600060a08688031215612fb357600080fd5b8535612fbe81612b58565b94506020860135612fce81612b58565b935060408601356001600160401b0380821115612fea57600080fd5b612ff689838a01612ebd565b9450606088013591508082111561300c57600080fd5b61301889838a01612ebd565b9350608088013591508082111561302e57600080fd5b5061303b88828901612f2c565b9150509295509295909350565b60008060006060848603121561305d57600080fd5b8335925060208401359150604084013561307681612b58565b809150509250925092565b60008151808452602080850194506020840160005b838110156130b257815187529582019590820190600101613096565b509495945050505050565b602081526000612bcf6020830184613081565b600080604083850312156130e357600080fd5b82356001600160401b03808211156130fa57600080fd5b818501915085601f83011261310e57600080fd5b8135602061311e612ede83612e9a565b82815260059290921b8401810191818101908984111561313d57600080fd5b948201945b8386101561316457853561315581612b58565b82529482019490820190613142565b9650508601359250508082111561317a57600080fd5b5061318785828601612ebd565b9150509250929050565b602081526000825160a060208401526131ad60c0840182612c95565b90506020840151601f19808584030160408601526131cb8383612c95565b925060408601519150808584030160608601526131e88383612c95565b92506060860151608086015260808601519150808584030160a086015250610c308282613081565b60008060006060848603121561322557600080fd5b83359250602084013561323781612b58565b929592945050506040919091013590565b8015158114612b6d57600080fd5b6000806040838503121561326957600080fd5b823561327481612b58565b9150602083013561328481613248565b809150509250929050565b600080604083850312156132a257600080fd5b50508035926020909101359150565b600080604083850312156132c457600080fd5b82359150602083013561328481612b58565b602080825282516001600160a01b031682820152820151606060408301526000906133046080840182613081565b90506040840151601f19848303016060850152610c308282613081565b6000806040838503121561333457600080fd5b82356001600160401b038082111561334b57600080fd5b61335786838701612ebd565b9350602085013591508082111561317a57600080fd5b6000806000806080858703121561338357600080fd5b84356001600160401b038082111561339a57600080fd5b6133a688838901612f2c565b955060208701359150808211156133bc57600080fd5b6133c888838901612f2c565b945060408701359150808211156133de57600080fd5b506133eb87828801612f2c565b949793965093946060013593505050565b6000806040838503121561340f57600080fd5b823561341a81612b58565b9150602083013561328481612b58565b600080600080600060a0868803121561344257600080fd5b853561344d81612b58565b9450602086013561345d81612b58565b9350604086013592506060860135915060808601356001600160401b0381111561348657600080fd5b61303b88828901612f2c565b600080600080608085870312156134a857600080fd5b843593506020850135925060408501356134c181612b58565b9396929550929360600135925050565b600181811c908216806134e557607f821691505b60208210810361350557634e487b7160e01b600052602260045260246000fd5b50919050565b60006020828403121561351d57600080fd5b8151612bcf81613248565b6020808252601c908201527f4c616e644d616e6167656d656e743a204e6f7420616e2061646d696e00000000604082015260600190565b60006020828403121561357157600080fd5b5051919050565b634e487b7160e01b600052603260045260246000fd5b600060208083850312156135a157600080fd5b82516001600160401b038111156135b757600080fd5b8301601f810185136135c857600080fd5b80516135d6612ede82612e9a565b81815260059190911b820183019083810190878311156135f557600080fd5b928401925b82841015613613578351825292840192908401906135fa565b979650505050505050565b6000602080838503121561363157600080fd5b82516001600160401b0381111561364757600080fd5b8301601f8101851361365857600080fd5b8051613666612ede82612e9a565b81815260059190911b8201830190838101908783111561368557600080fd5b928401925b8284101561361357835161369d81612b58565b8252928401929084019061368a565b6000602082840312156136be57600080fd5b8151612bcf81612b58565b634e487b7160e01b600052601160045260246000fd5b6000600182016136f1576136f16136c9565b5060010190565b6020808252601290820152714e6f7420656e6f7567682062616c616e636560701b604082015260600190565b6001600160a01b038416815260606020820181905260009061374890830185613081565b828103604084015261375a8185613081565b9695505050505050565b6060815260006137776060830186613081565b82810360208401526137898186613081565b915050826040830152949350505050565b601f8211156137e2576000816000526020600020601f850160051c810160208610156137c35750805b601f850160051c820191505b81811015610ba5578281556001016137cf565b505050565b81516001600160401b0381111561380057613800612e54565b6138148161380e84546134d1565b8461379a565b602080601f83116001811461384957600084156138315750858301515b600019600386901b1c1916600185901b178555610ba5565b600085815260208120601f198616915b8281101561387857888601518255948401946001909101908401613859565b50858210156138965787850151600019600388901b60f8161c191681555b5050505050600190811b01905550565b600082516138b8818460208701612c71565b9190910192915050565b6060815260006138d56060830186612c95565b82810360208401526137898186612c95565b80820180821115610549576105496136c9565b60408152600061390d6040830185613081565b8281036020840152610c308185613081565b6001600160a01b03868116825285166020820152604081018490526060810183905260a06080820181905260009061361390830184612c95565b60006020828403121561396b57600080fd5b8151612bcf81612b9c565b6001600160a01b0386811682528516602082015260a0604082018190526000906139a290830186613081565b82810360608401526139b48186613081565b905082810360808401526139c88185612c95565b9897505050505050505056fea2646970667358221220cee73e04cd42fdea268237fbc5a587ffe71be3906014b2cdb4269a0b92341bb364736f6c63430008190033",
  "linkReferences": {},
  "deployedLinkReferences": {}
}