{
  "_format": "hh-sol-artifact-1",
  "contractName": "PlotOwnership",
  "sourceName": "contracts/PlotOwnership.sol",
  "abi": [
    {
      "inputs": [
        {
          "internalType": "address",
          "name": "_auth",
          "type": "address"
        }
      ],
      "stateMutability": "nonpayable",
      "type": "constructor"
    },
    {
      "inputs": [
        {
          "internalType": "address",
          "name": "sender",
          "type": "address"
        },
        {
          "internalType": "uint256",
          "name": "tokenId",
          "type": "uint256"
        },
        {
          "internalType": "address",
          "name": "owner",
          "type": "address"
        }
      ],
      "name": "ERC721IncorrectOwner",
      "type": "error"
    },
    {
      "inputs": [
        {
          "internalType": "address",
          "name": "operator",
          "type": "address"
        },
        {
          "internalType": "uint256",
          "name": "tokenId",
          "type": "uint256"
        }
      ],
      "name": "ERC721InsufficientApproval",
      "type": "error"
    },
    {
      "inputs": [
        {
          "internalType": "address",
          "name": "approver",
          "type": "address"
        }
      ],
      "name": "ERC721InvalidApprover",
      "type": "error"
    },
    {
      "inputs": [
        {
          "internalType": "address",
          "name": "operator",
          "type": "address"
        }
      ],
      "name": "ERC721InvalidOperator",
      "type": "error"
    },
    {
      "inputs": [
        {
          "internalType": "address",
          "name": "owner",
          "type": "address"
        }
      ],
      "name": "ERC721InvalidOwner",
      "type": "error"
    },
    {
      "inputs": [
        {
          "internalType": "address",
          "name": "receiver",
          "type": "address"
        }
      ],
      "name": "ERC721InvalidReceiver",
      "type": "error"
    },
    {
      "inputs": [
        {
          "internalType": "address",
          "name": "sender",
          "type": "address"
        }
      ],
      "name": "ERC721InvalidSender",
      "type": "error"
    },
    {
      "inputs": [
        {
          "internalType": "uint256",
          "name": "tokenId",
          "type": "uint256"
        }
      ],
      "name": "ERC721NonexistentToken",
      "type": "error"
    },
    {
      "anonymous": false,
      "inputs": [
        {
          "indexed": true,
          "internalType": "address",
          "name": "owner",
          "type": "address"
        },
        {
          "indexed": true,
          "internalType": "address",
          "name": "approved",
          "type": "address"
        },
        {
          "indexed": true,
          "internalType": "uint256",
          "name": "tokenId",
          "type": "uint256"
        }
      ],
      "name": "Approval",
      "type": "event"
    },
    {
      "anonymous": false,
      "inputs": [
        {
          "indexed": true,
          "internalType": "address",
          "name": "owner",
          "type": "address"
        },
        {
          "indexed": true,
          "internalType": "address",
          "name": "operator",
          "type": "address"
        },
        {
          "indexed": false,
          "internalType": "bool",
          "name": "approved",
          "type": "bool"
        }
      ],
      "name": "ApprovalForAll",
      "type": "event"
    },
    {
      "anonymous": false,
      "inputs": [
        {
          "indexed": true,
          "internalType": "address",
          "name": "from",
          "type": "address"
        },
        {
          "indexed": true,
          "internalType": "address",
          "name": "to",
          "type": "address"
        },
        {
          "indexed": true,
          "internalType": "uint256",
          "name": "tokenId",
          "type": "uint256"
        }
      ],
      "name": "Transfer",
      "type": "event"
    },
    {
      "inputs": [
        {
          "internalType": "address",
          "name": "to",
          "type": "address"
        },
        {
          "internalType": "uint256",
          "name": "tokenId",
          "type": "uint256"
        }
      ],
      "name": "approve",
      "outputs": [],
      "stateMutability": "nonpayable",
      "type": "function"
    },
    {
      "inputs": [],
      "name": "auth",
      "outputs": [
        {
          "internalType": "contract IAuth",
          "name": "",
          "type": "address"
        }
      ],
      "stateMutability": "view",
      "type": "function"
    },
    {
      "inputs": [
        {
          "internalType": "address",
          "name": "owner",
          "type": "address"
        }
      ],
      "name": "balanceOf",
      "outputs": [
        {
          "internalType": "uint256",
          "name": "",
          "type": "uint256"
        }
      ],
      "stateMutability": "view",
      "type": "function"
    },
    {
      "inputs": [
        {
          "internalType": "uint256",
          "name": "tokenId",
          "type": "uint256"
        }
      ],
      "name": "getApproved",
      "outputs": [
        {
          "internalType": "address",
          "name": "",
          "type": "address"
        }
      ],
      "stateMutability": "view",
      "type": "function"
    },
    {
      "inputs": [
        {
          "internalType": "address",
          "name": "owner",
          "type": "address"
        },
        {
          "internalType": "address",
          "name": "operator",
          "type": "address"
        }
      ],
      "name": "isApprovedForAll",
      "outputs": [
        {
          "internalType": "bool",
          "name": "",
          "type": "bool"
        }
      ],
      "stateMutability": "view",
      "type": "function"
    },
    {
      "inputs": [],
      "name": "landManagement",
      "outputs": [
        {
          "internalType": "address",
          "name": "",
          "type": "address"
        }
      ],
      "stateMutability": "view",
      "type": "function"
    },
    {
      "inputs": [
        {
          "internalType": "uint256",
          "name": "plotId",
          "type": "uint256"
        },
        {
          "internalType": "address",
          "name": "to",
          "type": "address"
        }
      ],
      "name": "mintPass",
      "outputs": [
        {
          "internalType": "uint256",
          "name": "",
          "type": "uint256"
        }
      ],
      "stateMutability": "nonpayable",
      "type": "function"
    },
    {
      "inputs": [],
      "name": "name",
      "outputs": [
        {
          "internalType": "string",
          "name": "",
          "type": "string"
        }
      ],
      "stateMutability": "view",
      "type": "function"
    },
    {
      "inputs": [
        {
          "internalType": "uint256",
          "name": "tokenId",
          "type": "uint256"
        }
      ],
      "name": "ownerOf",
      "outputs": [
        {
          "internalType": "address",
          "name": "",
          "type": "address"
        }
      ],
      "stateMutability": "view",
      "type": "function"
    },
    {
      "inputs": [
        {
          "internalType": "uint256",
          "name": "",
          "type": "uint256"
        }
      ],
      "name": "plotPassURI",
      "outputs": [
        {
          "internalType": "string",
          "name": "",
          "type": "string"
        }
      ],
      "stateMutability": "view",
      "type": "function"
    },
    {
      "inputs": [
        {
          "internalType": "address",
          "name": "from",
          "type": "address"
        },
        {
          "internalType": "address",
          "name": "to",
          "type": "address"
        },
        {
          "internalType": "uint256",
          "name": "tokenId",
          "type": "uint256"
        }
      ],
      "name": "safeTransferFrom",
      "outputs": [],
      "stateMutability": "nonpayable",
      "type": "function"
    },
    {
      "inputs": [
        {
          "internalType": "address",
          "name": "from",
          "type": "address"
        },
        {
          "internalType": "address",
          "name": "to",
          "type": "address"
        },
        {
          "internalType": "uint256",
          "name": "tokenId",
          "type": "uint256"
        },
        {
          "internalType": "bytes",
          "name": "data",
          "type": "bytes"
        }
      ],
      "name": "safeTransferFrom",
      "outputs": [],
      "stateMutability": "nonpayable",
      "type": "function"
    },
    {
      "inputs": [
        {
          "internalType": "address",
          "name": "operator",
          "type": "address"
        },
        {
          "internalType": "bool",
          "name": "approved",
          "type": "bool"
        }
      ],
      "name": "setApprovalForAll",
      "outputs": [],
      "stateMutability": "nonpayable",
      "type": "function"
    },
    {
      "inputs": [
        {
          "internalType": "address",
          "name": "_auth",
          "type": "address"
        },
        {
          "internalType": "string",
          "name": "_uri",
          "type": "string"
        }
      ],
      "name": "setAuth",
      "outputs": [],
      "stateMutability": "nonpayable",
      "type": "function"
    },
    {
      "inputs": [
        {
          "internalType": "bytes4",
          "name": "interfaceId",
          "type": "bytes4"
        }
      ],
      "name": "supportsInterface",
      "outputs": [
        {
          "internalType": "bool",
          "name": "",
          "type": "bool"
        }
      ],
      "stateMutability": "view",
      "type": "function"
    },
    {
      "inputs": [],
      "name": "symbol",
      "outputs": [
        {
          "internalType": "string",
          "name": "",
          "type": "string"
        }
      ],
      "stateMutability": "view",
      "type": "function"
    },
    {
      "inputs": [
        {
          "internalType": "uint256",
          "name": "tokenId",
          "type": "uint256"
        }
      ],
      "name": "tokenURI",
      "outputs": [
        {
          "internalType": "string",
          "name": "",
          "type": "string"
        }
      ],
      "stateMutability": "view",
      "type": "function"
    },
    {
      "inputs": [
        {
          "internalType": "address",
          "name": "from",
          "type": "address"
        },
        {
          "internalType": "address",
          "name": "to",
          "type": "address"
        },
        {
          "internalType": "uint256",
          "name": "tokenId",
          "type": "uint256"
        }
      ],
      "name": "transferFrom",
      "outputs": [],
      "stateMutability": "nonpayable",
      "type": "function"
    },
    {
      "inputs": [
        {
          "internalType": "uint256",
          "name": "plotId",
          "type": "uint256"
        },
        {
          "internalType": "string",
          "name": "newURI",
          "type": "string"
        }
      ],
      "name": "updateTokenURI",
      "outputs": [],
      "stateMutability": "nonpayable",
      "type": "function"
    },
    {
      "inputs": [],
      "name": "uri",
      "outputs": [
        {
          "internalType": "string",
          "name": "",
          "type": "string"
        }
      ],
      "stateMutability": "view",
      "type": "function"
    }
  ],
  "bytecode": "0x608060405234801561001057600080fd5b506040516118df3803806118df83398101604081905261002f916100b7565b60405180604001604052806009815260200168506c6f74205061737360b81b81525060405180604001604052806008815260200167504c4f545041535360c01b81525081600090816100819190610188565b50600161008e8282610188565b5050600780546001600160a01b0319166001600160a01b03939093169290921790915550610247565b6000602082840312156100c957600080fd5b81516001600160a01b03811681146100e057600080fd5b9392505050565b634e487b7160e01b600052604160045260246000fd5b600181811c9082168061011157607f821691505b60208210810361013157634e487b7160e01b600052602260045260246000fd5b50919050565b601f821115610183576000816000526020600020601f850160051c810160208610156101605750805b601f850160051c820191505b8181101561017f5782815560010161016c565b5050505b505050565b81516001600160401b038111156101a1576101a16100e7565b6101b5816101af84546100fd565b84610137565b602080601f8311600181146101ea57600084156101d25750858301515b600019600386901b1c1916600185901b17855561017f565b600085815260208120601f198616915b82811015610219578886015182559484019460019091019084016101fa565b50858210156102375787850151600019600388901b60f8161c191681555b5050505050600190811b01905550565b611689806102566000396000f3fe608060405234801561001057600080fd5b506004361061012c5760003560e01c806370a08231116100ad578063b88d4fde11610071578063b88d4fde14610282578063c87b56dd14610295578063de9375f2146102a8578063e985e9c5146102bb578063eac989f8146102ce57600080fd5b806370a082311461022057806376cc1c5c1461024157806395d89b4114610254578063a22cb4651461025c578063af3dd6391461026f57600080fd5b806318e97fd1116100f457806318e97fd1146101c157806323b872dd146101d457806342842e0e146101e75780636352211e146101fa57806367d6b1881461020d57600080fd5b806301ffc9a71461013157806306fdde0314610159578063081812fc1461016e578063095ea7b3146101995780630c3e6b72146101ae575b600080fd5b61014461013f36600461102e565b6102d6565b60405190151581526020015b60405180910390f35b6101616102e7565b6040516101509190611098565b61018161017c3660046110ab565b610379565b6040516001600160a01b039091168152602001610150565b6101ac6101a73660046110d9565b6103a2565b005b6101ac6101bc3660046111b1565b6103b1565b6101ac6101cf366004611201565b610497565b6101ac6101e2366004611232565b6105c2565b6101ac6101f5366004611232565b61064d565b6101816102083660046110ab565b610668565b61016161021b3660046110ab565b610673565b61023361022e366004611273565b61070d565b604051908152602001610150565b600854610181906001600160a01b031681565b610161610755565b6101ac61026a36600461129e565b610764565b61023361027d3660046112d7565b61076f565b6101ac6102903660046112fc565b610852565b6101616102a33660046110ab565b61086a565b600754610181906001600160a01b031681565b6101446102c936600461137c565b61090c565b61016161093a565b60006102e182610947565b92915050565b6060600080546102f6906113aa565b80601f0160208091040260200160405190810160405280929190818152602001828054610322906113aa565b801561036f5780601f106103445761010080835404028352916020019161036f565b820191906000526020600020905b81548152906001019060200180831161035257829003601f168201915b5050505050905090565b600061038482610997565b506000828152600460205260409020546001600160a01b03166102e1565b6103ad8282336109d0565b5050565b6007546001600160a01b03166324d7806c336040516001600160e01b031960e084901b1681526001600160a01b039091166004820152602401602060405180830381865afa158015610407573d6000803e3d6000fd5b505050506040513d601f19601f8201168201806040525081019061042b91906113e4565b61046b5760405162461bcd60e51b815260206004820152600c60248201526b2737ba1030b71030b236b4b760a11b60448201526064015b60405180910390fd5b600780546001600160a01b0319166001600160a01b03841617905560066104928282611449565b505050565b6007546001600160a01b03166324d7806c336040516001600160e01b031960e084901b1681526001600160a01b039091166004820152602401602060405180830381865afa1580156104ed573d6000803e3d6000fd5b505050506040513d601f19601f8201168201806040525081019061051191906113e4565b61054f5760405162461bcd60e51b815260206004820152600f60248201526e2737ba1030b71037b832b930ba37b960891b6044820152606401610462565b6000828152600260205260409020546001600160a01b03166105aa5760405162461bcd60e51b8152602060048201526014602482015273151bdad95b88191bd95cc81b9bdd08195e1a5cdd60621b6044820152606401610462565b60008281526009602052604090206104928282611449565b6001600160a01b0382166105ec57604051633250574960e11b815260006004820152602401610462565b60006105f98383336109dd565b9050836001600160a01b0316816001600160a01b031614610647576040516364283d7b60e01b81526001600160a01b0380861660048301526024820184905282166044820152606401610462565b50505050565b61049283838360405180602001604052806000815250610852565b60006102e182610997565b6009602052600090815260409020805461068c906113aa565b80601f01602080910402602001604051908101604052809291908181526020018280546106b8906113aa565b80156107055780601f106106da57610100808354040283529160200191610705565b820191906000526020600020905b8154815290600101906020018083116106e857829003601f168201915b505050505081565b60006001600160a01b038216610739576040516322718ad960e21b815260006004820152602401610462565b506001600160a01b031660009081526003602052604090205490565b6060600180546102f6906113aa565b6103ad338383610aee565b6007546000906001600160a01b031663aa271e1a336040516001600160e01b031960e084901b1681526001600160a01b039091166004820152602401602060405180830381865afa1580156107c8573d6000803e3d6000fd5b505050506040513d601f19601f820116820180604052508101906107ec91906113e4565b6108275760405162461bcd60e51b815260206004820152600c60248201526b2737ba10309036b4b73a32b960a11b6044820152606401610462565b6108318284610b8d565b600083815260096020526040902061084a600682611509565b509192915050565b61085d8484846105c2565b6106473385858585610ba7565b6000818152600960205260409020805460609190610887906113aa565b80601f01602080910402602001604051908101604052809291908181526020018280546108b3906113aa565b80156109005780601f106108d557610100808354040283529160200191610900565b820191906000526020600020905b8154815290600101906020018083116108e357829003601f168201915b50505050509050919050565b6001600160a01b03918216600090815260056020908152604080832093909416825291909152205460ff1690565b6006805461068c906113aa565b60006001600160e01b031982166380ac58cd60e01b148061097857506001600160e01b03198216635b5e139f60e01b145b806102e157506301ffc9a760e01b6001600160e01b03198316146102e1565b6000818152600260205260408120546001600160a01b0316806102e157604051637e27328960e01b815260048101849052602401610462565b6104928383836001610cd2565b60006001600160a01b0382161580610a7c5750600760009054906101000a90046001600160a01b03166001600160a01b031663718206416040518163ffffffff1660e01b8152600401602060405180830381865afa158015610a43573d6000803e3d6000fd5b505050506040513d601f19601f82011682018060405250810190610a6791906115dc565b6001600160a01b0316826001600160a01b0316145b80610a8f57506001600160a01b03841615155b610adb5760405162461bcd60e51b815260206004820152601960248201527f43616e6e6f74207472616e7366657220706c6f742070617373000000000000006044820152606401610462565b610ae6848484610dd8565b949350505050565b6001600160a01b038216610b2057604051630b61174360e31b81526001600160a01b0383166004820152602401610462565b6001600160a01b03838116600081815260056020908152604080832094871680845294825291829020805460ff191686151590811790915591519182527f17307eab39ab6107e8899845ad3d59bd9653f200f220920489ca2b5937696c31910160405180910390a3505050565b6103ad828260405180602001604052806000815250610ed1565b6001600160a01b0383163b15610ccb57604051630a85bd0160e11b81526001600160a01b0384169063150b7a0290610be99088908890879087906004016115f9565b6020604051808303816000875af1925050508015610c24575060408051601f3d908101601f19168201909252610c2191810190611636565b60015b610c8d573d808015610c52576040519150601f19603f3d011682016040523d82523d6000602084013e610c57565b606091505b508051600003610c8557604051633250574960e11b81526001600160a01b0385166004820152602401610462565b805181602001fd5b6001600160e01b03198116630a85bd0160e11b14610cc957604051633250574960e11b81526001600160a01b0385166004820152602401610462565b505b5050505050565b8080610ce657506001600160a01b03821615155b15610da8576000610cf684610997565b90506001600160a01b03831615801590610d225750826001600160a01b0316816001600160a01b031614155b8015610d355750610d33818461090c565b155b15610d5e5760405163a9fbf51f60e01b81526001600160a01b0384166004820152602401610462565b8115610da65783856001600160a01b0316826001600160a01b03167f8c5be1e5ebec7d5bd14f71427d1e84f3dd0314c0f7b2291e5b200ac8c7c3b92560405160405180910390a45b505b5050600090815260046020526040902080546001600160a01b0319166001600160a01b0392909216919091179055565b6000828152600260205260408120546001600160a01b0390811690831615610e0557610e05818486610ee9565b6001600160a01b03811615610e4357610e22600085600080610cd2565b6001600160a01b038116600090815260036020526040902080546000190190555b6001600160a01b03851615610e72576001600160a01b0385166000908152600360205260409020805460010190555b60008481526002602052604080822080546001600160a01b0319166001600160a01b0389811691821790925591518793918516917fddf252ad1be2c89b69c2b068fc378daa952ba7f163c4a11628f55a4df523b3ef91a4949350505050565b610edb8383610f4d565b610492336000858585610ba7565b610ef4838383610fb2565b610492576001600160a01b038316610f2257604051637e27328960e01b815260048101829052602401610462565b60405163177e802f60e01b81526001600160a01b038316600482015260248101829052604401610462565b6001600160a01b038216610f7757604051633250574960e11b815260006004820152602401610462565b6000610f85838360006109dd565b90506001600160a01b03811615610492576040516339e3563760e11b815260006004820152602401610462565b60006001600160a01b03831615801590610ae65750826001600160a01b0316846001600160a01b03161480610fec5750610fec848461090c565b80610ae65750506000908152600460205260409020546001600160a01b03908116911614919050565b6001600160e01b03198116811461102b57600080fd5b50565b60006020828403121561104057600080fd5b813561104b81611015565b9392505050565b6000815180845260005b818110156110785760208185018101518683018201520161105c565b506000602082860101526020601f19601f83011685010191505092915050565b60208152600061104b6020830184611052565b6000602082840312156110bd57600080fd5b5035919050565b6001600160a01b038116811461102b57600080fd5b600080604083850312156110ec57600080fd5b82356110f7816110c4565b946020939093013593505050565b634e487b7160e01b600052604160045260246000fd5b600067ffffffffffffffff8084111561113657611136611105565b604051601f8501601f19908116603f0116810190828211818310171561115e5761115e611105565b8160405280935085815286868601111561117757600080fd5b858560208301376000602087830101525050509392505050565b600082601f8301126111a257600080fd5b61104b8383356020850161111b565b600080604083850312156111c457600080fd5b82356111cf816110c4565b9150602083013567ffffffffffffffff8111156111eb57600080fd5b6111f785828601611191565b9150509250929050565b6000806040838503121561121457600080fd5b82359150602083013567ffffffffffffffff8111156111eb57600080fd5b60008060006060848603121561124757600080fd5b8335611252816110c4565b92506020840135611262816110c4565b929592945050506040919091013590565b60006020828403121561128557600080fd5b813561104b816110c4565b801515811461102b57600080fd5b600080604083850312156112b157600080fd5b82356112bc816110c4565b915060208301356112cc81611290565b809150509250929050565b600080604083850312156112ea57600080fd5b8235915060208301356112cc816110c4565b6000806000806080858703121561131257600080fd5b843561131d816110c4565b9350602085013561132d816110c4565b925060408501359150606085013567ffffffffffffffff81111561135057600080fd5b8501601f8101871361136157600080fd5b6113708782356020840161111b565b91505092959194509250565b6000806040838503121561138f57600080fd5b823561139a816110c4565b915060208301356112cc816110c4565b600181811c908216806113be57607f821691505b6020821081036113de57634e487b7160e01b600052602260045260246000fd5b50919050565b6000602082840312156113f657600080fd5b815161104b81611290565b601f821115610492576000816000526020600020601f850160051c8101602086101561142a5750805b601f850160051c820191505b81811015610cc957828155600101611436565b815167ffffffffffffffff81111561146357611463611105565b6114778161147184546113aa565b84611401565b602080601f8311600181146114ac57600084156114945750858301515b600019600386901b1c1916600185901b178555610cc9565b600085815260208120601f198616915b828110156114db578886015182559484019460019091019084016114bc565b50858210156114f95787850151600019600388901b60f8161c191681555b5050505050600190811b01905550565b818103611514575050565b61151e82546113aa565b67ffffffffffffffff81111561153657611536611105565b6115448161147184546113aa565b6000601f82116001811461157857600083156115605750848201545b600019600385901b1c1916600184901b178455610ccb565b600085815260209020601f19841690600086815260209020845b838110156115b25782860154825560019586019590910190602001611592565b50858310156114f95793015460001960f8600387901b161c19169092555050600190811b01905550565b6000602082840312156115ee57600080fd5b815161104b816110c4565b6001600160a01b038581168252841660208201526040810183905260806060820181905260009061162c90830184611052565b9695505050505050565b60006020828403121561164857600080fd5b815161104b8161101556fea264697066735822122006d0c632f32e9fce8eb0e43e3f4c6cffafecebb066514774f1982145b60cb2b464736f6c63430008190033",
  "linkReferences": {},
  "deployedLinkReferences": {}
}